{
	"contracts/Mycontract.sol": {
		"MyContract": {
			"abi": [
				{
					"inputs": [
						{
							"internalType": "string",
							"name": "_name",
							"type": "string"
						},
						{
							"internalType": "uint16",
							"name": "_price",
							"type": "uint16"
						}
					],
					"name": "addCar",
					"outputs": [],
					"stateMutability": "nonpayable",
					"type": "function"
				},
				{
					"inputs": [
						{
							"internalType": "uint256",
							"name": "",
							"type": "uint256"
						}
					],
					"name": "cars",
					"outputs": [
						{
							"internalType": "string",
							"name": "name",
							"type": "string"
						},
						{
							"internalType": "uint16",
							"name": "price",
							"type": "uint16"
						}
					],
					"stateMutability": "view",
					"type": "function"
				},
				{
					"inputs": [],
					"name": "myCar",
					"outputs": [
						{
							"internalType": "string",
							"name": "name",
							"type": "string"
						},
						{
							"internalType": "uint16",
							"name": "price",
							"type": "uint16"
						}
					],
					"stateMutability": "view",
					"type": "function"
				}
			],
			"devdoc": {
				"kind": "dev",
				"methods": {},
				"version": 1
			},
			"evm": {
				"assembly": "    /* \"contracts/Mycontract.sol\":26:275  contract MyContract {... */\n  mstore(0x40, 0x80)\n  callvalue\n  dup1\n  iszero\n  tag_1\n  jumpi\n  0x00\n  dup1\n  revert\ntag_1:\n  pop\n  dataSize(sub_0)\n  dup1\n  dataOffset(sub_0)\n  0x00\n  codecopy\n  0x00\n  return\nstop\n\nsub_0: assembly {\n        /* \"contracts/Mycontract.sol\":26:275  contract MyContract {... */\n      mstore(0x40, 0x80)\n      callvalue\n      dup1\n      iszero\n      tag_1\n      jumpi\n      0x00\n      dup1\n      revert\n    tag_1:\n      pop\n      jumpi(tag_2, lt(calldatasize, 0x04))\n      shr(0xe0, calldataload(0x00))\n      dup1\n      0x9cdde813\n      eq\n      tag_3\n      jumpi\n      dup1\n      0xaba3b91b\n      eq\n      tag_4\n      jumpi\n      dup1\n      0xf7746e36\n      eq\n      tag_5\n      jumpi\n    tag_2:\n      0x00\n      dup1\n      revert\n        /* \"contracts/Mycontract.sol\":143:159  Car public myCar */\n    tag_3:\n      tag_6\n      tag_7\n      jump\t// in\n    tag_6:\n      mload(0x40)\n      tag_8\n      swap3\n      swap2\n      swap1\n      tag_9\n      jump\t// in\n    tag_8:\n      mload(0x40)\n      dup1\n      swap2\n      sub\n      swap1\n      return\n        /* \"contracts/Mycontract.sol\":166:272  function addCar(string memory _name, uint16 _price) public {... */\n    tag_4:\n      tag_10\n      0x04\n      dup1\n      calldatasize\n      sub\n      dup2\n      add\n      swap1\n      tag_11\n      swap2\n      swap1\n      tag_12\n      jump\t// in\n    tag_11:\n      tag_13\n      jump\t// in\n    tag_10:\n      stop\n        /* \"contracts/Mycontract.sol\":119:136  Car[] public cars */\n    tag_5:\n      tag_14\n      0x04\n      dup1\n      calldatasize\n      sub\n      dup2\n      add\n      swap1\n      tag_15\n      swap2\n      swap1\n      tag_16\n      jump\t// in\n    tag_15:\n      tag_17\n      jump\t// in\n    tag_14:\n      mload(0x40)\n      tag_18\n      swap3\n      swap2\n      swap1\n      tag_9\n      jump\t// in\n    tag_18:\n      mload(0x40)\n      dup1\n      swap2\n      sub\n      swap1\n      return\n        /* \"contracts/Mycontract.sol\":143:159  Car public myCar */\n    tag_7:\n      0x01\n      dup1\n      0x00\n      add\n      dup1\n      sload\n      tag_19\n      swap1\n      tag_20\n      jump\t// in\n    tag_19:\n      dup1\n      0x1f\n      add\n      0x20\n      dup1\n      swap2\n      div\n      mul\n      0x20\n      add\n      mload(0x40)\n      swap1\n      dup2\n      add\n      0x40\n      mstore\n      dup1\n      swap3\n      swap2\n      swap1\n      dup2\n      dup2\n      mstore\n      0x20\n      add\n      dup3\n      dup1\n      sload\n      tag_21\n      swap1\n      tag_20\n      jump\t// in\n    tag_21:\n      dup1\n      iszero\n      tag_22\n      jumpi\n      dup1\n      0x1f\n      lt\n      tag_23\n      jumpi\n      0x0100\n      dup1\n      dup4\n      sload\n      div\n      mul\n      dup4\n      mstore\n      swap2\n      0x20\n      add\n      swap2\n      jump(tag_22)\n    tag_23:\n      dup3\n      add\n      swap2\n      swap1\n      0x00\n      mstore\n      keccak256(0x00, 0x20)\n      swap1\n    tag_24:\n      dup2\n      sload\n      dup2\n      mstore\n      swap1\n      0x01\n      add\n      swap1\n      0x20\n      add\n      dup1\n      dup4\n      gt\n      tag_24\n      jumpi\n      dup3\n      swap1\n      sub\n      0x1f\n      and\n      dup3\n      add\n      swap2\n    tag_22:\n      pop\n      pop\n      pop\n      pop\n      pop\n      swap1\n      dup1\n      0x01\n      add\n      0x00\n      swap1\n      sload\n      swap1\n      0x0100\n      exp\n      swap1\n      div\n      0xffff\n      and\n      swap1\n      pop\n      dup3\n      jump\t// out\n        /* \"contracts/Mycontract.sol\":166:272  function addCar(string memory _name, uint16 _price) public {... */\n    tag_13:\n        /* \"contracts/Mycontract.sol\":235:239  cars */\n      0x00\n        /* \"contracts/Mycontract.sol\":245:264  Car(_name , _price) */\n      mload(0x40)\n      dup1\n      0x40\n      add\n      0x40\n      mstore\n      dup1\n        /* \"contracts/Mycontract.sol\":249:254  _name */\n      dup5\n        /* \"contracts/Mycontract.sol\":245:264  Car(_name , _price) */\n      dup2\n      mstore\n      0x20\n      add\n        /* \"contracts/Mycontract.sol\":257:263  _price */\n      dup4\n        /* \"contracts/Mycontract.sol\":245:264  Car(_name , _price) */\n      0xffff\n      and\n      dup2\n      mstore\n      pop\n        /* \"contracts/Mycontract.sol\":235:265  cars.push(Car(_name , _price)) */\n      swap1\n      dup1\n      0x01\n      dup2\n      sload\n      add\n      dup1\n      dup3\n      sstore\n      dup1\n      swap2\n      pop\n      pop\n      0x01\n      swap1\n      sub\n      swap1\n      0x00\n      mstore\n      keccak256(0x00, 0x20)\n      swap1\n      0x02\n      mul\n      add\n      0x00\n      swap1\n      swap2\n      swap1\n      swap2\n      swap1\n      swap2\n      pop\n      0x00\n      dup3\n      add\n      mload\n      dup2\n      0x00\n      add\n      swap1\n      dup1\n      mload\n      swap1\n      0x20\n      add\n      swap1\n      tag_27\n      swap3\n      swap2\n      swap1\n      tag_28\n      jump\t// in\n    tag_27:\n      pop\n      0x20\n      dup3\n      add\n      mload\n      dup2\n      0x01\n      add\n      exp(0x0100, 0x00)\n      dup2\n      sload\n      dup2\n      0xffff\n      mul\n      not\n      and\n      swap1\n      dup4\n      0xffff\n      and\n      mul\n      or\n      swap1\n      sstore\n      pop\n      pop\n      pop\n        /* \"contracts/Mycontract.sol\":166:272  function addCar(string memory _name, uint16 _price) public {... */\n      pop\n      pop\n      jump\t// out\n        /* \"contracts/Mycontract.sol\":119:136  Car[] public cars */\n    tag_17:\n      0x00\n      dup2\n      dup2\n      sload\n      dup2\n      lt\n      tag_29\n      jumpi\n      0x00\n      dup1\n      revert\n    tag_29:\n      swap1\n      0x00\n      mstore\n      keccak256(0x00, 0x20)\n      swap1\n      0x02\n      mul\n      add\n      0x00\n      swap2\n      pop\n      swap1\n      pop\n      dup1\n      0x00\n      add\n      dup1\n      sload\n      tag_31\n      swap1\n      tag_20\n      jump\t// in\n    tag_31:\n      dup1\n      0x1f\n      add\n      0x20\n      dup1\n      swap2\n      div\n      mul\n      0x20\n      add\n      mload(0x40)\n      swap1\n      dup2\n      add\n      0x40\n      mstore\n      dup1\n      swap3\n      swap2\n      swap1\n      dup2\n      dup2\n      mstore\n      0x20\n      add\n      dup3\n      dup1\n      sload\n      tag_32\n      swap1\n      tag_20\n      jump\t// in\n    tag_32:\n      dup1\n      iszero\n      tag_33\n      jumpi\n      dup1\n      0x1f\n      lt\n      tag_34\n      jumpi\n      0x0100\n      dup1\n      dup4\n      sload\n      div\n      mul\n      dup4\n      mstore\n      swap2\n      0x20\n      add\n      swap2\n      jump(tag_33)\n    tag_34:\n      dup3\n      add\n      swap2\n      swap1\n      0x00\n      mstore\n      keccak256(0x00, 0x20)\n      swap1\n    tag_35:\n      dup2\n      sload\n      dup2\n      mstore\n      swap1\n      0x01\n      add\n      swap1\n      0x20\n      add\n      dup1\n      dup4\n      gt\n      tag_35\n      jumpi\n      dup3\n      swap1\n      sub\n      0x1f\n      and\n      dup3\n      add\n      swap2\n    tag_33:\n      pop\n      pop\n      pop\n      pop\n      pop\n      swap1\n      dup1\n      0x01\n      add\n      0x00\n      swap1\n      sload\n      swap1\n      0x0100\n      exp\n      swap1\n      div\n      0xffff\n      and\n      swap1\n      pop\n      dup3\n      jump\t// out\n    tag_28:\n      dup3\n      dup1\n      sload\n      tag_36\n      swap1\n      tag_20\n      jump\t// in\n    tag_36:\n      swap1\n      0x00\n      mstore\n      keccak256(0x00, 0x20)\n      swap1\n      0x1f\n      add\n      0x20\n      swap1\n      div\n      dup2\n      add\n      swap3\n      dup3\n      tag_38\n      jumpi\n      0x00\n      dup6\n      sstore\n      jump(tag_37)\n    tag_38:\n      dup3\n      0x1f\n      lt\n      tag_39\n      jumpi\n      dup1\n      mload\n      not(0xff)\n      and\n      dup4\n      dup1\n      add\n      or\n      dup6\n      sstore\n      jump(tag_37)\n    tag_39:\n      dup3\n      dup1\n      add\n      0x01\n      add\n      dup6\n      sstore\n      dup3\n      iszero\n      tag_37\n      jumpi\n      swap2\n      dup3\n      add\n    tag_40:\n      dup3\n      dup2\n      gt\n      iszero\n      tag_41\n      jumpi\n      dup3\n      mload\n      dup3\n      sstore\n      swap2\n      0x20\n      add\n      swap2\n      swap1\n      0x01\n      add\n      swap1\n      jump(tag_40)\n    tag_41:\n    tag_37:\n      pop\n      swap1\n      pop\n      tag_42\n      swap2\n      swap1\n      tag_43\n      jump\t// in\n    tag_42:\n      pop\n      swap1\n      jump\t// out\n    tag_43:\n    tag_44:\n      dup1\n      dup3\n      gt\n      iszero\n      tag_45\n      jumpi\n      0x00\n      dup2\n      0x00\n      swap1\n      sstore\n      pop\n      0x01\n      add\n      jump(tag_44)\n    tag_45:\n      pop\n      swap1\n      jump\t// out\n        /* \"#utility.yul\":7:106   */\n    tag_46:\n        /* \"#utility.yul\":59:65   */\n      0x00\n        /* \"#utility.yul\":93:98   */\n      dup2\n        /* \"#utility.yul\":87:99   */\n      mload\n        /* \"#utility.yul\":77:99   */\n      swap1\n      pop\n        /* \"#utility.yul\":7:106   */\n      swap2\n      swap1\n      pop\n      jump\t// out\n        /* \"#utility.yul\":112:281   */\n    tag_47:\n        /* \"#utility.yul\":196:207   */\n      0x00\n        /* \"#utility.yul\":230:236   */\n      dup3\n        /* \"#utility.yul\":225:228   */\n      dup3\n        /* \"#utility.yul\":218:237   */\n      mstore\n        /* \"#utility.yul\":270:274   */\n      0x20\n        /* \"#utility.yul\":265:268   */\n      dup3\n        /* \"#utility.yul\":261:275   */\n      add\n        /* \"#utility.yul\":246:275   */\n      swap1\n      pop\n        /* \"#utility.yul\":112:281   */\n      swap3\n      swap2\n      pop\n      pop\n      jump\t// out\n        /* \"#utility.yul\":287:594   */\n    tag_48:\n        /* \"#utility.yul\":355:356   */\n      0x00\n        /* \"#utility.yul\":365:478   */\n    tag_75:\n        /* \"#utility.yul\":379:385   */\n      dup4\n        /* \"#utility.yul\":376:377   */\n      dup2\n        /* \"#utility.yul\":373:386   */\n      lt\n        /* \"#utility.yul\":365:478   */\n      iszero\n      tag_77\n      jumpi\n        /* \"#utility.yul\":464:465   */\n      dup1\n        /* \"#utility.yul\":459:462   */\n      dup3\n        /* \"#utility.yul\":455:466   */\n      add\n        /* \"#utility.yul\":449:467   */\n      mload\n        /* \"#utility.yul\":445:446   */\n      dup2\n        /* \"#utility.yul\":440:443   */\n      dup5\n        /* \"#utility.yul\":436:447   */\n      add\n        /* \"#utility.yul\":429:468   */\n      mstore\n        /* \"#utility.yul\":401:403   */\n      0x20\n        /* \"#utility.yul\":398:399   */\n      dup2\n        /* \"#utility.yul\":394:404   */\n      add\n        /* \"#utility.yul\":389:404   */\n      swap1\n      pop\n        /* \"#utility.yul\":365:478   */\n      jump(tag_75)\n    tag_77:\n        /* \"#utility.yul\":496:502   */\n      dup4\n        /* \"#utility.yul\":493:494   */\n      dup2\n        /* \"#utility.yul\":490:503   */\n      gt\n        /* \"#utility.yul\":487:588   */\n      iszero\n      tag_78\n      jumpi\n        /* \"#utility.yul\":576:577   */\n      0x00\n        /* \"#utility.yul\":567:573   */\n      dup5\n        /* \"#utility.yul\":562:565   */\n      dup5\n        /* \"#utility.yul\":558:574   */\n      add\n        /* \"#utility.yul\":551:578   */\n      mstore\n        /* \"#utility.yul\":487:588   */\n    tag_78:\n        /* \"#utility.yul\":336:594   */\n      pop\n        /* \"#utility.yul\":287:594   */\n      pop\n      pop\n      pop\n      jump\t// out\n        /* \"#utility.yul\":600:702   */\n    tag_49:\n        /* \"#utility.yul\":641:647   */\n      0x00\n        /* \"#utility.yul\":692:694   */\n      0x1f\n        /* \"#utility.yul\":688:695   */\n      not\n        /* \"#utility.yul\":683:685   */\n      0x1f\n        /* \"#utility.yul\":676:681   */\n      dup4\n        /* \"#utility.yul\":672:686   */\n      add\n        /* \"#utility.yul\":668:696   */\n      and\n        /* \"#utility.yul\":658:696   */\n      swap1\n      pop\n        /* \"#utility.yul\":600:702   */\n      swap2\n      swap1\n      pop\n      jump\t// out\n        /* \"#utility.yul\":708:1072   */\n    tag_50:\n        /* \"#utility.yul\":796:799   */\n      0x00\n        /* \"#utility.yul\":824:863   */\n      tag_81\n        /* \"#utility.yul\":857:862   */\n      dup3\n        /* \"#utility.yul\":824:863   */\n      tag_46\n      jump\t// in\n    tag_81:\n        /* \"#utility.yul\":879:950   */\n      tag_82\n        /* \"#utility.yul\":943:949   */\n      dup2\n        /* \"#utility.yul\":938:941   */\n      dup6\n        /* \"#utility.yul\":879:950   */\n      tag_47\n      jump\t// in\n    tag_82:\n        /* \"#utility.yul\":872:950   */\n      swap4\n      pop\n        /* \"#utility.yul\":959:1011   */\n      tag_83\n        /* \"#utility.yul\":1004:1010   */\n      dup2\n        /* \"#utility.yul\":999:1002   */\n      dup6\n        /* \"#utility.yul\":992:996   */\n      0x20\n        /* \"#utility.yul\":985:990   */\n      dup7\n        /* \"#utility.yul\":981:997   */\n      add\n        /* \"#utility.yul\":959:1011   */\n      tag_48\n      jump\t// in\n    tag_83:\n        /* \"#utility.yul\":1036:1065   */\n      tag_84\n        /* \"#utility.yul\":1058:1064   */\n      dup2\n        /* \"#utility.yul\":1036:1065   */\n      tag_49\n      jump\t// in\n    tag_84:\n        /* \"#utility.yul\":1031:1034   */\n      dup5\n        /* \"#utility.yul\":1027:1066   */\n      add\n        /* \"#utility.yul\":1020:1066   */\n      swap2\n      pop\n        /* \"#utility.yul\":800:1072   */\n      pop\n        /* \"#utility.yul\":708:1072   */\n      swap3\n      swap2\n      pop\n      pop\n      jump\t// out\n        /* \"#utility.yul\":1078:1167   */\n    tag_51:\n        /* \"#utility.yul\":1114:1121   */\n      0x00\n        /* \"#utility.yul\":1154:1160   */\n      0xffff\n        /* \"#utility.yul\":1147:1152   */\n      dup3\n        /* \"#utility.yul\":1143:1161   */\n      and\n        /* \"#utility.yul\":1132:1161   */\n      swap1\n      pop\n        /* \"#utility.yul\":1078:1167   */\n      swap2\n      swap1\n      pop\n      jump\t// out\n        /* \"#utility.yul\":1173:1288   */\n    tag_52:\n        /* \"#utility.yul\":1258:1281   */\n      tag_87\n        /* \"#utility.yul\":1275:1280   */\n      dup2\n        /* \"#utility.yul\":1258:1281   */\n      tag_51\n      jump\t// in\n    tag_87:\n        /* \"#utility.yul\":1253:1256   */\n      dup3\n        /* \"#utility.yul\":1246:1282   */\n      mstore\n        /* \"#utility.yul\":1173:1288   */\n      pop\n      pop\n      jump\t// out\n        /* \"#utility.yul\":1294:1713   */\n    tag_9:\n        /* \"#utility.yul\":1433:1437   */\n      0x00\n        /* \"#utility.yul\":1471:1473   */\n      0x40\n        /* \"#utility.yul\":1460:1469   */\n      dup3\n        /* \"#utility.yul\":1456:1474   */\n      add\n        /* \"#utility.yul\":1448:1474   */\n      swap1\n      pop\n        /* \"#utility.yul\":1520:1529   */\n      dup2\n        /* \"#utility.yul\":1514:1518   */\n      dup2\n        /* \"#utility.yul\":1510:1530   */\n      sub\n        /* \"#utility.yul\":1506:1507   */\n      0x00\n        /* \"#utility.yul\":1495:1504   */\n      dup4\n        /* \"#utility.yul\":1491:1508   */\n      add\n        /* \"#utility.yul\":1484:1531   */\n      mstore\n        /* \"#utility.yul\":1548:1626   */\n      tag_89\n        /* \"#utility.yul\":1621:1625   */\n      dup2\n        /* \"#utility.yul\":1612:1618   */\n      dup6\n        /* \"#utility.yul\":1548:1626   */\n      tag_50\n      jump\t// in\n    tag_89:\n        /* \"#utility.yul\":1540:1626   */\n      swap1\n      pop\n        /* \"#utility.yul\":1636:1706   */\n      tag_90\n        /* \"#utility.yul\":1702:1704   */\n      0x20\n        /* \"#utility.yul\":1691:1700   */\n      dup4\n        /* \"#utility.yul\":1687:1705   */\n      add\n        /* \"#utility.yul\":1678:1684   */\n      dup5\n        /* \"#utility.yul\":1636:1706   */\n      tag_52\n      jump\t// in\n    tag_90:\n        /* \"#utility.yul\":1294:1713   */\n      swap4\n      swap3\n      pop\n      pop\n      pop\n      jump\t// out\n        /* \"#utility.yul\":1719:1794   */\n    tag_53:\n        /* \"#utility.yul\":1752:1758   */\n      0x00\n        /* \"#utility.yul\":1785:1787   */\n      0x40\n        /* \"#utility.yul\":1779:1788   */\n      mload\n        /* \"#utility.yul\":1769:1788   */\n      swap1\n      pop\n        /* \"#utility.yul\":1719:1794   */\n      swap1\n      jump\t// out\n        /* \"#utility.yul\":1800:1917   */\n    tag_54:\n        /* \"#utility.yul\":1909:1910   */\n      0x00\n        /* \"#utility.yul\":1906:1907   */\n      dup1\n        /* \"#utility.yul\":1899:1911   */\n      revert\n        /* \"#utility.yul\":1923:2040   */\n    tag_55:\n        /* \"#utility.yul\":2032:2033   */\n      0x00\n        /* \"#utility.yul\":2029:2030   */\n      dup1\n        /* \"#utility.yul\":2022:2034   */\n      revert\n        /* \"#utility.yul\":2046:2163   */\n    tag_56:\n        /* \"#utility.yul\":2155:2156   */\n      0x00\n        /* \"#utility.yul\":2152:2153   */\n      dup1\n        /* \"#utility.yul\":2145:2157   */\n      revert\n        /* \"#utility.yul\":2169:2286   */\n    tag_57:\n        /* \"#utility.yul\":2278:2279   */\n      0x00\n        /* \"#utility.yul\":2275:2276   */\n      dup1\n        /* \"#utility.yul\":2268:2280   */\n      revert\n        /* \"#utility.yul\":2292:2472   */\n    tag_58:\n        /* \"#utility.yul\":2340:2417   */\n      0x4e487b7100000000000000000000000000000000000000000000000000000000\n        /* \"#utility.yul\":2337:2338   */\n      0x00\n        /* \"#utility.yul\":2330:2418   */\n      mstore\n        /* \"#utility.yul\":2437:2441   */\n      0x41\n        /* \"#utility.yul\":2434:2435   */\n      0x04\n        /* \"#utility.yul\":2427:2442   */\n      mstore\n        /* \"#utility.yul\":2461:2465   */\n      0x24\n        /* \"#utility.yul\":2458:2459   */\n      0x00\n        /* \"#utility.yul\":2451:2466   */\n      revert\n        /* \"#utility.yul\":2478:2759   */\n    tag_59:\n        /* \"#utility.yul\":2561:2588   */\n      tag_98\n        /* \"#utility.yul\":2583:2587   */\n      dup3\n        /* \"#utility.yul\":2561:2588   */\n      tag_49\n      jump\t// in\n    tag_98:\n        /* \"#utility.yul\":2553:2559   */\n      dup2\n        /* \"#utility.yul\":2549:2589   */\n      add\n        /* \"#utility.yul\":2691:2697   */\n      dup2\n        /* \"#utility.yul\":2679:2689   */\n      dup2\n        /* \"#utility.yul\":2676:2698   */\n      lt\n        /* \"#utility.yul\":2655:2673   */\n      0xffffffffffffffff\n        /* \"#utility.yul\":2643:2653   */\n      dup3\n        /* \"#utility.yul\":2640:2674   */\n      gt\n        /* \"#utility.yul\":2637:2699   */\n      or\n        /* \"#utility.yul\":2634:2722   */\n      iszero\n      tag_99\n      jumpi\n        /* \"#utility.yul\":2702:2720   */\n      tag_100\n      tag_58\n      jump\t// in\n    tag_100:\n        /* \"#utility.yul\":2634:2722   */\n    tag_99:\n        /* \"#utility.yul\":2742:2752   */\n      dup1\n        /* \"#utility.yul\":2738:2740   */\n      0x40\n        /* \"#utility.yul\":2731:2753   */\n      mstore\n        /* \"#utility.yul\":2521:2759   */\n      pop\n        /* \"#utility.yul\":2478:2759   */\n      pop\n      pop\n      jump\t// out\n        /* \"#utility.yul\":2765:2894   */\n    tag_60:\n        /* \"#utility.yul\":2799:2805   */\n      0x00\n        /* \"#utility.yul\":2826:2846   */\n      tag_102\n      tag_53\n      jump\t// in\n    tag_102:\n        /* \"#utility.yul\":2816:2846   */\n      swap1\n      pop\n        /* \"#utility.yul\":2855:2888   */\n      tag_103\n        /* \"#utility.yul\":2883:2887   */\n      dup3\n        /* \"#utility.yul\":2875:2881   */\n      dup3\n        /* \"#utility.yul\":2855:2888   */\n      tag_59\n      jump\t// in\n    tag_103:\n        /* \"#utility.yul\":2765:2894   */\n      swap2\n      swap1\n      pop\n      jump\t// out\n        /* \"#utility.yul\":2900:3208   */\n    tag_61:\n        /* \"#utility.yul\":2962:2966   */\n      0x00\n        /* \"#utility.yul\":3052:3070   */\n      0xffffffffffffffff\n        /* \"#utility.yul\":3044:3050   */\n      dup3\n        /* \"#utility.yul\":3041:3071   */\n      gt\n        /* \"#utility.yul\":3038:3094   */\n      iszero\n      tag_105\n      jumpi\n        /* \"#utility.yul\":3074:3092   */\n      tag_106\n      tag_58\n      jump\t// in\n    tag_106:\n        /* \"#utility.yul\":3038:3094   */\n    tag_105:\n        /* \"#utility.yul\":3112:3141   */\n      tag_107\n        /* \"#utility.yul\":3134:3140   */\n      dup3\n        /* \"#utility.yul\":3112:3141   */\n      tag_49\n      jump\t// in\n    tag_107:\n        /* \"#utility.yul\":3104:3141   */\n      swap1\n      pop\n        /* \"#utility.yul\":3196:3200   */\n      0x20\n        /* \"#utility.yul\":3190:3194   */\n      dup2\n        /* \"#utility.yul\":3186:3201   */\n      add\n        /* \"#utility.yul\":3178:3201   */\n      swap1\n      pop\n        /* \"#utility.yul\":2900:3208   */\n      swap2\n      swap1\n      pop\n      jump\t// out\n        /* \"#utility.yul\":3214:3368   */\n    tag_62:\n        /* \"#utility.yul\":3298:3304   */\n      dup3\n        /* \"#utility.yul\":3293:3296   */\n      dup2\n        /* \"#utility.yul\":3288:3291   */\n      dup4\n        /* \"#utility.yul\":3275:3305   */\n      calldatacopy\n        /* \"#utility.yul\":3360:3361   */\n      0x00\n        /* \"#utility.yul\":3351:3357   */\n      dup4\n        /* \"#utility.yul\":3346:3349   */\n      dup4\n        /* \"#utility.yul\":3342:3358   */\n      add\n        /* \"#utility.yul\":3335:3362   */\n      mstore\n        /* \"#utility.yul\":3214:3368   */\n      pop\n      pop\n      pop\n      jump\t// out\n        /* \"#utility.yul\":3374:3786   */\n    tag_63:\n        /* \"#utility.yul\":3452:3457   */\n      0x00\n        /* \"#utility.yul\":3477:3543   */\n      tag_110\n        /* \"#utility.yul\":3493:3542   */\n      tag_111\n        /* \"#utility.yul\":3535:3541   */\n      dup5\n        /* \"#utility.yul\":3493:3542   */\n      tag_61\n      jump\t// in\n    tag_111:\n        /* \"#utility.yul\":3477:3543   */\n      tag_60\n      jump\t// in\n    tag_110:\n        /* \"#utility.yul\":3468:3543   */\n      swap1\n      pop\n        /* \"#utility.yul\":3566:3572   */\n      dup3\n        /* \"#utility.yul\":3559:3564   */\n      dup2\n        /* \"#utility.yul\":3552:3573   */\n      mstore\n        /* \"#utility.yul\":3604:3608   */\n      0x20\n        /* \"#utility.yul\":3597:3602   */\n      dup2\n        /* \"#utility.yul\":3593:3609   */\n      add\n        /* \"#utility.yul\":3642:3645   */\n      dup5\n        /* \"#utility.yul\":3633:3639   */\n      dup5\n        /* \"#utility.yul\":3628:3631   */\n      dup5\n        /* \"#utility.yul\":3624:3640   */\n      add\n        /* \"#utility.yul\":3621:3646   */\n      gt\n        /* \"#utility.yul\":3618:3730   */\n      iszero\n      tag_112\n      jumpi\n        /* \"#utility.yul\":3649:3728   */\n      tag_113\n      tag_57\n      jump\t// in\n    tag_113:\n        /* \"#utility.yul\":3618:3730   */\n    tag_112:\n        /* \"#utility.yul\":3739:3780   */\n      tag_114\n        /* \"#utility.yul\":3773:3779   */\n      dup5\n        /* \"#utility.yul\":3768:3771   */\n      dup3\n        /* \"#utility.yul\":3763:3766   */\n      dup6\n        /* \"#utility.yul\":3739:3780   */\n      tag_62\n      jump\t// in\n    tag_114:\n        /* \"#utility.yul\":3458:3786   */\n      pop\n        /* \"#utility.yul\":3374:3786   */\n      swap4\n      swap3\n      pop\n      pop\n      pop\n      jump\t// out\n        /* \"#utility.yul\":3806:4146   */\n    tag_64:\n        /* \"#utility.yul\":3862:3867   */\n      0x00\n        /* \"#utility.yul\":3911:3914   */\n      dup3\n        /* \"#utility.yul\":3904:3908   */\n      0x1f\n        /* \"#utility.yul\":3896:3902   */\n      dup4\n        /* \"#utility.yul\":3892:3909   */\n      add\n        /* \"#utility.yul\":3888:3915   */\n      slt\n        /* \"#utility.yul\":3878:4000   */\n      tag_116\n      jumpi\n        /* \"#utility.yul\":3919:3998   */\n      tag_117\n      tag_56\n      jump\t// in\n    tag_117:\n        /* \"#utility.yul\":3878:4000   */\n    tag_116:\n        /* \"#utility.yul\":4036:4042   */\n      dup2\n        /* \"#utility.yul\":4023:4043   */\n      calldataload\n        /* \"#utility.yul\":4061:4140   */\n      tag_118\n        /* \"#utility.yul\":4136:4139   */\n      dup5\n        /* \"#utility.yul\":4128:4134   */\n      dup3\n        /* \"#utility.yul\":4121:4125   */\n      0x20\n        /* \"#utility.yul\":4113:4119   */\n      dup7\n        /* \"#utility.yul\":4109:4126   */\n      add\n        /* \"#utility.yul\":4061:4140   */\n      tag_63\n      jump\t// in\n    tag_118:\n        /* \"#utility.yul\":4052:4140   */\n      swap2\n      pop\n        /* \"#utility.yul\":3868:4146   */\n      pop\n        /* \"#utility.yul\":3806:4146   */\n      swap3\n      swap2\n      pop\n      pop\n      jump\t// out\n        /* \"#utility.yul\":4152:4272   */\n    tag_65:\n        /* \"#utility.yul\":4224:4247   */\n      tag_120\n        /* \"#utility.yul\":4241:4246   */\n      dup2\n        /* \"#utility.yul\":4224:4247   */\n      tag_51\n      jump\t// in\n    tag_120:\n        /* \"#utility.yul\":4217:4222   */\n      dup2\n        /* \"#utility.yul\":4214:4248   */\n      eq\n        /* \"#utility.yul\":4204:4266   */\n      tag_121\n      jumpi\n        /* \"#utility.yul\":4262:4263   */\n      0x00\n        /* \"#utility.yul\":4259:4260   */\n      dup1\n        /* \"#utility.yul\":4252:4264   */\n      revert\n        /* \"#utility.yul\":4204:4266   */\n    tag_121:\n        /* \"#utility.yul\":4152:4272   */\n      pop\n      jump\t// out\n        /* \"#utility.yul\":4278:4415   */\n    tag_66:\n        /* \"#utility.yul\":4323:4328   */\n      0x00\n        /* \"#utility.yul\":4361:4367   */\n      dup2\n        /* \"#utility.yul\":4348:4368   */\n      calldataload\n        /* \"#utility.yul\":4339:4368   */\n      swap1\n      pop\n        /* \"#utility.yul\":4377:4409   */\n      tag_123\n        /* \"#utility.yul\":4403:4408   */\n      dup2\n        /* \"#utility.yul\":4377:4409   */\n      tag_65\n      jump\t// in\n    tag_123:\n        /* \"#utility.yul\":4278:4415   */\n      swap3\n      swap2\n      pop\n      pop\n      jump\t// out\n        /* \"#utility.yul\":4421:5073   */\n    tag_12:\n        /* \"#utility.yul\":4498:4504   */\n      0x00\n        /* \"#utility.yul\":4506:4512   */\n      dup1\n        /* \"#utility.yul\":4555:4557   */\n      0x40\n        /* \"#utility.yul\":4543:4552   */\n      dup4\n        /* \"#utility.yul\":4534:4541   */\n      dup6\n        /* \"#utility.yul\":4530:4553   */\n      sub\n        /* \"#utility.yul\":4526:4558   */\n      slt\n        /* \"#utility.yul\":4523:4642   */\n      iszero\n      tag_125\n      jumpi\n        /* \"#utility.yul\":4561:4640   */\n      tag_126\n      tag_54\n      jump\t// in\n    tag_126:\n        /* \"#utility.yul\":4523:4642   */\n    tag_125:\n        /* \"#utility.yul\":4709:4710   */\n      0x00\n        /* \"#utility.yul\":4698:4707   */\n      dup4\n        /* \"#utility.yul\":4694:4711   */\n      add\n        /* \"#utility.yul\":4681:4712   */\n      calldataload\n        /* \"#utility.yul\":4739:4757   */\n      0xffffffffffffffff\n        /* \"#utility.yul\":4731:4737   */\n      dup2\n        /* \"#utility.yul\":4728:4758   */\n      gt\n        /* \"#utility.yul\":4725:4842   */\n      iszero\n      tag_127\n      jumpi\n        /* \"#utility.yul\":4761:4840   */\n      tag_128\n      tag_55\n      jump\t// in\n    tag_128:\n        /* \"#utility.yul\":4725:4842   */\n    tag_127:\n        /* \"#utility.yul\":4866:4929   */\n      tag_129\n        /* \"#utility.yul\":4921:4928   */\n      dup6\n        /* \"#utility.yul\":4912:4918   */\n      dup3\n        /* \"#utility.yul\":4901:4910   */\n      dup7\n        /* \"#utility.yul\":4897:4919   */\n      add\n        /* \"#utility.yul\":4866:4929   */\n      tag_64\n      jump\t// in\n    tag_129:\n        /* \"#utility.yul\":4856:4929   */\n      swap3\n      pop\n        /* \"#utility.yul\":4652:4939   */\n      pop\n        /* \"#utility.yul\":4978:4980   */\n      0x20\n        /* \"#utility.yul\":5004:5056   */\n      tag_130\n        /* \"#utility.yul\":5048:5055   */\n      dup6\n        /* \"#utility.yul\":5039:5045   */\n      dup3\n        /* \"#utility.yul\":5028:5037   */\n      dup7\n        /* \"#utility.yul\":5024:5046   */\n      add\n        /* \"#utility.yul\":5004:5056   */\n      tag_66\n      jump\t// in\n    tag_130:\n        /* \"#utility.yul\":4994:5056   */\n      swap2\n      pop\n        /* \"#utility.yul\":4949:5066   */\n      pop\n        /* \"#utility.yul\":4421:5073   */\n      swap3\n      pop\n      swap3\n      swap1\n      pop\n      jump\t// out\n        /* \"#utility.yul\":5079:5156   */\n    tag_67:\n        /* \"#utility.yul\":5116:5123   */\n      0x00\n        /* \"#utility.yul\":5145:5150   */\n      dup2\n        /* \"#utility.yul\":5134:5150   */\n      swap1\n      pop\n        /* \"#utility.yul\":5079:5156   */\n      swap2\n      swap1\n      pop\n      jump\t// out\n        /* \"#utility.yul\":5162:5284   */\n    tag_68:\n        /* \"#utility.yul\":5235:5259   */\n      tag_133\n        /* \"#utility.yul\":5253:5258   */\n      dup2\n        /* \"#utility.yul\":5235:5259   */\n      tag_67\n      jump\t// in\n    tag_133:\n        /* \"#utility.yul\":5228:5233   */\n      dup2\n        /* \"#utility.yul\":5225:5260   */\n      eq\n        /* \"#utility.yul\":5215:5278   */\n      tag_134\n      jumpi\n        /* \"#utility.yul\":5274:5275   */\n      0x00\n        /* \"#utility.yul\":5271:5272   */\n      dup1\n        /* \"#utility.yul\":5264:5276   */\n      revert\n        /* \"#utility.yul\":5215:5278   */\n    tag_134:\n        /* \"#utility.yul\":5162:5284   */\n      pop\n      jump\t// out\n        /* \"#utility.yul\":5290:5429   */\n    tag_69:\n        /* \"#utility.yul\":5336:5341   */\n      0x00\n        /* \"#utility.yul\":5374:5380   */\n      dup2\n        /* \"#utility.yul\":5361:5381   */\n      calldataload\n        /* \"#utility.yul\":5352:5381   */\n      swap1\n      pop\n        /* \"#utility.yul\":5390:5423   */\n      tag_136\n        /* \"#utility.yul\":5417:5422   */\n      dup2\n        /* \"#utility.yul\":5390:5423   */\n      tag_68\n      jump\t// in\n    tag_136:\n        /* \"#utility.yul\":5290:5429   */\n      swap3\n      swap2\n      pop\n      pop\n      jump\t// out\n        /* \"#utility.yul\":5435:5764   */\n    tag_16:\n        /* \"#utility.yul\":5494:5500   */\n      0x00\n        /* \"#utility.yul\":5543:5545   */\n      0x20\n        /* \"#utility.yul\":5531:5540   */\n      dup3\n        /* \"#utility.yul\":5522:5529   */\n      dup5\n        /* \"#utility.yul\":5518:5541   */\n      sub\n        /* \"#utility.yul\":5514:5546   */\n      slt\n        /* \"#utility.yul\":5511:5630   */\n      iszero\n      tag_138\n      jumpi\n        /* \"#utility.yul\":5549:5628   */\n      tag_139\n      tag_54\n      jump\t// in\n    tag_139:\n        /* \"#utility.yul\":5511:5630   */\n    tag_138:\n        /* \"#utility.yul\":5669:5670   */\n      0x00\n        /* \"#utility.yul\":5694:5747   */\n      tag_140\n        /* \"#utility.yul\":5739:5746   */\n      dup5\n        /* \"#utility.yul\":5730:5736   */\n      dup3\n        /* \"#utility.yul\":5719:5728   */\n      dup6\n        /* \"#utility.yul\":5715:5737   */\n      add\n        /* \"#utility.yul\":5694:5747   */\n      tag_69\n      jump\t// in\n    tag_140:\n        /* \"#utility.yul\":5684:5747   */\n      swap2\n      pop\n        /* \"#utility.yul\":5640:5757   */\n      pop\n        /* \"#utility.yul\":5435:5764   */\n      swap3\n      swap2\n      pop\n      pop\n      jump\t// out\n        /* \"#utility.yul\":5770:5950   */\n    tag_70:\n        /* \"#utility.yul\":5818:5895   */\n      0x4e487b7100000000000000000000000000000000000000000000000000000000\n        /* \"#utility.yul\":5815:5816   */\n      0x00\n        /* \"#utility.yul\":5808:5896   */\n      mstore\n        /* \"#utility.yul\":5915:5919   */\n      0x22\n        /* \"#utility.yul\":5912:5913   */\n      0x04\n        /* \"#utility.yul\":5905:5920   */\n      mstore\n        /* \"#utility.yul\":5939:5943   */\n      0x24\n        /* \"#utility.yul\":5936:5937   */\n      0x00\n        /* \"#utility.yul\":5929:5944   */\n      revert\n        /* \"#utility.yul\":5956:6276   */\n    tag_20:\n        /* \"#utility.yul\":6000:6006   */\n      0x00\n        /* \"#utility.yul\":6037:6038   */\n      0x02\n        /* \"#utility.yul\":6031:6035   */\n      dup3\n        /* \"#utility.yul\":6027:6039   */\n      div\n        /* \"#utility.yul\":6017:6039   */\n      swap1\n      pop\n        /* \"#utility.yul\":6084:6085   */\n      0x01\n        /* \"#utility.yul\":6078:6082   */\n      dup3\n        /* \"#utility.yul\":6074:6086   */\n      and\n        /* \"#utility.yul\":6105:6123   */\n      dup1\n        /* \"#utility.yul\":6095:6176   */\n      tag_143\n      jumpi\n        /* \"#utility.yul\":6161:6165   */\n      0x7f\n        /* \"#utility.yul\":6153:6159   */\n      dup3\n        /* \"#utility.yul\":6149:6166   */\n      and\n        /* \"#utility.yul\":6139:6166   */\n      swap2\n      pop\n        /* \"#utility.yul\":6095:6176   */\n    tag_143:\n        /* \"#utility.yul\":6223:6225   */\n      0x20\n        /* \"#utility.yul\":6215:6221   */\n      dup3\n        /* \"#utility.yul\":6212:6226   */\n      lt\n        /* \"#utility.yul\":6192:6210   */\n      dup2\n        /* \"#utility.yul\":6189:6227   */\n      sub\n        /* \"#utility.yul\":6186:6270   */\n      tag_144\n      jumpi\n        /* \"#utility.yul\":6242:6260   */\n      tag_145\n      tag_70\n      jump\t// in\n    tag_145:\n        /* \"#utility.yul\":6186:6270   */\n    tag_144:\n        /* \"#utility.yul\":6007:6276   */\n      pop\n        /* \"#utility.yul\":5956:6276   */\n      swap2\n      swap1\n      pop\n      jump\t// out\n\n    auxdata: 0xa264697066735822122069d818081db6cb33e6d4861c90eaf67a1434117c6c6a53df4d39a0df0fb672fa64736f6c634300080d0033\n}\n",
				"bytecode": {
					"linkReferences": {},
					"object": "608060405234801561001057600080fd5b50610701806100206000396000f3fe608060405234801561001057600080fd5b50600436106100415760003560e01c80639cdde81314610046578063aba3b91b14610065578063f7746e3614610081575b600080fd5b61004e6100b2565b60405161005c929190610407565b60405180910390f35b61007f600480360381019061007a91906105ac565b61015a565b005b61009b6004803603810190610096919061063e565b6101e4565b6040516100a9929190610407565b60405180910390f35b60018060000180546100c39061069a565b80601f01602080910402602001604051908101604052809291908181526020018280546100ef9061069a565b801561013c5780601f106101115761010080835404028352916020019161013c565b820191906000526020600020905b81548152906001019060200180831161011f57829003601f168201915b5050505050908060010160009054906101000a900461ffff16905082565b600060405180604001604052808481526020018361ffff16815250908060018154018082558091505060019003906000526020600020906002020160009091909190915060008201518160000190805190602001906101ba9291906102ae565b5060208201518160010160006101000a81548161ffff021916908361ffff16021790555050505050565b600081815481106101f457600080fd5b90600052602060002090600202016000915090508060000180546102179061069a565b80601f01602080910402602001604051908101604052809291908181526020018280546102439061069a565b80156102905780601f1061026557610100808354040283529160200191610290565b820191906000526020600020905b81548152906001019060200180831161027357829003601f168201915b5050505050908060010160009054906101000a900461ffff16905082565b8280546102ba9061069a565b90600052602060002090601f0160209004810192826102dc5760008555610323565b82601f106102f557805160ff1916838001178555610323565b82800160010185558215610323579182015b82811115610322578251825591602001919060010190610307565b5b5090506103309190610334565b5090565b5b8082111561034d576000816000905550600101610335565b5090565b600081519050919050565b600082825260208201905092915050565b60005b8381101561038b578082015181840152602081019050610370565b8381111561039a576000848401525b50505050565b6000601f19601f8301169050919050565b60006103bc82610351565b6103c6818561035c565b93506103d681856020860161036d565b6103df816103a0565b840191505092915050565b600061ffff82169050919050565b610401816103ea565b82525050565b6000604082019050818103600083015261042181856103b1565b905061043060208301846103f8565b9392505050565b6000604051905090565b600080fd5b600080fd5b600080fd5b600080fd5b7f4e487b7100000000000000000000000000000000000000000000000000000000600052604160045260246000fd5b61048d826103a0565b810181811067ffffffffffffffff821117156104ac576104ab610455565b5b80604052505050565b60006104bf610437565b90506104cb8282610484565b919050565b600067ffffffffffffffff8211156104eb576104ea610455565b5b6104f4826103a0565b9050602081019050919050565b82818337600083830152505050565b600061052361051e846104d0565b6104b5565b90508281526020810184848401111561053f5761053e610450565b5b61054a848285610501565b509392505050565b600082601f8301126105675761056661044b565b5b8135610577848260208601610510565b91505092915050565b610589816103ea565b811461059457600080fd5b50565b6000813590506105a681610580565b92915050565b600080604083850312156105c3576105c2610441565b5b600083013567ffffffffffffffff8111156105e1576105e0610446565b5b6105ed85828601610552565b92505060206105fe85828601610597565b9150509250929050565b6000819050919050565b61061b81610608565b811461062657600080fd5b50565b60008135905061063881610612565b92915050565b60006020828403121561065457610653610441565b5b600061066284828501610629565b91505092915050565b7f4e487b7100000000000000000000000000000000000000000000000000000000600052602260045260246000fd5b600060028204905060018216806106b257607f821691505b6020821081036106c5576106c461066b565b5b5091905056fea264697066735822122069d818081db6cb33e6d4861c90eaf67a1434117c6c6a53df4d39a0df0fb672fa64736f6c634300080d0033",
					"opcodes": "PUSH1 0x80 PUSH1 0x40 MSTORE CALLVALUE DUP1 ISZERO PUSH2 0x10 JUMPI PUSH1 0x0 DUP1 REVERT JUMPDEST POP PUSH2 0x701 DUP1 PUSH2 0x20 PUSH1 0x0 CODECOPY PUSH1 0x0 RETURN INVALID PUSH1 0x80 PUSH1 0x40 MSTORE CALLVALUE DUP1 ISZERO PUSH2 0x10 JUMPI PUSH1 0x0 DUP1 REVERT JUMPDEST POP PUSH1 0x4 CALLDATASIZE LT PUSH2 0x41 JUMPI PUSH1 0x0 CALLDATALOAD PUSH1 0xE0 SHR DUP1 PUSH4 0x9CDDE813 EQ PUSH2 0x46 JUMPI DUP1 PUSH4 0xABA3B91B EQ PUSH2 0x65 JUMPI DUP1 PUSH4 0xF7746E36 EQ PUSH2 0x81 JUMPI JUMPDEST PUSH1 0x0 DUP1 REVERT JUMPDEST PUSH2 0x4E PUSH2 0xB2 JUMP JUMPDEST PUSH1 0x40 MLOAD PUSH2 0x5C SWAP3 SWAP2 SWAP1 PUSH2 0x407 JUMP JUMPDEST PUSH1 0x40 MLOAD DUP1 SWAP2 SUB SWAP1 RETURN JUMPDEST PUSH2 0x7F PUSH1 0x4 DUP1 CALLDATASIZE SUB DUP2 ADD SWAP1 PUSH2 0x7A SWAP2 SWAP1 PUSH2 0x5AC JUMP JUMPDEST PUSH2 0x15A JUMP JUMPDEST STOP JUMPDEST PUSH2 0x9B PUSH1 0x4 DUP1 CALLDATASIZE SUB DUP2 ADD SWAP1 PUSH2 0x96 SWAP2 SWAP1 PUSH2 0x63E JUMP JUMPDEST PUSH2 0x1E4 JUMP JUMPDEST PUSH1 0x40 MLOAD PUSH2 0xA9 SWAP3 SWAP2 SWAP1 PUSH2 0x407 JUMP JUMPDEST PUSH1 0x40 MLOAD DUP1 SWAP2 SUB SWAP1 RETURN JUMPDEST PUSH1 0x1 DUP1 PUSH1 0x0 ADD DUP1 SLOAD PUSH2 0xC3 SWAP1 PUSH2 0x69A JUMP JUMPDEST DUP1 PUSH1 0x1F ADD PUSH1 0x20 DUP1 SWAP2 DIV MUL PUSH1 0x20 ADD PUSH1 0x40 MLOAD SWAP1 DUP2 ADD PUSH1 0x40 MSTORE DUP1 SWAP3 SWAP2 SWAP1 DUP2 DUP2 MSTORE PUSH1 0x20 ADD DUP3 DUP1 SLOAD PUSH2 0xEF SWAP1 PUSH2 0x69A JUMP JUMPDEST DUP1 ISZERO PUSH2 0x13C JUMPI DUP1 PUSH1 0x1F LT PUSH2 0x111 JUMPI PUSH2 0x100 DUP1 DUP4 SLOAD DIV MUL DUP4 MSTORE SWAP2 PUSH1 0x20 ADD SWAP2 PUSH2 0x13C JUMP JUMPDEST DUP3 ADD SWAP2 SWAP1 PUSH1 0x0 MSTORE PUSH1 0x20 PUSH1 0x0 KECCAK256 SWAP1 JUMPDEST DUP2 SLOAD DUP2 MSTORE SWAP1 PUSH1 0x1 ADD SWAP1 PUSH1 0x20 ADD DUP1 DUP4 GT PUSH2 0x11F JUMPI DUP3 SWAP1 SUB PUSH1 0x1F AND DUP3 ADD SWAP2 JUMPDEST POP POP POP POP POP SWAP1 DUP1 PUSH1 0x1 ADD PUSH1 0x0 SWAP1 SLOAD SWAP1 PUSH2 0x100 EXP SWAP1 DIV PUSH2 0xFFFF AND SWAP1 POP DUP3 JUMP JUMPDEST PUSH1 0x0 PUSH1 0x40 MLOAD DUP1 PUSH1 0x40 ADD PUSH1 0x40 MSTORE DUP1 DUP5 DUP2 MSTORE PUSH1 0x20 ADD DUP4 PUSH2 0xFFFF AND DUP2 MSTORE POP SWAP1 DUP1 PUSH1 0x1 DUP2 SLOAD ADD DUP1 DUP3 SSTORE DUP1 SWAP2 POP POP PUSH1 0x1 SWAP1 SUB SWAP1 PUSH1 0x0 MSTORE PUSH1 0x20 PUSH1 0x0 KECCAK256 SWAP1 PUSH1 0x2 MUL ADD PUSH1 0x0 SWAP1 SWAP2 SWAP1 SWAP2 SWAP1 SWAP2 POP PUSH1 0x0 DUP3 ADD MLOAD DUP2 PUSH1 0x0 ADD SWAP1 DUP1 MLOAD SWAP1 PUSH1 0x20 ADD SWAP1 PUSH2 0x1BA SWAP3 SWAP2 SWAP1 PUSH2 0x2AE JUMP JUMPDEST POP PUSH1 0x20 DUP3 ADD MLOAD DUP2 PUSH1 0x1 ADD PUSH1 0x0 PUSH2 0x100 EXP DUP2 SLOAD DUP2 PUSH2 0xFFFF MUL NOT AND SWAP1 DUP4 PUSH2 0xFFFF AND MUL OR SWAP1 SSTORE POP POP POP POP POP JUMP JUMPDEST PUSH1 0x0 DUP2 DUP2 SLOAD DUP2 LT PUSH2 0x1F4 JUMPI PUSH1 0x0 DUP1 REVERT JUMPDEST SWAP1 PUSH1 0x0 MSTORE PUSH1 0x20 PUSH1 0x0 KECCAK256 SWAP1 PUSH1 0x2 MUL ADD PUSH1 0x0 SWAP2 POP SWAP1 POP DUP1 PUSH1 0x0 ADD DUP1 SLOAD PUSH2 0x217 SWAP1 PUSH2 0x69A JUMP JUMPDEST DUP1 PUSH1 0x1F ADD PUSH1 0x20 DUP1 SWAP2 DIV MUL PUSH1 0x20 ADD PUSH1 0x40 MLOAD SWAP1 DUP2 ADD PUSH1 0x40 MSTORE DUP1 SWAP3 SWAP2 SWAP1 DUP2 DUP2 MSTORE PUSH1 0x20 ADD DUP3 DUP1 SLOAD PUSH2 0x243 SWAP1 PUSH2 0x69A JUMP JUMPDEST DUP1 ISZERO PUSH2 0x290 JUMPI DUP1 PUSH1 0x1F LT PUSH2 0x265 JUMPI PUSH2 0x100 DUP1 DUP4 SLOAD DIV MUL DUP4 MSTORE SWAP2 PUSH1 0x20 ADD SWAP2 PUSH2 0x290 JUMP JUMPDEST DUP3 ADD SWAP2 SWAP1 PUSH1 0x0 MSTORE PUSH1 0x20 PUSH1 0x0 KECCAK256 SWAP1 JUMPDEST DUP2 SLOAD DUP2 MSTORE SWAP1 PUSH1 0x1 ADD SWAP1 PUSH1 0x20 ADD DUP1 DUP4 GT PUSH2 0x273 JUMPI DUP3 SWAP1 SUB PUSH1 0x1F AND DUP3 ADD SWAP2 JUMPDEST POP POP POP POP POP SWAP1 DUP1 PUSH1 0x1 ADD PUSH1 0x0 SWAP1 SLOAD SWAP1 PUSH2 0x100 EXP SWAP1 DIV PUSH2 0xFFFF AND SWAP1 POP DUP3 JUMP JUMPDEST DUP3 DUP1 SLOAD PUSH2 0x2BA SWAP1 PUSH2 0x69A JUMP JUMPDEST SWAP1 PUSH1 0x0 MSTORE PUSH1 0x20 PUSH1 0x0 KECCAK256 SWAP1 PUSH1 0x1F ADD PUSH1 0x20 SWAP1 DIV DUP2 ADD SWAP3 DUP3 PUSH2 0x2DC JUMPI PUSH1 0x0 DUP6 SSTORE PUSH2 0x323 JUMP JUMPDEST DUP3 PUSH1 0x1F LT PUSH2 0x2F5 JUMPI DUP1 MLOAD PUSH1 0xFF NOT AND DUP4 DUP1 ADD OR DUP6 SSTORE PUSH2 0x323 JUMP JUMPDEST DUP3 DUP1 ADD PUSH1 0x1 ADD DUP6 SSTORE DUP3 ISZERO PUSH2 0x323 JUMPI SWAP2 DUP3 ADD JUMPDEST DUP3 DUP2 GT ISZERO PUSH2 0x322 JUMPI DUP3 MLOAD DUP3 SSTORE SWAP2 PUSH1 0x20 ADD SWAP2 SWAP1 PUSH1 0x1 ADD SWAP1 PUSH2 0x307 JUMP JUMPDEST JUMPDEST POP SWAP1 POP PUSH2 0x330 SWAP2 SWAP1 PUSH2 0x334 JUMP JUMPDEST POP SWAP1 JUMP JUMPDEST JUMPDEST DUP1 DUP3 GT ISZERO PUSH2 0x34D JUMPI PUSH1 0x0 DUP2 PUSH1 0x0 SWAP1 SSTORE POP PUSH1 0x1 ADD PUSH2 0x335 JUMP JUMPDEST POP SWAP1 JUMP JUMPDEST PUSH1 0x0 DUP2 MLOAD SWAP1 POP SWAP2 SWAP1 POP JUMP JUMPDEST PUSH1 0x0 DUP3 DUP3 MSTORE PUSH1 0x20 DUP3 ADD SWAP1 POP SWAP3 SWAP2 POP POP JUMP JUMPDEST PUSH1 0x0 JUMPDEST DUP4 DUP2 LT ISZERO PUSH2 0x38B JUMPI DUP1 DUP3 ADD MLOAD DUP2 DUP5 ADD MSTORE PUSH1 0x20 DUP2 ADD SWAP1 POP PUSH2 0x370 JUMP JUMPDEST DUP4 DUP2 GT ISZERO PUSH2 0x39A JUMPI PUSH1 0x0 DUP5 DUP5 ADD MSTORE JUMPDEST POP POP POP POP JUMP JUMPDEST PUSH1 0x0 PUSH1 0x1F NOT PUSH1 0x1F DUP4 ADD AND SWAP1 POP SWAP2 SWAP1 POP JUMP JUMPDEST PUSH1 0x0 PUSH2 0x3BC DUP3 PUSH2 0x351 JUMP JUMPDEST PUSH2 0x3C6 DUP2 DUP6 PUSH2 0x35C JUMP JUMPDEST SWAP4 POP PUSH2 0x3D6 DUP2 DUP6 PUSH1 0x20 DUP7 ADD PUSH2 0x36D JUMP JUMPDEST PUSH2 0x3DF DUP2 PUSH2 0x3A0 JUMP JUMPDEST DUP5 ADD SWAP2 POP POP SWAP3 SWAP2 POP POP JUMP JUMPDEST PUSH1 0x0 PUSH2 0xFFFF DUP3 AND SWAP1 POP SWAP2 SWAP1 POP JUMP JUMPDEST PUSH2 0x401 DUP2 PUSH2 0x3EA JUMP JUMPDEST DUP3 MSTORE POP POP JUMP JUMPDEST PUSH1 0x0 PUSH1 0x40 DUP3 ADD SWAP1 POP DUP2 DUP2 SUB PUSH1 0x0 DUP4 ADD MSTORE PUSH2 0x421 DUP2 DUP6 PUSH2 0x3B1 JUMP JUMPDEST SWAP1 POP PUSH2 0x430 PUSH1 0x20 DUP4 ADD DUP5 PUSH2 0x3F8 JUMP JUMPDEST SWAP4 SWAP3 POP POP POP JUMP JUMPDEST PUSH1 0x0 PUSH1 0x40 MLOAD SWAP1 POP SWAP1 JUMP JUMPDEST PUSH1 0x0 DUP1 REVERT JUMPDEST PUSH1 0x0 DUP1 REVERT JUMPDEST PUSH1 0x0 DUP1 REVERT JUMPDEST PUSH1 0x0 DUP1 REVERT JUMPDEST PUSH32 0x4E487B7100000000000000000000000000000000000000000000000000000000 PUSH1 0x0 MSTORE PUSH1 0x41 PUSH1 0x4 MSTORE PUSH1 0x24 PUSH1 0x0 REVERT JUMPDEST PUSH2 0x48D DUP3 PUSH2 0x3A0 JUMP JUMPDEST DUP2 ADD DUP2 DUP2 LT PUSH8 0xFFFFFFFFFFFFFFFF DUP3 GT OR ISZERO PUSH2 0x4AC JUMPI PUSH2 0x4AB PUSH2 0x455 JUMP JUMPDEST JUMPDEST DUP1 PUSH1 0x40 MSTORE POP POP POP JUMP JUMPDEST PUSH1 0x0 PUSH2 0x4BF PUSH2 0x437 JUMP JUMPDEST SWAP1 POP PUSH2 0x4CB DUP3 DUP3 PUSH2 0x484 JUMP JUMPDEST SWAP2 SWAP1 POP JUMP JUMPDEST PUSH1 0x0 PUSH8 0xFFFFFFFFFFFFFFFF DUP3 GT ISZERO PUSH2 0x4EB JUMPI PUSH2 0x4EA PUSH2 0x455 JUMP JUMPDEST JUMPDEST PUSH2 0x4F4 DUP3 PUSH2 0x3A0 JUMP JUMPDEST SWAP1 POP PUSH1 0x20 DUP2 ADD SWAP1 POP SWAP2 SWAP1 POP JUMP JUMPDEST DUP3 DUP2 DUP4 CALLDATACOPY PUSH1 0x0 DUP4 DUP4 ADD MSTORE POP POP POP JUMP JUMPDEST PUSH1 0x0 PUSH2 0x523 PUSH2 0x51E DUP5 PUSH2 0x4D0 JUMP JUMPDEST PUSH2 0x4B5 JUMP JUMPDEST SWAP1 POP DUP3 DUP2 MSTORE PUSH1 0x20 DUP2 ADD DUP5 DUP5 DUP5 ADD GT ISZERO PUSH2 0x53F JUMPI PUSH2 0x53E PUSH2 0x450 JUMP JUMPDEST JUMPDEST PUSH2 0x54A DUP5 DUP3 DUP6 PUSH2 0x501 JUMP JUMPDEST POP SWAP4 SWAP3 POP POP POP JUMP JUMPDEST PUSH1 0x0 DUP3 PUSH1 0x1F DUP4 ADD SLT PUSH2 0x567 JUMPI PUSH2 0x566 PUSH2 0x44B JUMP JUMPDEST JUMPDEST DUP2 CALLDATALOAD PUSH2 0x577 DUP5 DUP3 PUSH1 0x20 DUP7 ADD PUSH2 0x510 JUMP JUMPDEST SWAP2 POP POP SWAP3 SWAP2 POP POP JUMP JUMPDEST PUSH2 0x589 DUP2 PUSH2 0x3EA JUMP JUMPDEST DUP2 EQ PUSH2 0x594 JUMPI PUSH1 0x0 DUP1 REVERT JUMPDEST POP JUMP JUMPDEST PUSH1 0x0 DUP2 CALLDATALOAD SWAP1 POP PUSH2 0x5A6 DUP2 PUSH2 0x580 JUMP JUMPDEST SWAP3 SWAP2 POP POP JUMP JUMPDEST PUSH1 0x0 DUP1 PUSH1 0x40 DUP4 DUP6 SUB SLT ISZERO PUSH2 0x5C3 JUMPI PUSH2 0x5C2 PUSH2 0x441 JUMP JUMPDEST JUMPDEST PUSH1 0x0 DUP4 ADD CALLDATALOAD PUSH8 0xFFFFFFFFFFFFFFFF DUP2 GT ISZERO PUSH2 0x5E1 JUMPI PUSH2 0x5E0 PUSH2 0x446 JUMP JUMPDEST JUMPDEST PUSH2 0x5ED DUP6 DUP3 DUP7 ADD PUSH2 0x552 JUMP JUMPDEST SWAP3 POP POP PUSH1 0x20 PUSH2 0x5FE DUP6 DUP3 DUP7 ADD PUSH2 0x597 JUMP JUMPDEST SWAP2 POP POP SWAP3 POP SWAP3 SWAP1 POP JUMP JUMPDEST PUSH1 0x0 DUP2 SWAP1 POP SWAP2 SWAP1 POP JUMP JUMPDEST PUSH2 0x61B DUP2 PUSH2 0x608 JUMP JUMPDEST DUP2 EQ PUSH2 0x626 JUMPI PUSH1 0x0 DUP1 REVERT JUMPDEST POP JUMP JUMPDEST PUSH1 0x0 DUP2 CALLDATALOAD SWAP1 POP PUSH2 0x638 DUP2 PUSH2 0x612 JUMP JUMPDEST SWAP3 SWAP2 POP POP JUMP JUMPDEST PUSH1 0x0 PUSH1 0x20 DUP3 DUP5 SUB SLT ISZERO PUSH2 0x654 JUMPI PUSH2 0x653 PUSH2 0x441 JUMP JUMPDEST JUMPDEST PUSH1 0x0 PUSH2 0x662 DUP5 DUP3 DUP6 ADD PUSH2 0x629 JUMP JUMPDEST SWAP2 POP POP SWAP3 SWAP2 POP POP JUMP JUMPDEST PUSH32 0x4E487B7100000000000000000000000000000000000000000000000000000000 PUSH1 0x0 MSTORE PUSH1 0x22 PUSH1 0x4 MSTORE PUSH1 0x24 PUSH1 0x0 REVERT JUMPDEST PUSH1 0x0 PUSH1 0x2 DUP3 DIV SWAP1 POP PUSH1 0x1 DUP3 AND DUP1 PUSH2 0x6B2 JUMPI PUSH1 0x7F DUP3 AND SWAP2 POP JUMPDEST PUSH1 0x20 DUP3 LT DUP2 SUB PUSH2 0x6C5 JUMPI PUSH2 0x6C4 PUSH2 0x66B JUMP JUMPDEST JUMPDEST POP SWAP2 SWAP1 POP JUMP INVALID LOG2 PUSH5 0x6970667358 0x22 SLT KECCAK256 PUSH10 0xD818081DB6CB33E6D486 SHR SWAP1 0xEA 0xF6 PUSH27 0x1434117C6C6A53DF4D39A0DF0FB672FA64736F6C634300080D0033 "
				},
				"gasEstimates": {
					"creation": {
						"codeDepositCost": "358600",
						"executionCost": "399",
						"totalCost": "358999"
					},
					"external": {
						"addCar(string,uint16)": "infinite",
						"cars(uint256)": "infinite",
						"myCar()": "infinite"
					}
				},
				"methodIdentifiers": {
					"addCar(string,uint16)": "aba3b91b",
					"cars(uint256)": "f7746e36",
					"myCar()": "9cdde813"
				}
			},
			"storageLayout": {
				"storage": [
					{
						"astId": 10,
						"contract": "contracts/Mycontract.sol:MyContract",
						"label": "cars",
						"offset": 0,
						"slot": "0",
						"type": "t_array(t_struct(Car)6_storage)dyn_storage"
					},
					{
						"astId": 13,
						"contract": "contracts/Mycontract.sol:MyContract",
						"label": "myCar",
						"offset": 0,
						"slot": "1",
						"type": "t_struct(Car)6_storage"
					}
				],
				"types": {
					"t_array(t_struct(Car)6_storage)dyn_storage": {
						"base": "t_struct(Car)6_storage",
						"encoding": "dynamic_array",
						"label": "struct MyContract.Car[]",
						"numberOfBytes": "32"
					},
					"t_string_storage": {
						"encoding": "bytes",
						"label": "string",
						"numberOfBytes": "32"
					},
					"t_struct(Car)6_storage": {
						"encoding": "inplace",
						"label": "struct MyContract.Car",
						"members": [
							{
								"astId": 3,
								"contract": "contracts/Mycontract.sol:MyContract",
								"label": "name",
								"offset": 0,
								"slot": "0",
								"type": "t_string_storage"
							},
							{
								"astId": 5,
								"contract": "contracts/Mycontract.sol:MyContract",
								"label": "price",
								"offset": 0,
								"slot": "1",
								"type": "t_uint16"
							}
						],
						"numberOfBytes": "64"
					},
					"t_uint16": {
						"encoding": "inplace",
						"label": "uint16",
						"numberOfBytes": "2"
					}
				}
			},
			"userdoc": {
				"kind": "user",
				"methods": {},
				"version": 1
			}
		}
	}
}