{
	"contracts/Mycontract.sol": {
		"MyContract": {
			"abi": [
				{
					"inputs": [
						{
							"internalType": "address payable",
							"name": "_wallet",
							"type": "address"
						}
					],
					"stateMutability": "nonpayable",
					"type": "constructor"
				},
				{
					"stateMutability": "payable",
					"type": "fallback"
				},
				{
					"inputs": [],
					"name": "buyToken",
					"outputs": [],
					"stateMutability": "payable",
					"type": "function"
				},
				{
					"inputs": [],
					"name": "saySomething",
					"outputs": [
						{
							"internalType": "string",
							"name": "",
							"type": "string"
						}
					],
					"stateMutability": "nonpayable",
					"type": "function"
				},
				{
					"inputs": [],
					"name": "wallet",
					"outputs": [
						{
							"internalType": "address payable",
							"name": "",
							"type": "address"
						}
					],
					"stateMutability": "view",
					"type": "function"
				}
			],
			"devdoc": {
				"kind": "dev",
				"methods": {},
				"version": 1
			},
			"evm": {
				"assembly": "    /* \"contracts/Mycontract.sol\":25:661  contract MyContract {... */\n  mstore(0x40, 0x80)\n    /* \"contracts/Mycontract.sol\":127:197  constructor(address payable _wallet) {... */\n  callvalue\n  dup1\n  iszero\n  tag_1\n  jumpi\n  0x00\n  dup1\n  revert\ntag_1:\n  pop\n  mload(0x40)\n  sub(codesize, bytecodeSize)\n  dup1\n  bytecodeSize\n  dup4\n  codecopy\n  dup2\n  dup2\n  add\n  0x40\n  mstore\n  dup2\n  add\n  swap1\n  tag_2\n  swap2\n  swap1\n  tag_3\n  jump\t// in\ntag_2:\n    /* \"contracts/Mycontract.sol\":183:190  _wallet */\n  dup1\n    /* \"contracts/Mycontract.sol\":174:180  wallet */\n  0x01\n  0x00\n    /* \"contracts/Mycontract.sol\":174:190  wallet = _wallet */\n  0x0100\n  exp\n  dup2\n  sload\n  dup2\n  0xffffffffffffffffffffffffffffffffffffffff\n  mul\n  not\n  and\n  swap1\n  dup4\n  0xffffffffffffffffffffffffffffffffffffffff\n  and\n  mul\n  or\n  swap1\n  sstore\n  pop\n    /* \"contracts/Mycontract.sol\":127:197  constructor(address payable _wallet) {... */\n  pop\n    /* \"contracts/Mycontract.sol\":25:661  contract MyContract {... */\n  jump(tag_6)\n    /* \"#utility.yul\":7:166   */\ntag_8:\n    /* \"#utility.yul\":72:77   */\n  0x00\n    /* \"#utility.yul\":103:109   */\n  dup2\n    /* \"#utility.yul\":97:110   */\n  mload\n    /* \"#utility.yul\":88:110   */\n  swap1\n  pop\n    /* \"#utility.yul\":119:160   */\n  tag_10\n    /* \"#utility.yul\":154:159   */\n  dup2\n    /* \"#utility.yul\":119:160   */\n  tag_11\n  jump\t// in\ntag_10:\n    /* \"#utility.yul\":7:166   */\n  swap3\n  swap2\n  pop\n  pop\n  jump\t// out\n    /* \"#utility.yul\":172:539   */\ntag_3:\n    /* \"#utility.yul\":250:256   */\n  0x00\n    /* \"#utility.yul\":299:301   */\n  0x20\n    /* \"#utility.yul\":287:296   */\n  dup3\n    /* \"#utility.yul\":278:285   */\n  dup5\n    /* \"#utility.yul\":274:297   */\n  sub\n    /* \"#utility.yul\":270:302   */\n  slt\n    /* \"#utility.yul\":267:386   */\n  iszero\n  tag_13\n  jumpi\n    /* \"#utility.yul\":305:384   */\n  tag_14\n  tag_15\n  jump\t// in\ntag_14:\n    /* \"#utility.yul\":267:386   */\ntag_13:\n    /* \"#utility.yul\":425:426   */\n  0x00\n    /* \"#utility.yul\":450:522   */\n  tag_16\n    /* \"#utility.yul\":514:521   */\n  dup5\n    /* \"#utility.yul\":505:511   */\n  dup3\n    /* \"#utility.yul\":494:503   */\n  dup6\n    /* \"#utility.yul\":490:512   */\n  add\n    /* \"#utility.yul\":450:522   */\n  tag_8\n  jump\t// in\ntag_16:\n    /* \"#utility.yul\":440:522   */\n  swap2\n  pop\n    /* \"#utility.yul\":396:532   */\n  pop\n    /* \"#utility.yul\":172:539   */\n  swap3\n  swap2\n  pop\n  pop\n  jump\t// out\n    /* \"#utility.yul\":626:730   */\ntag_19:\n    /* \"#utility.yul\":671:678   */\n  0x00\n    /* \"#utility.yul\":700:724   */\n  tag_21\n    /* \"#utility.yul\":718:723   */\n  dup3\n    /* \"#utility.yul\":700:724   */\n  tag_22\n  jump\t// in\ntag_21:\n    /* \"#utility.yul\":689:724   */\n  swap1\n  pop\n    /* \"#utility.yul\":626:730   */\n  swap2\n  swap1\n  pop\n  jump\t// out\n    /* \"#utility.yul\":736:862   */\ntag_22:\n    /* \"#utility.yul\":773:780   */\n  0x00\n    /* \"#utility.yul\":813:855   */\n  0xffffffffffffffffffffffffffffffffffffffff\n    /* \"#utility.yul\":806:811   */\n  dup3\n    /* \"#utility.yul\":802:856   */\n  and\n    /* \"#utility.yul\":791:856   */\n  swap1\n  pop\n    /* \"#utility.yul\":736:862   */\n  swap2\n  swap1\n  pop\n  jump\t// out\n    /* \"#utility.yul\":991:1108   */\ntag_15:\n    /* \"#utility.yul\":1100:1101   */\n  0x00\n    /* \"#utility.yul\":1097:1098   */\n  dup1\n    /* \"#utility.yul\":1090:1102   */\n  revert\n    /* \"#utility.yul\":1114:1252   */\ntag_11:\n    /* \"#utility.yul\":1195:1227   */\n  tag_28\n    /* \"#utility.yul\":1221:1226   */\n  dup2\n    /* \"#utility.yul\":1195:1227   */\n  tag_19\n  jump\t// in\ntag_28:\n    /* \"#utility.yul\":1188:1193   */\n  dup2\n    /* \"#utility.yul\":1185:1228   */\n  eq\n    /* \"#utility.yul\":1175:1246   */\n  tag_29\n  jumpi\n    /* \"#utility.yul\":1242:1243   */\n  0x00\n    /* \"#utility.yul\":1239:1240   */\n  dup1\n    /* \"#utility.yul\":1232:1244   */\n  revert\n    /* \"#utility.yul\":1175:1246   */\ntag_29:\n    /* \"#utility.yul\":1114:1252   */\n  pop\n  jump\t// out\n    /* \"contracts/Mycontract.sol\":25:661  contract MyContract {... */\ntag_6:\n  dataSize(sub_0)\n  dup1\n  dataOffset(sub_0)\n  0x00\n  codecopy\n  0x00\n  return\nstop\n\nsub_0: assembly {\n        /* \"contracts/Mycontract.sol\":25:661  contract MyContract {... */\n      mstore(0x40, 0x80)\n      jumpi(tag_1, lt(calldatasize, 0x04))\n      shr(0xe0, calldataload(0x00))\n      dup1\n      0x521eb273\n      eq\n      tag_3\n      jumpi\n      dup1\n      0xa4821719\n      eq\n      tag_4\n      jumpi\n      dup1\n      0xfbd61553\n      eq\n      tag_5\n      jumpi\n      jump(tag_2)\n    tag_1:\n    tag_2:\n        /* \"contracts/Mycontract.sol\":327:337  buyToken() */\n      tag_8\n        /* \"contracts/Mycontract.sol\":327:335  buyToken */\n      tag_9\n        /* \"contracts/Mycontract.sol\":327:337  buyToken() */\n      jump\t// in\n    tag_8:\n        /* \"contracts/Mycontract.sol\":25:661  contract MyContract {... */\n      stop\n        /* \"contracts/Mycontract.sol\":91:120  address payable public wallet */\n    tag_3:\n      callvalue\n      dup1\n      iszero\n      tag_10\n      jumpi\n      0x00\n      dup1\n      revert\n    tag_10:\n      pop\n      tag_11\n      tag_12\n      jump\t// in\n    tag_11:\n      mload(0x40)\n      tag_13\n      swap2\n      swap1\n      tag_14\n      jump\t// in\n    tag_13:\n      mload(0x40)\n      dup1\n      swap2\n      sub\n      swap1\n      return\n        /* \"contracts/Mycontract.sol\":447:658  function buyToken() public payable {... */\n    tag_4:\n      tag_15\n      tag_9\n      jump\t// in\n    tag_15:\n      stop\n        /* \"contracts/Mycontract.sol\":350:441  function saySomething() public returns(string memory) {... */\n    tag_5:\n      callvalue\n      dup1\n      iszero\n      tag_16\n      jumpi\n      0x00\n      dup1\n      revert\n    tag_16:\n      pop\n      tag_17\n      tag_18\n      jump\t// in\n    tag_17:\n      mload(0x40)\n      tag_19\n      swap2\n      swap1\n      tag_20\n      jump\t// in\n    tag_19:\n      mload(0x40)\n      dup1\n      swap2\n      sub\n      swap1\n      return\n        /* \"contracts/Mycontract.sol\":447:658  function buyToken() public payable {... */\n    tag_9:\n        /* \"contracts/Mycontract.sol\":625:631  wallet */\n      0x01\n      0x00\n      swap1\n      sload\n      swap1\n      0x0100\n      exp\n      swap1\n      div\n      0xffffffffffffffffffffffffffffffffffffffff\n      and\n        /* \"contracts/Mycontract.sol\":625:640  wallet.transfer */\n      0xffffffffffffffffffffffffffffffffffffffff\n      and\n        /* \"contracts/Mycontract.sol\":625:651  wallet.transfer(msg.value) */\n      0x08fc\n        /* \"contracts/Mycontract.sol\":641:650  msg.value */\n      callvalue\n        /* \"contracts/Mycontract.sol\":625:651  wallet.transfer(msg.value) */\n      swap1\n      dup2\n      iszero\n      mul\n      swap1\n      mload(0x40)\n      0x00\n      mload(0x40)\n      dup1\n      dup4\n      sub\n      dup2\n      dup6\n      dup9\n      dup9\n      call\n      swap4\n      pop\n      pop\n      pop\n      pop\n      iszero\n      dup1\n      iszero\n      tag_23\n      jumpi\n      returndatasize\n      0x00\n      dup1\n      returndatacopy\n      revert(0x00, returndatasize)\n    tag_23:\n      pop\n        /* \"contracts/Mycontract.sol\":447:658  function buyToken() public payable {... */\n      jump\t// out\n        /* \"contracts/Mycontract.sol\":91:120  address payable public wallet */\n    tag_12:\n      0x01\n      0x00\n      swap1\n      sload\n      swap1\n      0x0100\n      exp\n      swap1\n      div\n      0xffffffffffffffffffffffffffffffffffffffff\n      and\n      dup2\n      jump\t// out\n        /* \"contracts/Mycontract.sol\":350:441  function saySomething() public returns(string memory) {... */\n    tag_18:\n        /* \"contracts/Mycontract.sol\":389:402  string memory */\n      0x60\n        /* \"contracts/Mycontract.sol\":414:434  return \"I said STH!\" */\n      mload(0x40)\n      dup1\n      0x40\n      add\n      0x40\n      mstore\n      dup1\n      0x0b\n      dup2\n      mstore\n      0x20\n      add\n      0x4920736169642053544821000000000000000000000000000000000000000000\n      dup2\n      mstore\n      pop\n      swap1\n      pop\n        /* \"contracts/Mycontract.sol\":350:441  function saySomething() public returns(string memory) {... */\n      swap1\n      jump\t// out\n        /* \"#utility.yul\":7:149   */\n    tag_26:\n        /* \"#utility.yul\":110:142   */\n      tag_28\n        /* \"#utility.yul\":136:141   */\n      dup2\n        /* \"#utility.yul\":110:142   */\n      tag_29\n      jump\t// in\n    tag_28:\n        /* \"#utility.yul\":105:108   */\n      dup3\n        /* \"#utility.yul\":98:143   */\n      mstore\n        /* \"#utility.yul\":7:149   */\n      pop\n      pop\n      jump\t// out\n        /* \"#utility.yul\":155:519   */\n    tag_30:\n        /* \"#utility.yul\":243:246   */\n      0x00\n        /* \"#utility.yul\":271:310   */\n      tag_32\n        /* \"#utility.yul\":304:309   */\n      dup3\n        /* \"#utility.yul\":271:310   */\n      tag_33\n      jump\t// in\n    tag_32:\n        /* \"#utility.yul\":326:397   */\n      tag_34\n        /* \"#utility.yul\":390:396   */\n      dup2\n        /* \"#utility.yul\":385:388   */\n      dup6\n        /* \"#utility.yul\":326:397   */\n      tag_35\n      jump\t// in\n    tag_34:\n        /* \"#utility.yul\":319:397   */\n      swap4\n      pop\n        /* \"#utility.yul\":406:458   */\n      tag_36\n        /* \"#utility.yul\":451:457   */\n      dup2\n        /* \"#utility.yul\":446:449   */\n      dup6\n        /* \"#utility.yul\":439:443   */\n      0x20\n        /* \"#utility.yul\":432:437   */\n      dup7\n        /* \"#utility.yul\":428:444   */\n      add\n        /* \"#utility.yul\":406:458   */\n      tag_37\n      jump\t// in\n    tag_36:\n        /* \"#utility.yul\":483:512   */\n      tag_38\n        /* \"#utility.yul\":505:511   */\n      dup2\n        /* \"#utility.yul\":483:512   */\n      tag_39\n      jump\t// in\n    tag_38:\n        /* \"#utility.yul\":478:481   */\n      dup5\n        /* \"#utility.yul\":474:513   */\n      add\n        /* \"#utility.yul\":467:513   */\n      swap2\n      pop\n        /* \"#utility.yul\":247:519   */\n      pop\n        /* \"#utility.yul\":155:519   */\n      swap3\n      swap2\n      pop\n      pop\n      jump\t// out\n        /* \"#utility.yul\":525:779   */\n    tag_14:\n        /* \"#utility.yul\":634:638   */\n      0x00\n        /* \"#utility.yul\":672:674   */\n      0x20\n        /* \"#utility.yul\":661:670   */\n      dup3\n        /* \"#utility.yul\":657:675   */\n      add\n        /* \"#utility.yul\":649:675   */\n      swap1\n      pop\n        /* \"#utility.yul\":685:772   */\n      tag_41\n        /* \"#utility.yul\":769:770   */\n      0x00\n        /* \"#utility.yul\":758:767   */\n      dup4\n        /* \"#utility.yul\":754:771   */\n      add\n        /* \"#utility.yul\":745:751   */\n      dup5\n        /* \"#utility.yul\":685:772   */\n      tag_26\n      jump\t// in\n    tag_41:\n        /* \"#utility.yul\":525:779   */\n      swap3\n      swap2\n      pop\n      pop\n      jump\t// out\n        /* \"#utility.yul\":785:1098   */\n    tag_20:\n        /* \"#utility.yul\":898:902   */\n      0x00\n        /* \"#utility.yul\":936:938   */\n      0x20\n        /* \"#utility.yul\":925:934   */\n      dup3\n        /* \"#utility.yul\":921:939   */\n      add\n        /* \"#utility.yul\":913:939   */\n      swap1\n      pop\n        /* \"#utility.yul\":985:994   */\n      dup2\n        /* \"#utility.yul\":979:983   */\n      dup2\n        /* \"#utility.yul\":975:995   */\n      sub\n        /* \"#utility.yul\":971:972   */\n      0x00\n        /* \"#utility.yul\":960:969   */\n      dup4\n        /* \"#utility.yul\":956:973   */\n      add\n        /* \"#utility.yul\":949:996   */\n      mstore\n        /* \"#utility.yul\":1013:1091   */\n      tag_43\n        /* \"#utility.yul\":1086:1090   */\n      dup2\n        /* \"#utility.yul\":1077:1083   */\n      dup5\n        /* \"#utility.yul\":1013:1091   */\n      tag_30\n      jump\t// in\n    tag_43:\n        /* \"#utility.yul\":1005:1091   */\n      swap1\n      pop\n        /* \"#utility.yul\":785:1098   */\n      swap3\n      swap2\n      pop\n      pop\n      jump\t// out\n        /* \"#utility.yul\":1104:1203   */\n    tag_33:\n        /* \"#utility.yul\":1156:1162   */\n      0x00\n        /* \"#utility.yul\":1190:1195   */\n      dup2\n        /* \"#utility.yul\":1184:1196   */\n      mload\n        /* \"#utility.yul\":1174:1196   */\n      swap1\n      pop\n        /* \"#utility.yul\":1104:1203   */\n      swap2\n      swap1\n      pop\n      jump\t// out\n        /* \"#utility.yul\":1209:1378   */\n    tag_35:\n        /* \"#utility.yul\":1293:1304   */\n      0x00\n        /* \"#utility.yul\":1327:1333   */\n      dup3\n        /* \"#utility.yul\":1322:1325   */\n      dup3\n        /* \"#utility.yul\":1315:1334   */\n      mstore\n        /* \"#utility.yul\":1367:1371   */\n      0x20\n        /* \"#utility.yul\":1362:1365   */\n      dup3\n        /* \"#utility.yul\":1358:1372   */\n      add\n        /* \"#utility.yul\":1343:1372   */\n      swap1\n      pop\n        /* \"#utility.yul\":1209:1378   */\n      swap3\n      swap2\n      pop\n      pop\n      jump\t// out\n        /* \"#utility.yul\":1384:1488   */\n    tag_29:\n        /* \"#utility.yul\":1429:1436   */\n      0x00\n        /* \"#utility.yul\":1458:1482   */\n      tag_47\n        /* \"#utility.yul\":1476:1481   */\n      dup3\n        /* \"#utility.yul\":1458:1482   */\n      tag_48\n      jump\t// in\n    tag_47:\n        /* \"#utility.yul\":1447:1482   */\n      swap1\n      pop\n        /* \"#utility.yul\":1384:1488   */\n      swap2\n      swap1\n      pop\n      jump\t// out\n        /* \"#utility.yul\":1494:1620   */\n    tag_48:\n        /* \"#utility.yul\":1531:1538   */\n      0x00\n        /* \"#utility.yul\":1571:1613   */\n      0xffffffffffffffffffffffffffffffffffffffff\n        /* \"#utility.yul\":1564:1569   */\n      dup3\n        /* \"#utility.yul\":1560:1614   */\n      and\n        /* \"#utility.yul\":1549:1614   */\n      swap1\n      pop\n        /* \"#utility.yul\":1494:1620   */\n      swap2\n      swap1\n      pop\n      jump\t// out\n        /* \"#utility.yul\":1626:1933   */\n    tag_37:\n        /* \"#utility.yul\":1694:1695   */\n      0x00\n        /* \"#utility.yul\":1704:1817   */\n    tag_51:\n        /* \"#utility.yul\":1718:1724   */\n      dup4\n        /* \"#utility.yul\":1715:1716   */\n      dup2\n        /* \"#utility.yul\":1712:1725   */\n      lt\n        /* \"#utility.yul\":1704:1817   */\n      iszero\n      tag_53\n      jumpi\n        /* \"#utility.yul\":1803:1804   */\n      dup1\n        /* \"#utility.yul\":1798:1801   */\n      dup3\n        /* \"#utility.yul\":1794:1805   */\n      add\n        /* \"#utility.yul\":1788:1806   */\n      mload\n        /* \"#utility.yul\":1784:1785   */\n      dup2\n        /* \"#utility.yul\":1779:1782   */\n      dup5\n        /* \"#utility.yul\":1775:1786   */\n      add\n        /* \"#utility.yul\":1768:1807   */\n      mstore\n        /* \"#utility.yul\":1740:1742   */\n      0x20\n        /* \"#utility.yul\":1737:1738   */\n      dup2\n        /* \"#utility.yul\":1733:1743   */\n      add\n        /* \"#utility.yul\":1728:1743   */\n      swap1\n      pop\n        /* \"#utility.yul\":1704:1817   */\n      jump(tag_51)\n    tag_53:\n        /* \"#utility.yul\":1835:1841   */\n      dup4\n        /* \"#utility.yul\":1832:1833   */\n      dup2\n        /* \"#utility.yul\":1829:1842   */\n      gt\n        /* \"#utility.yul\":1826:1927   */\n      iszero\n      tag_54\n      jumpi\n        /* \"#utility.yul\":1915:1916   */\n      0x00\n        /* \"#utility.yul\":1906:1912   */\n      dup5\n        /* \"#utility.yul\":1901:1904   */\n      dup5\n        /* \"#utility.yul\":1897:1913   */\n      add\n        /* \"#utility.yul\":1890:1917   */\n      mstore\n        /* \"#utility.yul\":1826:1927   */\n    tag_54:\n        /* \"#utility.yul\":1675:1933   */\n      pop\n        /* \"#utility.yul\":1626:1933   */\n      pop\n      pop\n      pop\n      jump\t// out\n        /* \"#utility.yul\":1939:2041   */\n    tag_39:\n        /* \"#utility.yul\":1980:1986   */\n      0x00\n        /* \"#utility.yul\":2031:2033   */\n      0x1f\n        /* \"#utility.yul\":2027:2034   */\n      not\n        /* \"#utility.yul\":2022:2024   */\n      0x1f\n        /* \"#utility.yul\":2015:2020   */\n      dup4\n        /* \"#utility.yul\":2011:2025   */\n      add\n        /* \"#utility.yul\":2007:2035   */\n      and\n        /* \"#utility.yul\":1997:2035   */\n      swap1\n      pop\n        /* \"#utility.yul\":1939:2041   */\n      swap2\n      swap1\n      pop\n      jump\t// out\n\n    auxdata: 0xa26469706673582212201d2a2694cf544974cd384ac21f23e7aa0d44ce9b1fdbc3b0d72e28aa27231de364736f6c63430008070033\n}\n",
				"bytecode": {
					"linkReferences": {},
					"object": "608060405234801561001057600080fd5b506040516103d63803806103d68339818101604052810190610032919061008e565b80600160006101000a81548173ffffffffffffffffffffffffffffffffffffffff021916908373ffffffffffffffffffffffffffffffffffffffff16021790555050610109565b600081519050610088816100f2565b92915050565b6000602082840312156100a4576100a36100ed565b5b60006100b284828501610079565b91505092915050565b60006100c6826100cd565b9050919050565b600073ffffffffffffffffffffffffffffffffffffffff82169050919050565b600080fd5b6100fb816100bb565b811461010657600080fd5b50565b6102be806101186000396000f3fe6080604052600436106100385760003560e01c8063521eb27314610043578063a48217191461006e578063fbd615531461007857610039565b5b6100416100a3565b005b34801561004f57600080fd5b5061005861010e565b60405161006591906101b9565b60405180910390f35b6100766100a3565b005b34801561008457600080fd5b5061008d610134565b60405161009a91906101d4565b60405180910390f35b600160009054906101000a900473ffffffffffffffffffffffffffffffffffffffff1673ffffffffffffffffffffffffffffffffffffffff166108fc349081150290604051600060405180830381858888f1935050505015801561010b573d6000803e3d6000fd5b50565b600160009054906101000a900473ffffffffffffffffffffffffffffffffffffffff1681565b60606040518060400160405280600b81526020017f4920736169642053544821000000000000000000000000000000000000000000815250905090565b61017a81610212565b82525050565b600061018b826101f6565b6101958185610201565b93506101a5818560208601610244565b6101ae81610277565b840191505092915050565b60006020820190506101ce6000830184610171565b92915050565b600060208201905081810360008301526101ee8184610180565b905092915050565b600081519050919050565b600082825260208201905092915050565b600061021d82610224565b9050919050565b600073ffffffffffffffffffffffffffffffffffffffff82169050919050565b60005b83811015610262578082015181840152602081019050610247565b83811115610271576000848401525b50505050565b6000601f19601f830116905091905056fea26469706673582212201d2a2694cf544974cd384ac21f23e7aa0d44ce9b1fdbc3b0d72e28aa27231de364736f6c63430008070033",
					"opcodes": "PUSH1 0x80 PUSH1 0x40 MSTORE CALLVALUE DUP1 ISZERO PUSH2 0x10 JUMPI PUSH1 0x0 DUP1 REVERT JUMPDEST POP PUSH1 0x40 MLOAD PUSH2 0x3D6 CODESIZE SUB DUP1 PUSH2 0x3D6 DUP4 CODECOPY DUP2 DUP2 ADD PUSH1 0x40 MSTORE DUP2 ADD SWAP1 PUSH2 0x32 SWAP2 SWAP1 PUSH2 0x8E JUMP JUMPDEST DUP1 PUSH1 0x1 PUSH1 0x0 PUSH2 0x100 EXP DUP2 SLOAD DUP2 PUSH20 0xFFFFFFFFFFFFFFFFFFFFFFFFFFFFFFFFFFFFFFFF MUL NOT AND SWAP1 DUP4 PUSH20 0xFFFFFFFFFFFFFFFFFFFFFFFFFFFFFFFFFFFFFFFF AND MUL OR SWAP1 SSTORE POP POP PUSH2 0x109 JUMP JUMPDEST PUSH1 0x0 DUP2 MLOAD SWAP1 POP PUSH2 0x88 DUP2 PUSH2 0xF2 JUMP JUMPDEST SWAP3 SWAP2 POP POP JUMP JUMPDEST PUSH1 0x0 PUSH1 0x20 DUP3 DUP5 SUB SLT ISZERO PUSH2 0xA4 JUMPI PUSH2 0xA3 PUSH2 0xED JUMP JUMPDEST JUMPDEST PUSH1 0x0 PUSH2 0xB2 DUP5 DUP3 DUP6 ADD PUSH2 0x79 JUMP JUMPDEST SWAP2 POP POP SWAP3 SWAP2 POP POP JUMP JUMPDEST PUSH1 0x0 PUSH2 0xC6 DUP3 PUSH2 0xCD JUMP JUMPDEST SWAP1 POP SWAP2 SWAP1 POP JUMP JUMPDEST PUSH1 0x0 PUSH20 0xFFFFFFFFFFFFFFFFFFFFFFFFFFFFFFFFFFFFFFFF DUP3 AND SWAP1 POP SWAP2 SWAP1 POP JUMP JUMPDEST PUSH1 0x0 DUP1 REVERT JUMPDEST PUSH2 0xFB DUP2 PUSH2 0xBB JUMP JUMPDEST DUP2 EQ PUSH2 0x106 JUMPI PUSH1 0x0 DUP1 REVERT JUMPDEST POP JUMP JUMPDEST PUSH2 0x2BE DUP1 PUSH2 0x118 PUSH1 0x0 CODECOPY PUSH1 0x0 RETURN INVALID PUSH1 0x80 PUSH1 0x40 MSTORE PUSH1 0x4 CALLDATASIZE LT PUSH2 0x38 JUMPI PUSH1 0x0 CALLDATALOAD PUSH1 0xE0 SHR DUP1 PUSH4 0x521EB273 EQ PUSH2 0x43 JUMPI DUP1 PUSH4 0xA4821719 EQ PUSH2 0x6E JUMPI DUP1 PUSH4 0xFBD61553 EQ PUSH2 0x78 JUMPI PUSH2 0x39 JUMP JUMPDEST JUMPDEST PUSH2 0x41 PUSH2 0xA3 JUMP JUMPDEST STOP JUMPDEST CALLVALUE DUP1 ISZERO PUSH2 0x4F JUMPI PUSH1 0x0 DUP1 REVERT JUMPDEST POP PUSH2 0x58 PUSH2 0x10E JUMP JUMPDEST PUSH1 0x40 MLOAD PUSH2 0x65 SWAP2 SWAP1 PUSH2 0x1B9 JUMP JUMPDEST PUSH1 0x40 MLOAD DUP1 SWAP2 SUB SWAP1 RETURN JUMPDEST PUSH2 0x76 PUSH2 0xA3 JUMP JUMPDEST STOP JUMPDEST CALLVALUE DUP1 ISZERO PUSH2 0x84 JUMPI PUSH1 0x0 DUP1 REVERT JUMPDEST POP PUSH2 0x8D PUSH2 0x134 JUMP JUMPDEST PUSH1 0x40 MLOAD PUSH2 0x9A SWAP2 SWAP1 PUSH2 0x1D4 JUMP JUMPDEST PUSH1 0x40 MLOAD DUP1 SWAP2 SUB SWAP1 RETURN JUMPDEST PUSH1 0x1 PUSH1 0x0 SWAP1 SLOAD SWAP1 PUSH2 0x100 EXP SWAP1 DIV PUSH20 0xFFFFFFFFFFFFFFFFFFFFFFFFFFFFFFFFFFFFFFFF AND PUSH20 0xFFFFFFFFFFFFFFFFFFFFFFFFFFFFFFFFFFFFFFFF AND PUSH2 0x8FC CALLVALUE SWAP1 DUP2 ISZERO MUL SWAP1 PUSH1 0x40 MLOAD PUSH1 0x0 PUSH1 0x40 MLOAD DUP1 DUP4 SUB DUP2 DUP6 DUP9 DUP9 CALL SWAP4 POP POP POP POP ISZERO DUP1 ISZERO PUSH2 0x10B JUMPI RETURNDATASIZE PUSH1 0x0 DUP1 RETURNDATACOPY RETURNDATASIZE PUSH1 0x0 REVERT JUMPDEST POP JUMP JUMPDEST PUSH1 0x1 PUSH1 0x0 SWAP1 SLOAD SWAP1 PUSH2 0x100 EXP SWAP1 DIV PUSH20 0xFFFFFFFFFFFFFFFFFFFFFFFFFFFFFFFFFFFFFFFF AND DUP2 JUMP JUMPDEST PUSH1 0x60 PUSH1 0x40 MLOAD DUP1 PUSH1 0x40 ADD PUSH1 0x40 MSTORE DUP1 PUSH1 0xB DUP2 MSTORE PUSH1 0x20 ADD PUSH32 0x4920736169642053544821000000000000000000000000000000000000000000 DUP2 MSTORE POP SWAP1 POP SWAP1 JUMP JUMPDEST PUSH2 0x17A DUP2 PUSH2 0x212 JUMP JUMPDEST DUP3 MSTORE POP POP JUMP JUMPDEST PUSH1 0x0 PUSH2 0x18B DUP3 PUSH2 0x1F6 JUMP JUMPDEST PUSH2 0x195 DUP2 DUP6 PUSH2 0x201 JUMP JUMPDEST SWAP4 POP PUSH2 0x1A5 DUP2 DUP6 PUSH1 0x20 DUP7 ADD PUSH2 0x244 JUMP JUMPDEST PUSH2 0x1AE DUP2 PUSH2 0x277 JUMP JUMPDEST DUP5 ADD SWAP2 POP POP SWAP3 SWAP2 POP POP JUMP JUMPDEST PUSH1 0x0 PUSH1 0x20 DUP3 ADD SWAP1 POP PUSH2 0x1CE PUSH1 0x0 DUP4 ADD DUP5 PUSH2 0x171 JUMP JUMPDEST SWAP3 SWAP2 POP POP JUMP JUMPDEST PUSH1 0x0 PUSH1 0x20 DUP3 ADD SWAP1 POP DUP2 DUP2 SUB PUSH1 0x0 DUP4 ADD MSTORE PUSH2 0x1EE DUP2 DUP5 PUSH2 0x180 JUMP JUMPDEST SWAP1 POP SWAP3 SWAP2 POP POP JUMP JUMPDEST PUSH1 0x0 DUP2 MLOAD SWAP1 POP SWAP2 SWAP1 POP JUMP JUMPDEST PUSH1 0x0 DUP3 DUP3 MSTORE PUSH1 0x20 DUP3 ADD SWAP1 POP SWAP3 SWAP2 POP POP JUMP JUMPDEST PUSH1 0x0 PUSH2 0x21D DUP3 PUSH2 0x224 JUMP JUMPDEST SWAP1 POP SWAP2 SWAP1 POP JUMP JUMPDEST PUSH1 0x0 PUSH20 0xFFFFFFFFFFFFFFFFFFFFFFFFFFFFFFFFFFFFFFFF DUP3 AND SWAP1 POP SWAP2 SWAP1 POP JUMP JUMPDEST PUSH1 0x0 JUMPDEST DUP4 DUP2 LT ISZERO PUSH2 0x262 JUMPI DUP1 DUP3 ADD MLOAD DUP2 DUP5 ADD MSTORE PUSH1 0x20 DUP2 ADD SWAP1 POP PUSH2 0x247 JUMP JUMPDEST DUP4 DUP2 GT ISZERO PUSH2 0x271 JUMPI PUSH1 0x0 DUP5 DUP5 ADD MSTORE JUMPDEST POP POP POP POP JUMP JUMPDEST PUSH1 0x0 PUSH1 0x1F NOT PUSH1 0x1F DUP4 ADD AND SWAP1 POP SWAP2 SWAP1 POP JUMP INVALID LOG2 PUSH5 0x6970667358 0x22 SLT KECCAK256 SAR 0x2A 0x26 SWAP5 0xCF SLOAD 0x49 PUSH21 0xCD384AC21F23E7AA0D44CE9B1FDBC3B0D72E28AA27 0x23 SAR 0xE3 PUSH5 0x736F6C6343 STOP ADDMOD SMOD STOP CALLER "
				},
				"gasEstimates": {
					"creation": {
						"codeDepositCost": "140400",
						"executionCost": "infinite",
						"totalCost": "infinite"
					},
					"external": {
						"": "infinite",
						"buyToken()": "infinite",
						"saySomething()": "infinite",
						"wallet()": "2492"
					}
				},
				"methodIdentifiers": {
					"buyToken()": "a4821719",
					"saySomething()": "fbd61553",
					"wallet()": "521eb273"
				}
			},
			"storageLayout": {
				"storage": [
					{
						"astId": 5,
						"contract": "contracts/Mycontract.sol:MyContract",
						"label": "balances",
						"offset": 0,
						"slot": "0",
						"type": "t_mapping(t_address,t_uint256)"
					},
					{
						"astId": 7,
						"contract": "contracts/Mycontract.sol:MyContract",
						"label": "wallet",
						"offset": 0,
						"slot": "1",
						"type": "t_address_payable"
					}
				],
				"types": {
					"t_address": {
						"encoding": "inplace",
						"label": "address",
						"numberOfBytes": "20"
					},
					"t_address_payable": {
						"encoding": "inplace",
						"label": "address payable",
						"numberOfBytes": "20"
					},
					"t_mapping(t_address,t_uint256)": {
						"encoding": "mapping",
						"key": "t_address",
						"label": "mapping(address => uint256)",
						"numberOfBytes": "32",
						"value": "t_uint256"
					},
					"t_uint256": {
						"encoding": "inplace",
						"label": "uint256",
						"numberOfBytes": "32"
					}
				}
			},
			"userdoc": {
				"kind": "user",
				"methods": {},
				"version": 1
			}
		}
	}
}