{
	"contracts/Mycontract.sol": {
		"MyContract": {
			"abi": [
				{
					"inputs": [
						{
							"internalType": "string",
							"name": "_name",
							"type": "string"
						},
						{
							"internalType": "uint128",
							"name": "_price",
							"type": "uint128"
						}
					],
					"name": "addCar",
					"outputs": [],
					"stateMutability": "nonpayable",
					"type": "function"
				},
				{
					"inputs": [
						{
							"internalType": "uint256",
							"name": "",
							"type": "uint256"
						}
					],
					"name": "cars",
					"outputs": [
						{
							"internalType": "string",
							"name": "name",
							"type": "string"
						},
						{
							"internalType": "uint128",
							"name": "price",
							"type": "uint128"
						}
					],
					"stateMutability": "view",
					"type": "function"
				}
			],
			"devdoc": {
				"kind": "dev",
				"methods": {},
				"version": 1
			},
			"evm": {
				"assembly": "    /* \"contracts/Mycontract.sol\":26:336  contract MyContract {... */\n  mstore(0x40, 0x80)\n    /* \"contracts/Mycontract.sol\":140:141  0 */\n  0x00\n    /* \"contracts/Mycontract.sol\":120:141  uint numberOfCars = 0 */\n  dup1\n  sstore\n    /* \"contracts/Mycontract.sol\":26:336  contract MyContract {... */\n  callvalue\n  dup1\n  iszero\n  tag_1\n  jumpi\n  0x00\n  dup1\n  revert\ntag_1:\n  pop\n  dataSize(sub_0)\n  dup1\n  dataOffset(sub_0)\n  0x00\n  codecopy\n  0x00\n  return\nstop\n\nsub_0: assembly {\n        /* \"contracts/Mycontract.sol\":26:336  contract MyContract {... */\n      mstore(0x40, 0x80)\n      callvalue\n      dup1\n      iszero\n      tag_1\n      jumpi\n      0x00\n      dup1\n      revert\n    tag_1:\n      pop\n      jumpi(tag_2, lt(calldatasize, 0x04))\n      shr(0xe0, calldataload(0x00))\n      dup1\n      0x8bbecbae\n      eq\n      tag_3\n      jumpi\n      dup1\n      0xf7746e36\n      eq\n      tag_4\n      jumpi\n    tag_2:\n      0x00\n      dup1\n      revert\n        /* \"contracts/Mycontract.sol\":188:333  function addCar(string memory _name , uint128 _price) public {... */\n    tag_3:\n      tag_5\n      0x04\n      dup1\n      calldatasize\n      sub\n      dup2\n      add\n      swap1\n      tag_6\n      swap2\n      swap1\n      tag_7\n      jump\t// in\n    tag_6:\n      tag_8\n      jump\t// in\n    tag_5:\n      stop\n        /* \"contracts/Mycontract.sol\":148:181  mapping (uint => Car) public cars */\n    tag_4:\n      tag_9\n      0x04\n      dup1\n      calldatasize\n      sub\n      dup2\n      add\n      swap1\n      tag_10\n      swap2\n      swap1\n      tag_11\n      jump\t// in\n    tag_10:\n      tag_12\n      jump\t// in\n    tag_9:\n      mload(0x40)\n      tag_13\n      swap3\n      swap2\n      swap1\n      tag_14\n      jump\t// in\n    tag_13:\n      mload(0x40)\n      dup1\n      swap2\n      sub\n      swap1\n      return\n        /* \"contracts/Mycontract.sol\":188:333  function addCar(string memory _name , uint128 _price) public {... */\n    tag_8:\n        /* \"contracts/Mycontract.sol\":280:299  Car(_name , _price) */\n      mload(0x40)\n      dup1\n      0x40\n      add\n      0x40\n      mstore\n      dup1\n        /* \"contracts/Mycontract.sol\":284:289  _name */\n      dup4\n        /* \"contracts/Mycontract.sol\":280:299  Car(_name , _price) */\n      dup2\n      mstore\n      0x20\n      add\n        /* \"contracts/Mycontract.sol\":292:298  _price */\n      dup3\n        /* \"contracts/Mycontract.sol\":280:299  Car(_name , _price) */\n      0xffffffffffffffffffffffffffffffff\n      and\n      dup2\n      mstore\n      pop\n        /* \"contracts/Mycontract.sol\":259:263  cars */\n      0x01\n        /* \"contracts/Mycontract.sol\":259:277  cars[numberOfCars] */\n      0x00\n        /* \"contracts/Mycontract.sol\":264:276  numberOfCars */\n      dup1\n      sload\n        /* \"contracts/Mycontract.sol\":259:277  cars[numberOfCars] */\n      dup2\n      mstore\n      0x20\n      add\n      swap1\n      dup2\n      mstore\n      0x20\n      add\n      0x00\n      keccak256\n        /* \"contracts/Mycontract.sol\":259:299  cars[numberOfCars] = Car(_name , _price) */\n      0x00\n      dup3\n      add\n      mload\n      dup2\n      0x00\n      add\n      swap1\n      dup1\n      mload\n      swap1\n      0x20\n      add\n      swap1\n      tag_16\n      swap3\n      swap2\n      swap1\n      tag_17\n      jump\t// in\n    tag_16:\n      pop\n      0x20\n      dup3\n      add\n      mload\n      dup2\n      0x01\n      add\n      exp(0x0100, 0x00)\n      dup2\n      sload\n      dup2\n      0xffffffffffffffffffffffffffffffff\n      mul\n      not\n      and\n      swap1\n      dup4\n      0xffffffffffffffffffffffffffffffff\n      and\n      mul\n      or\n      swap1\n      sstore\n      pop\n      swap1\n      pop\n      pop\n        /* \"contracts/Mycontract.sol\":325:326  1 */\n      0x01\n        /* \"contracts/Mycontract.sol\":309:321  numberOfCars */\n      0x00\n      dup1\n        /* \"contracts/Mycontract.sol\":309:326  numberOfCars += 1 */\n      dup3\n      dup3\n      sload\n      tag_18\n      swap2\n      swap1\n      tag_19\n      jump\t// in\n    tag_18:\n      swap3\n      pop\n      pop\n      dup2\n      swap1\n      sstore\n      pop\n        /* \"contracts/Mycontract.sol\":188:333  function addCar(string memory _name , uint128 _price) public {... */\n      pop\n      pop\n      jump\t// out\n        /* \"contracts/Mycontract.sol\":148:181  mapping (uint => Car) public cars */\n    tag_12:\n      mstore(0x20, 0x01)\n      dup1\n      0x00\n      mstore\n      keccak256(0x00, 0x40)\n      0x00\n      swap2\n      pop\n      swap1\n      pop\n      dup1\n      0x00\n      add\n      dup1\n      sload\n      tag_20\n      swap1\n      tag_21\n      jump\t// in\n    tag_20:\n      dup1\n      0x1f\n      add\n      0x20\n      dup1\n      swap2\n      div\n      mul\n      0x20\n      add\n      mload(0x40)\n      swap1\n      dup2\n      add\n      0x40\n      mstore\n      dup1\n      swap3\n      swap2\n      swap1\n      dup2\n      dup2\n      mstore\n      0x20\n      add\n      dup3\n      dup1\n      sload\n      tag_22\n      swap1\n      tag_21\n      jump\t// in\n    tag_22:\n      dup1\n      iszero\n      tag_23\n      jumpi\n      dup1\n      0x1f\n      lt\n      tag_24\n      jumpi\n      0x0100\n      dup1\n      dup4\n      sload\n      div\n      mul\n      dup4\n      mstore\n      swap2\n      0x20\n      add\n      swap2\n      jump(tag_23)\n    tag_24:\n      dup3\n      add\n      swap2\n      swap1\n      0x00\n      mstore\n      keccak256(0x00, 0x20)\n      swap1\n    tag_25:\n      dup2\n      sload\n      dup2\n      mstore\n      swap1\n      0x01\n      add\n      swap1\n      0x20\n      add\n      dup1\n      dup4\n      gt\n      tag_25\n      jumpi\n      dup3\n      swap1\n      sub\n      0x1f\n      and\n      dup3\n      add\n      swap2\n    tag_23:\n      pop\n      pop\n      pop\n      pop\n      pop\n      swap1\n      dup1\n      0x01\n      add\n      0x00\n      swap1\n      sload\n      swap1\n      0x0100\n      exp\n      swap1\n      div\n      0xffffffffffffffffffffffffffffffff\n      and\n      swap1\n      pop\n      dup3\n      jump\t// out\n    tag_17:\n      dup3\n      dup1\n      sload\n      tag_26\n      swap1\n      tag_21\n      jump\t// in\n    tag_26:\n      swap1\n      0x00\n      mstore\n      keccak256(0x00, 0x20)\n      swap1\n      0x1f\n      add\n      0x20\n      swap1\n      div\n      dup2\n      add\n      swap3\n      dup3\n      tag_28\n      jumpi\n      0x00\n      dup6\n      sstore\n      jump(tag_27)\n    tag_28:\n      dup3\n      0x1f\n      lt\n      tag_29\n      jumpi\n      dup1\n      mload\n      not(0xff)\n      and\n      dup4\n      dup1\n      add\n      or\n      dup6\n      sstore\n      jump(tag_27)\n    tag_29:\n      dup3\n      dup1\n      add\n      0x01\n      add\n      dup6\n      sstore\n      dup3\n      iszero\n      tag_27\n      jumpi\n      swap2\n      dup3\n      add\n    tag_30:\n      dup3\n      dup2\n      gt\n      iszero\n      tag_31\n      jumpi\n      dup3\n      mload\n      dup3\n      sstore\n      swap2\n      0x20\n      add\n      swap2\n      swap1\n      0x01\n      add\n      swap1\n      jump(tag_30)\n    tag_31:\n    tag_27:\n      pop\n      swap1\n      pop\n      tag_32\n      swap2\n      swap1\n      tag_33\n      jump\t// in\n    tag_32:\n      pop\n      swap1\n      jump\t// out\n    tag_33:\n    tag_34:\n      dup1\n      dup3\n      gt\n      iszero\n      tag_35\n      jumpi\n      0x00\n      dup2\n      0x00\n      swap1\n      sstore\n      pop\n      0x01\n      add\n      jump(tag_34)\n    tag_35:\n      pop\n      swap1\n      jump\t// out\n        /* \"#utility.yul\":7:82   */\n    tag_36:\n        /* \"#utility.yul\":40:46   */\n      0x00\n        /* \"#utility.yul\":73:75   */\n      0x40\n        /* \"#utility.yul\":67:76   */\n      mload\n        /* \"#utility.yul\":57:76   */\n      swap1\n      pop\n        /* \"#utility.yul\":7:82   */\n      swap1\n      jump\t// out\n        /* \"#utility.yul\":88:205   */\n    tag_37:\n        /* \"#utility.yul\":197:198   */\n      0x00\n        /* \"#utility.yul\":194:195   */\n      dup1\n        /* \"#utility.yul\":187:199   */\n      revert\n        /* \"#utility.yul\":211:328   */\n    tag_38:\n        /* \"#utility.yul\":320:321   */\n      0x00\n        /* \"#utility.yul\":317:318   */\n      dup1\n        /* \"#utility.yul\":310:322   */\n      revert\n        /* \"#utility.yul\":334:451   */\n    tag_39:\n        /* \"#utility.yul\":443:444   */\n      0x00\n        /* \"#utility.yul\":440:441   */\n      dup1\n        /* \"#utility.yul\":433:445   */\n      revert\n        /* \"#utility.yul\":457:574   */\n    tag_40:\n        /* \"#utility.yul\":566:567   */\n      0x00\n        /* \"#utility.yul\":563:564   */\n      dup1\n        /* \"#utility.yul\":556:568   */\n      revert\n        /* \"#utility.yul\":580:682   */\n    tag_41:\n        /* \"#utility.yul\":621:627   */\n      0x00\n        /* \"#utility.yul\":672:674   */\n      0x1f\n        /* \"#utility.yul\":668:675   */\n      not\n        /* \"#utility.yul\":663:665   */\n      0x1f\n        /* \"#utility.yul\":656:661   */\n      dup4\n        /* \"#utility.yul\":652:666   */\n      add\n        /* \"#utility.yul\":648:676   */\n      and\n        /* \"#utility.yul\":638:676   */\n      swap1\n      pop\n        /* \"#utility.yul\":580:682   */\n      swap2\n      swap1\n      pop\n      jump\t// out\n        /* \"#utility.yul\":688:868   */\n    tag_42:\n        /* \"#utility.yul\":736:813   */\n      0x4e487b7100000000000000000000000000000000000000000000000000000000\n        /* \"#utility.yul\":733:734   */\n      0x00\n        /* \"#utility.yul\":726:814   */\n      mstore\n        /* \"#utility.yul\":833:837   */\n      0x41\n        /* \"#utility.yul\":830:831   */\n      0x04\n        /* \"#utility.yul\":823:838   */\n      mstore\n        /* \"#utility.yul\":857:861   */\n      0x24\n        /* \"#utility.yul\":854:855   */\n      0x00\n        /* \"#utility.yul\":847:862   */\n      revert\n        /* \"#utility.yul\":874:1155   */\n    tag_43:\n        /* \"#utility.yul\":957:984   */\n      tag_71\n        /* \"#utility.yul\":979:983   */\n      dup3\n        /* \"#utility.yul\":957:984   */\n      tag_41\n      jump\t// in\n    tag_71:\n        /* \"#utility.yul\":949:955   */\n      dup2\n        /* \"#utility.yul\":945:985   */\n      add\n        /* \"#utility.yul\":1087:1093   */\n      dup2\n        /* \"#utility.yul\":1075:1085   */\n      dup2\n        /* \"#utility.yul\":1072:1094   */\n      lt\n        /* \"#utility.yul\":1051:1069   */\n      0xffffffffffffffff\n        /* \"#utility.yul\":1039:1049   */\n      dup3\n        /* \"#utility.yul\":1036:1070   */\n      gt\n        /* \"#utility.yul\":1033:1095   */\n      or\n        /* \"#utility.yul\":1030:1118   */\n      iszero\n      tag_72\n      jumpi\n        /* \"#utility.yul\":1098:1116   */\n      tag_73\n      tag_42\n      jump\t// in\n    tag_73:\n        /* \"#utility.yul\":1030:1118   */\n    tag_72:\n        /* \"#utility.yul\":1138:1148   */\n      dup1\n        /* \"#utility.yul\":1134:1136   */\n      0x40\n        /* \"#utility.yul\":1127:1149   */\n      mstore\n        /* \"#utility.yul\":917:1155   */\n      pop\n        /* \"#utility.yul\":874:1155   */\n      pop\n      pop\n      jump\t// out\n        /* \"#utility.yul\":1161:1290   */\n    tag_44:\n        /* \"#utility.yul\":1195:1201   */\n      0x00\n        /* \"#utility.yul\":1222:1242   */\n      tag_75\n      tag_36\n      jump\t// in\n    tag_75:\n        /* \"#utility.yul\":1212:1242   */\n      swap1\n      pop\n        /* \"#utility.yul\":1251:1284   */\n      tag_76\n        /* \"#utility.yul\":1279:1283   */\n      dup3\n        /* \"#utility.yul\":1271:1277   */\n      dup3\n        /* \"#utility.yul\":1251:1284   */\n      tag_43\n      jump\t// in\n    tag_76:\n        /* \"#utility.yul\":1161:1290   */\n      swap2\n      swap1\n      pop\n      jump\t// out\n        /* \"#utility.yul\":1296:1604   */\n    tag_45:\n        /* \"#utility.yul\":1358:1362   */\n      0x00\n        /* \"#utility.yul\":1448:1466   */\n      0xffffffffffffffff\n        /* \"#utility.yul\":1440:1446   */\n      dup3\n        /* \"#utility.yul\":1437:1467   */\n      gt\n        /* \"#utility.yul\":1434:1490   */\n      iszero\n      tag_78\n      jumpi\n        /* \"#utility.yul\":1470:1488   */\n      tag_79\n      tag_42\n      jump\t// in\n    tag_79:\n        /* \"#utility.yul\":1434:1490   */\n    tag_78:\n        /* \"#utility.yul\":1508:1537   */\n      tag_80\n        /* \"#utility.yul\":1530:1536   */\n      dup3\n        /* \"#utility.yul\":1508:1537   */\n      tag_41\n      jump\t// in\n    tag_80:\n        /* \"#utility.yul\":1500:1537   */\n      swap1\n      pop\n        /* \"#utility.yul\":1592:1596   */\n      0x20\n        /* \"#utility.yul\":1586:1590   */\n      dup2\n        /* \"#utility.yul\":1582:1597   */\n      add\n        /* \"#utility.yul\":1574:1597   */\n      swap1\n      pop\n        /* \"#utility.yul\":1296:1604   */\n      swap2\n      swap1\n      pop\n      jump\t// out\n        /* \"#utility.yul\":1610:1764   */\n    tag_46:\n        /* \"#utility.yul\":1694:1700   */\n      dup3\n        /* \"#utility.yul\":1689:1692   */\n      dup2\n        /* \"#utility.yul\":1684:1687   */\n      dup4\n        /* \"#utility.yul\":1671:1701   */\n      calldatacopy\n        /* \"#utility.yul\":1756:1757   */\n      0x00\n        /* \"#utility.yul\":1747:1753   */\n      dup4\n        /* \"#utility.yul\":1742:1745   */\n      dup4\n        /* \"#utility.yul\":1738:1754   */\n      add\n        /* \"#utility.yul\":1731:1758   */\n      mstore\n        /* \"#utility.yul\":1610:1764   */\n      pop\n      pop\n      pop\n      jump\t// out\n        /* \"#utility.yul\":1770:2182   */\n    tag_47:\n        /* \"#utility.yul\":1848:1853   */\n      0x00\n        /* \"#utility.yul\":1873:1939   */\n      tag_83\n        /* \"#utility.yul\":1889:1938   */\n      tag_84\n        /* \"#utility.yul\":1931:1937   */\n      dup5\n        /* \"#utility.yul\":1889:1938   */\n      tag_45\n      jump\t// in\n    tag_84:\n        /* \"#utility.yul\":1873:1939   */\n      tag_44\n      jump\t// in\n    tag_83:\n        /* \"#utility.yul\":1864:1939   */\n      swap1\n      pop\n        /* \"#utility.yul\":1962:1968   */\n      dup3\n        /* \"#utility.yul\":1955:1960   */\n      dup2\n        /* \"#utility.yul\":1948:1969   */\n      mstore\n        /* \"#utility.yul\":2000:2004   */\n      0x20\n        /* \"#utility.yul\":1993:1998   */\n      dup2\n        /* \"#utility.yul\":1989:2005   */\n      add\n        /* \"#utility.yul\":2038:2041   */\n      dup5\n        /* \"#utility.yul\":2029:2035   */\n      dup5\n        /* \"#utility.yul\":2024:2027   */\n      dup5\n        /* \"#utility.yul\":2020:2036   */\n      add\n        /* \"#utility.yul\":2017:2042   */\n      gt\n        /* \"#utility.yul\":2014:2126   */\n      iszero\n      tag_85\n      jumpi\n        /* \"#utility.yul\":2045:2124   */\n      tag_86\n      tag_40\n      jump\t// in\n    tag_86:\n        /* \"#utility.yul\":2014:2126   */\n    tag_85:\n        /* \"#utility.yul\":2135:2176   */\n      tag_87\n        /* \"#utility.yul\":2169:2175   */\n      dup5\n        /* \"#utility.yul\":2164:2167   */\n      dup3\n        /* \"#utility.yul\":2159:2162   */\n      dup6\n        /* \"#utility.yul\":2135:2176   */\n      tag_46\n      jump\t// in\n    tag_87:\n        /* \"#utility.yul\":1854:2182   */\n      pop\n        /* \"#utility.yul\":1770:2182   */\n      swap4\n      swap3\n      pop\n      pop\n      pop\n      jump\t// out\n        /* \"#utility.yul\":2202:2542   */\n    tag_48:\n        /* \"#utility.yul\":2258:2263   */\n      0x00\n        /* \"#utility.yul\":2307:2310   */\n      dup3\n        /* \"#utility.yul\":2300:2304   */\n      0x1f\n        /* \"#utility.yul\":2292:2298   */\n      dup4\n        /* \"#utility.yul\":2288:2305   */\n      add\n        /* \"#utility.yul\":2284:2311   */\n      slt\n        /* \"#utility.yul\":2274:2396   */\n      tag_89\n      jumpi\n        /* \"#utility.yul\":2315:2394   */\n      tag_90\n      tag_39\n      jump\t// in\n    tag_90:\n        /* \"#utility.yul\":2274:2396   */\n    tag_89:\n        /* \"#utility.yul\":2432:2438   */\n      dup2\n        /* \"#utility.yul\":2419:2439   */\n      calldataload\n        /* \"#utility.yul\":2457:2536   */\n      tag_91\n        /* \"#utility.yul\":2532:2535   */\n      dup5\n        /* \"#utility.yul\":2524:2530   */\n      dup3\n        /* \"#utility.yul\":2517:2521   */\n      0x20\n        /* \"#utility.yul\":2509:2515   */\n      dup7\n        /* \"#utility.yul\":2505:2522   */\n      add\n        /* \"#utility.yul\":2457:2536   */\n      tag_47\n      jump\t// in\n    tag_91:\n        /* \"#utility.yul\":2448:2536   */\n      swap2\n      pop\n        /* \"#utility.yul\":2264:2542   */\n      pop\n        /* \"#utility.yul\":2202:2542   */\n      swap3\n      swap2\n      pop\n      pop\n      jump\t// out\n        /* \"#utility.yul\":2548:2666   */\n    tag_49:\n        /* \"#utility.yul\":2585:2592   */\n      0x00\n        /* \"#utility.yul\":2625:2659   */\n      0xffffffffffffffffffffffffffffffff\n        /* \"#utility.yul\":2618:2623   */\n      dup3\n        /* \"#utility.yul\":2614:2660   */\n      and\n        /* \"#utility.yul\":2603:2660   */\n      swap1\n      pop\n        /* \"#utility.yul\":2548:2666   */\n      swap2\n      swap1\n      pop\n      jump\t// out\n        /* \"#utility.yul\":2672:2794   */\n    tag_50:\n        /* \"#utility.yul\":2745:2769   */\n      tag_94\n        /* \"#utility.yul\":2763:2768   */\n      dup2\n        /* \"#utility.yul\":2745:2769   */\n      tag_49\n      jump\t// in\n    tag_94:\n        /* \"#utility.yul\":2738:2743   */\n      dup2\n        /* \"#utility.yul\":2735:2770   */\n      eq\n        /* \"#utility.yul\":2725:2788   */\n      tag_95\n      jumpi\n        /* \"#utility.yul\":2784:2785   */\n      0x00\n        /* \"#utility.yul\":2781:2782   */\n      dup1\n        /* \"#utility.yul\":2774:2786   */\n      revert\n        /* \"#utility.yul\":2725:2788   */\n    tag_95:\n        /* \"#utility.yul\":2672:2794   */\n      pop\n      jump\t// out\n        /* \"#utility.yul\":2800:2939   */\n    tag_51:\n        /* \"#utility.yul\":2846:2851   */\n      0x00\n        /* \"#utility.yul\":2884:2890   */\n      dup2\n        /* \"#utility.yul\":2871:2891   */\n      calldataload\n        /* \"#utility.yul\":2862:2891   */\n      swap1\n      pop\n        /* \"#utility.yul\":2900:2933   */\n      tag_97\n        /* \"#utility.yul\":2927:2932   */\n      dup2\n        /* \"#utility.yul\":2900:2933   */\n      tag_50\n      jump\t// in\n    tag_97:\n        /* \"#utility.yul\":2800:2939   */\n      swap3\n      swap2\n      pop\n      pop\n      jump\t// out\n        /* \"#utility.yul\":2945:3599   */\n    tag_7:\n        /* \"#utility.yul\":3023:3029   */\n      0x00\n        /* \"#utility.yul\":3031:3037   */\n      dup1\n        /* \"#utility.yul\":3080:3082   */\n      0x40\n        /* \"#utility.yul\":3068:3077   */\n      dup4\n        /* \"#utility.yul\":3059:3066   */\n      dup6\n        /* \"#utility.yul\":3055:3078   */\n      sub\n        /* \"#utility.yul\":3051:3083   */\n      slt\n        /* \"#utility.yul\":3048:3167   */\n      iszero\n      tag_99\n      jumpi\n        /* \"#utility.yul\":3086:3165   */\n      tag_100\n      tag_37\n      jump\t// in\n    tag_100:\n        /* \"#utility.yul\":3048:3167   */\n    tag_99:\n        /* \"#utility.yul\":3234:3235   */\n      0x00\n        /* \"#utility.yul\":3223:3232   */\n      dup4\n        /* \"#utility.yul\":3219:3236   */\n      add\n        /* \"#utility.yul\":3206:3237   */\n      calldataload\n        /* \"#utility.yul\":3264:3282   */\n      0xffffffffffffffff\n        /* \"#utility.yul\":3256:3262   */\n      dup2\n        /* \"#utility.yul\":3253:3283   */\n      gt\n        /* \"#utility.yul\":3250:3367   */\n      iszero\n      tag_101\n      jumpi\n        /* \"#utility.yul\":3286:3365   */\n      tag_102\n      tag_38\n      jump\t// in\n    tag_102:\n        /* \"#utility.yul\":3250:3367   */\n    tag_101:\n        /* \"#utility.yul\":3391:3454   */\n      tag_103\n        /* \"#utility.yul\":3446:3453   */\n      dup6\n        /* \"#utility.yul\":3437:3443   */\n      dup3\n        /* \"#utility.yul\":3426:3435   */\n      dup7\n        /* \"#utility.yul\":3422:3444   */\n      add\n        /* \"#utility.yul\":3391:3454   */\n      tag_48\n      jump\t// in\n    tag_103:\n        /* \"#utility.yul\":3381:3454   */\n      swap3\n      pop\n        /* \"#utility.yul\":3177:3464   */\n      pop\n        /* \"#utility.yul\":3503:3505   */\n      0x20\n        /* \"#utility.yul\":3529:3582   */\n      tag_104\n        /* \"#utility.yul\":3574:3581   */\n      dup6\n        /* \"#utility.yul\":3565:3571   */\n      dup3\n        /* \"#utility.yul\":3554:3563   */\n      dup7\n        /* \"#utility.yul\":3550:3572   */\n      add\n        /* \"#utility.yul\":3529:3582   */\n      tag_51\n      jump\t// in\n    tag_104:\n        /* \"#utility.yul\":3519:3582   */\n      swap2\n      pop\n        /* \"#utility.yul\":3474:3592   */\n      pop\n        /* \"#utility.yul\":2945:3599   */\n      swap3\n      pop\n      swap3\n      swap1\n      pop\n      jump\t// out\n        /* \"#utility.yul\":3605:3682   */\n    tag_52:\n        /* \"#utility.yul\":3642:3649   */\n      0x00\n        /* \"#utility.yul\":3671:3676   */\n      dup2\n        /* \"#utility.yul\":3660:3676   */\n      swap1\n      pop\n        /* \"#utility.yul\":3605:3682   */\n      swap2\n      swap1\n      pop\n      jump\t// out\n        /* \"#utility.yul\":3688:3810   */\n    tag_53:\n        /* \"#utility.yul\":3761:3785   */\n      tag_107\n        /* \"#utility.yul\":3779:3784   */\n      dup2\n        /* \"#utility.yul\":3761:3785   */\n      tag_52\n      jump\t// in\n    tag_107:\n        /* \"#utility.yul\":3754:3759   */\n      dup2\n        /* \"#utility.yul\":3751:3786   */\n      eq\n        /* \"#utility.yul\":3741:3804   */\n      tag_108\n      jumpi\n        /* \"#utility.yul\":3800:3801   */\n      0x00\n        /* \"#utility.yul\":3797:3798   */\n      dup1\n        /* \"#utility.yul\":3790:3802   */\n      revert\n        /* \"#utility.yul\":3741:3804   */\n    tag_108:\n        /* \"#utility.yul\":3688:3810   */\n      pop\n      jump\t// out\n        /* \"#utility.yul\":3816:3955   */\n    tag_54:\n        /* \"#utility.yul\":3862:3867   */\n      0x00\n        /* \"#utility.yul\":3900:3906   */\n      dup2\n        /* \"#utility.yul\":3887:3907   */\n      calldataload\n        /* \"#utility.yul\":3878:3907   */\n      swap1\n      pop\n        /* \"#utility.yul\":3916:3949   */\n      tag_110\n        /* \"#utility.yul\":3943:3948   */\n      dup2\n        /* \"#utility.yul\":3916:3949   */\n      tag_53\n      jump\t// in\n    tag_110:\n        /* \"#utility.yul\":3816:3955   */\n      swap3\n      swap2\n      pop\n      pop\n      jump\t// out\n        /* \"#utility.yul\":3961:4290   */\n    tag_11:\n        /* \"#utility.yul\":4020:4026   */\n      0x00\n        /* \"#utility.yul\":4069:4071   */\n      0x20\n        /* \"#utility.yul\":4057:4066   */\n      dup3\n        /* \"#utility.yul\":4048:4055   */\n      dup5\n        /* \"#utility.yul\":4044:4067   */\n      sub\n        /* \"#utility.yul\":4040:4072   */\n      slt\n        /* \"#utility.yul\":4037:4156   */\n      iszero\n      tag_112\n      jumpi\n        /* \"#utility.yul\":4075:4154   */\n      tag_113\n      tag_37\n      jump\t// in\n    tag_113:\n        /* \"#utility.yul\":4037:4156   */\n    tag_112:\n        /* \"#utility.yul\":4195:4196   */\n      0x00\n        /* \"#utility.yul\":4220:4273   */\n      tag_114\n        /* \"#utility.yul\":4265:4272   */\n      dup5\n        /* \"#utility.yul\":4256:4262   */\n      dup3\n        /* \"#utility.yul\":4245:4254   */\n      dup6\n        /* \"#utility.yul\":4241:4263   */\n      add\n        /* \"#utility.yul\":4220:4273   */\n      tag_54\n      jump\t// in\n    tag_114:\n        /* \"#utility.yul\":4210:4273   */\n      swap2\n      pop\n        /* \"#utility.yul\":4166:4283   */\n      pop\n        /* \"#utility.yul\":3961:4290   */\n      swap3\n      swap2\n      pop\n      pop\n      jump\t// out\n        /* \"#utility.yul\":4296:4395   */\n    tag_55:\n        /* \"#utility.yul\":4348:4354   */\n      0x00\n        /* \"#utility.yul\":4382:4387   */\n      dup2\n        /* \"#utility.yul\":4376:4388   */\n      mload\n        /* \"#utility.yul\":4366:4388   */\n      swap1\n      pop\n        /* \"#utility.yul\":4296:4395   */\n      swap2\n      swap1\n      pop\n      jump\t// out\n        /* \"#utility.yul\":4401:4570   */\n    tag_56:\n        /* \"#utility.yul\":4485:4496   */\n      0x00\n        /* \"#utility.yul\":4519:4525   */\n      dup3\n        /* \"#utility.yul\":4514:4517   */\n      dup3\n        /* \"#utility.yul\":4507:4526   */\n      mstore\n        /* \"#utility.yul\":4559:4563   */\n      0x20\n        /* \"#utility.yul\":4554:4557   */\n      dup3\n        /* \"#utility.yul\":4550:4564   */\n      add\n        /* \"#utility.yul\":4535:4564   */\n      swap1\n      pop\n        /* \"#utility.yul\":4401:4570   */\n      swap3\n      swap2\n      pop\n      pop\n      jump\t// out\n        /* \"#utility.yul\":4576:4883   */\n    tag_57:\n        /* \"#utility.yul\":4644:4645   */\n      0x00\n        /* \"#utility.yul\":4654:4767   */\n    tag_118:\n        /* \"#utility.yul\":4668:4674   */\n      dup4\n        /* \"#utility.yul\":4665:4666   */\n      dup2\n        /* \"#utility.yul\":4662:4675   */\n      lt\n        /* \"#utility.yul\":4654:4767   */\n      iszero\n      tag_120\n      jumpi\n        /* \"#utility.yul\":4753:4754   */\n      dup1\n        /* \"#utility.yul\":4748:4751   */\n      dup3\n        /* \"#utility.yul\":4744:4755   */\n      add\n        /* \"#utility.yul\":4738:4756   */\n      mload\n        /* \"#utility.yul\":4734:4735   */\n      dup2\n        /* \"#utility.yul\":4729:4732   */\n      dup5\n        /* \"#utility.yul\":4725:4736   */\n      add\n        /* \"#utility.yul\":4718:4757   */\n      mstore\n        /* \"#utility.yul\":4690:4692   */\n      0x20\n        /* \"#utility.yul\":4687:4688   */\n      dup2\n        /* \"#utility.yul\":4683:4693   */\n      add\n        /* \"#utility.yul\":4678:4693   */\n      swap1\n      pop\n        /* \"#utility.yul\":4654:4767   */\n      jump(tag_118)\n    tag_120:\n        /* \"#utility.yul\":4785:4791   */\n      dup4\n        /* \"#utility.yul\":4782:4783   */\n      dup2\n        /* \"#utility.yul\":4779:4792   */\n      gt\n        /* \"#utility.yul\":4776:4877   */\n      iszero\n      tag_121\n      jumpi\n        /* \"#utility.yul\":4865:4866   */\n      0x00\n        /* \"#utility.yul\":4856:4862   */\n      dup5\n        /* \"#utility.yul\":4851:4854   */\n      dup5\n        /* \"#utility.yul\":4847:4863   */\n      add\n        /* \"#utility.yul\":4840:4867   */\n      mstore\n        /* \"#utility.yul\":4776:4877   */\n    tag_121:\n        /* \"#utility.yul\":4625:4883   */\n      pop\n        /* \"#utility.yul\":4576:4883   */\n      pop\n      pop\n      pop\n      jump\t// out\n        /* \"#utility.yul\":4889:5253   */\n    tag_58:\n        /* \"#utility.yul\":4977:4980   */\n      0x00\n        /* \"#utility.yul\":5005:5044   */\n      tag_123\n        /* \"#utility.yul\":5038:5043   */\n      dup3\n        /* \"#utility.yul\":5005:5044   */\n      tag_55\n      jump\t// in\n    tag_123:\n        /* \"#utility.yul\":5060:5131   */\n      tag_124\n        /* \"#utility.yul\":5124:5130   */\n      dup2\n        /* \"#utility.yul\":5119:5122   */\n      dup6\n        /* \"#utility.yul\":5060:5131   */\n      tag_56\n      jump\t// in\n    tag_124:\n        /* \"#utility.yul\":5053:5131   */\n      swap4\n      pop\n        /* \"#utility.yul\":5140:5192   */\n      tag_125\n        /* \"#utility.yul\":5185:5191   */\n      dup2\n        /* \"#utility.yul\":5180:5183   */\n      dup6\n        /* \"#utility.yul\":5173:5177   */\n      0x20\n        /* \"#utility.yul\":5166:5171   */\n      dup7\n        /* \"#utility.yul\":5162:5178   */\n      add\n        /* \"#utility.yul\":5140:5192   */\n      tag_57\n      jump\t// in\n    tag_125:\n        /* \"#utility.yul\":5217:5246   */\n      tag_126\n        /* \"#utility.yul\":5239:5245   */\n      dup2\n        /* \"#utility.yul\":5217:5246   */\n      tag_41\n      jump\t// in\n    tag_126:\n        /* \"#utility.yul\":5212:5215   */\n      dup5\n        /* \"#utility.yul\":5208:5247   */\n      add\n        /* \"#utility.yul\":5201:5247   */\n      swap2\n      pop\n        /* \"#utility.yul\":4981:5253   */\n      pop\n        /* \"#utility.yul\":4889:5253   */\n      swap3\n      swap2\n      pop\n      pop\n      jump\t// out\n        /* \"#utility.yul\":5259:5377   */\n    tag_59:\n        /* \"#utility.yul\":5346:5370   */\n      tag_128\n        /* \"#utility.yul\":5364:5369   */\n      dup2\n        /* \"#utility.yul\":5346:5370   */\n      tag_49\n      jump\t// in\n    tag_128:\n        /* \"#utility.yul\":5341:5344   */\n      dup3\n        /* \"#utility.yul\":5334:5371   */\n      mstore\n        /* \"#utility.yul\":5259:5377   */\n      pop\n      pop\n      jump\t// out\n        /* \"#utility.yul\":5383:5806   */\n    tag_14:\n        /* \"#utility.yul\":5524:5528   */\n      0x00\n        /* \"#utility.yul\":5562:5564   */\n      0x40\n        /* \"#utility.yul\":5551:5560   */\n      dup3\n        /* \"#utility.yul\":5547:5565   */\n      add\n        /* \"#utility.yul\":5539:5565   */\n      swap1\n      pop\n        /* \"#utility.yul\":5611:5620   */\n      dup2\n        /* \"#utility.yul\":5605:5609   */\n      dup2\n        /* \"#utility.yul\":5601:5621   */\n      sub\n        /* \"#utility.yul\":5597:5598   */\n      0x00\n        /* \"#utility.yul\":5586:5595   */\n      dup4\n        /* \"#utility.yul\":5582:5599   */\n      add\n        /* \"#utility.yul\":5575:5622   */\n      mstore\n        /* \"#utility.yul\":5639:5717   */\n      tag_130\n        /* \"#utility.yul\":5712:5716   */\n      dup2\n        /* \"#utility.yul\":5703:5709   */\n      dup6\n        /* \"#utility.yul\":5639:5717   */\n      tag_58\n      jump\t// in\n    tag_130:\n        /* \"#utility.yul\":5631:5717   */\n      swap1\n      pop\n        /* \"#utility.yul\":5727:5799   */\n      tag_131\n        /* \"#utility.yul\":5795:5797   */\n      0x20\n        /* \"#utility.yul\":5784:5793   */\n      dup4\n        /* \"#utility.yul\":5780:5798   */\n      add\n        /* \"#utility.yul\":5771:5777   */\n      dup5\n        /* \"#utility.yul\":5727:5799   */\n      tag_59\n      jump\t// in\n    tag_131:\n        /* \"#utility.yul\":5383:5806   */\n      swap4\n      swap3\n      pop\n      pop\n      pop\n      jump\t// out\n        /* \"#utility.yul\":5812:5992   */\n    tag_60:\n        /* \"#utility.yul\":5860:5937   */\n      0x4e487b7100000000000000000000000000000000000000000000000000000000\n        /* \"#utility.yul\":5857:5858   */\n      0x00\n        /* \"#utility.yul\":5850:5938   */\n      mstore\n        /* \"#utility.yul\":5957:5961   */\n      0x11\n        /* \"#utility.yul\":5954:5955   */\n      0x04\n        /* \"#utility.yul\":5947:5962   */\n      mstore\n        /* \"#utility.yul\":5981:5985   */\n      0x24\n        /* \"#utility.yul\":5978:5979   */\n      0x00\n        /* \"#utility.yul\":5971:5986   */\n      revert\n        /* \"#utility.yul\":5998:6303   */\n    tag_19:\n        /* \"#utility.yul\":6038:6041   */\n      0x00\n        /* \"#utility.yul\":6057:6077   */\n      tag_134\n        /* \"#utility.yul\":6075:6076   */\n      dup3\n        /* \"#utility.yul\":6057:6077   */\n      tag_52\n      jump\t// in\n    tag_134:\n        /* \"#utility.yul\":6052:6077   */\n      swap2\n      pop\n        /* \"#utility.yul\":6091:6111   */\n      tag_135\n        /* \"#utility.yul\":6109:6110   */\n      dup4\n        /* \"#utility.yul\":6091:6111   */\n      tag_52\n      jump\t// in\n    tag_135:\n        /* \"#utility.yul\":6086:6111   */\n      swap3\n      pop\n        /* \"#utility.yul\":6245:6246   */\n      dup3\n        /* \"#utility.yul\":6177:6243   */\n      0xffffffffffffffffffffffffffffffffffffffffffffffffffffffffffffffff\n        /* \"#utility.yul\":6173:6247   */\n      sub\n        /* \"#utility.yul\":6170:6171   */\n      dup3\n        /* \"#utility.yul\":6167:6248   */\n      gt\n        /* \"#utility.yul\":6164:6271   */\n      iszero\n      tag_136\n      jumpi\n        /* \"#utility.yul\":6251:6269   */\n      tag_137\n      tag_60\n      jump\t// in\n    tag_137:\n        /* \"#utility.yul\":6164:6271   */\n    tag_136:\n        /* \"#utility.yul\":6295:6296   */\n      dup3\n        /* \"#utility.yul\":6292:6293   */\n      dup3\n        /* \"#utility.yul\":6288:6297   */\n      add\n        /* \"#utility.yul\":6281:6297   */\n      swap1\n      pop\n        /* \"#utility.yul\":5998:6303   */\n      swap3\n      swap2\n      pop\n      pop\n      jump\t// out\n        /* \"#utility.yul\":6309:6489   */\n    tag_61:\n        /* \"#utility.yul\":6357:6434   */\n      0x4e487b7100000000000000000000000000000000000000000000000000000000\n        /* \"#utility.yul\":6354:6355   */\n      0x00\n        /* \"#utility.yul\":6347:6435   */\n      mstore\n        /* \"#utility.yul\":6454:6458   */\n      0x22\n        /* \"#utility.yul\":6451:6452   */\n      0x04\n        /* \"#utility.yul\":6444:6459   */\n      mstore\n        /* \"#utility.yul\":6478:6482   */\n      0x24\n        /* \"#utility.yul\":6475:6476   */\n      0x00\n        /* \"#utility.yul\":6468:6483   */\n      revert\n        /* \"#utility.yul\":6495:6815   */\n    tag_21:\n        /* \"#utility.yul\":6539:6545   */\n      0x00\n        /* \"#utility.yul\":6576:6577   */\n      0x02\n        /* \"#utility.yul\":6570:6574   */\n      dup3\n        /* \"#utility.yul\":6566:6578   */\n      div\n        /* \"#utility.yul\":6556:6578   */\n      swap1\n      pop\n        /* \"#utility.yul\":6623:6624   */\n      0x01\n        /* \"#utility.yul\":6617:6621   */\n      dup3\n        /* \"#utility.yul\":6613:6625   */\n      and\n        /* \"#utility.yul\":6644:6662   */\n      dup1\n        /* \"#utility.yul\":6634:6715   */\n      tag_140\n      jumpi\n        /* \"#utility.yul\":6700:6704   */\n      0x7f\n        /* \"#utility.yul\":6692:6698   */\n      dup3\n        /* \"#utility.yul\":6688:6705   */\n      and\n        /* \"#utility.yul\":6678:6705   */\n      swap2\n      pop\n        /* \"#utility.yul\":6634:6715   */\n    tag_140:\n        /* \"#utility.yul\":6762:6764   */\n      0x20\n        /* \"#utility.yul\":6754:6760   */\n      dup3\n        /* \"#utility.yul\":6751:6765   */\n      lt\n        /* \"#utility.yul\":6731:6749   */\n      dup2\n        /* \"#utility.yul\":6728:6766   */\n      sub\n        /* \"#utility.yul\":6725:6809   */\n      tag_141\n      jumpi\n        /* \"#utility.yul\":6781:6799   */\n      tag_142\n      tag_61\n      jump\t// in\n    tag_142:\n        /* \"#utility.yul\":6725:6809   */\n    tag_141:\n        /* \"#utility.yul\":6546:6815   */\n      pop\n        /* \"#utility.yul\":6495:6815   */\n      swap2\n      swap1\n      pop\n      jump\t// out\n\n    auxdata: 0xa2646970667358221220be3dc6684e2b77c8e300716126150e440dde30e20c8127c287d392d4748b885564736f6c634300080d0033\n}\n",
				"bytecode": {
					"linkReferences": {},
					"object": "60806040526000805534801561001457600080fd5b506106ed806100246000396000f3fe608060405234801561001057600080fd5b50600436106100365760003560e01c80638bbecbae1461003b578063f7746e3614610057575b600080fd5b6100556004803603810190610050919061044c565b610088565b005b610071600480360381019061006c91906104de565b61013f565b60405161007f9291906105a2565b60405180910390f35b6040518060400160405280838152602001826fffffffffffffffffffffffffffffffff16815250600160008054815260200190815260200160002060008201518160000190805190602001906100df929190610207565b5060208201518160010160006101000a8154816fffffffffffffffffffffffffffffffff02191690836fffffffffffffffffffffffffffffffff16021790555090505060016000808282546101349190610601565b925050819055505050565b600160205280600052604060002060009150905080600001805461016290610686565b80601f016020809104026020016040519081016040528092919081815260200182805461018e90610686565b80156101db5780601f106101b0576101008083540402835291602001916101db565b820191906000526020600020905b8154815290600101906020018083116101be57829003601f168201915b5050505050908060010160009054906101000a90046fffffffffffffffffffffffffffffffff16905082565b82805461021390610686565b90600052602060002090601f016020900481019282610235576000855561027c565b82601f1061024e57805160ff191683800117855561027c565b8280016001018555821561027c579182015b8281111561027b578251825591602001919060010190610260565b5b509050610289919061028d565b5090565b5b808211156102a657600081600090555060010161028e565b5090565b6000604051905090565b600080fd5b600080fd5b600080fd5b600080fd5b6000601f19601f8301169050919050565b7f4e487b7100000000000000000000000000000000000000000000000000000000600052604160045260246000fd5b610311826102c8565b810181811067ffffffffffffffff821117156103305761032f6102d9565b5b80604052505050565b60006103436102aa565b905061034f8282610308565b919050565b600067ffffffffffffffff82111561036f5761036e6102d9565b5b610378826102c8565b9050602081019050919050565b82818337600083830152505050565b60006103a76103a284610354565b610339565b9050828152602081018484840111156103c3576103c26102c3565b5b6103ce848285610385565b509392505050565b600082601f8301126103eb576103ea6102be565b5b81356103fb848260208601610394565b91505092915050565b60006fffffffffffffffffffffffffffffffff82169050919050565b61042981610404565b811461043457600080fd5b50565b60008135905061044681610420565b92915050565b60008060408385031215610463576104626102b4565b5b600083013567ffffffffffffffff811115610481576104806102b9565b5b61048d858286016103d6565b925050602061049e85828601610437565b9150509250929050565b6000819050919050565b6104bb816104a8565b81146104c657600080fd5b50565b6000813590506104d8816104b2565b92915050565b6000602082840312156104f4576104f36102b4565b5b6000610502848285016104c9565b91505092915050565b600081519050919050565b600082825260208201905092915050565b60005b8381101561054557808201518184015260208101905061052a565b83811115610554576000848401525b50505050565b60006105658261050b565b61056f8185610516565b935061057f818560208601610527565b610588816102c8565b840191505092915050565b61059c81610404565b82525050565b600060408201905081810360008301526105bc818561055a565b90506105cb6020830184610593565b9392505050565b7f4e487b7100000000000000000000000000000000000000000000000000000000600052601160045260246000fd5b600061060c826104a8565b9150610617836104a8565b9250827fffffffffffffffffffffffffffffffffffffffffffffffffffffffffffffffff0382111561064c5761064b6105d2565b5b828201905092915050565b7f4e487b7100000000000000000000000000000000000000000000000000000000600052602260045260246000fd5b6000600282049050600182168061069e57607f821691505b6020821081036106b1576106b0610657565b5b5091905056fea2646970667358221220be3dc6684e2b77c8e300716126150e440dde30e20c8127c287d392d4748b885564736f6c634300080d0033",
					"opcodes": "PUSH1 0x80 PUSH1 0x40 MSTORE PUSH1 0x0 DUP1 SSTORE CALLVALUE DUP1 ISZERO PUSH2 0x14 JUMPI PUSH1 0x0 DUP1 REVERT JUMPDEST POP PUSH2 0x6ED DUP1 PUSH2 0x24 PUSH1 0x0 CODECOPY PUSH1 0x0 RETURN INVALID PUSH1 0x80 PUSH1 0x40 MSTORE CALLVALUE DUP1 ISZERO PUSH2 0x10 JUMPI PUSH1 0x0 DUP1 REVERT JUMPDEST POP PUSH1 0x4 CALLDATASIZE LT PUSH2 0x36 JUMPI PUSH1 0x0 CALLDATALOAD PUSH1 0xE0 SHR DUP1 PUSH4 0x8BBECBAE EQ PUSH2 0x3B JUMPI DUP1 PUSH4 0xF7746E36 EQ PUSH2 0x57 JUMPI JUMPDEST PUSH1 0x0 DUP1 REVERT JUMPDEST PUSH2 0x55 PUSH1 0x4 DUP1 CALLDATASIZE SUB DUP2 ADD SWAP1 PUSH2 0x50 SWAP2 SWAP1 PUSH2 0x44C JUMP JUMPDEST PUSH2 0x88 JUMP JUMPDEST STOP JUMPDEST PUSH2 0x71 PUSH1 0x4 DUP1 CALLDATASIZE SUB DUP2 ADD SWAP1 PUSH2 0x6C SWAP2 SWAP1 PUSH2 0x4DE JUMP JUMPDEST PUSH2 0x13F JUMP JUMPDEST PUSH1 0x40 MLOAD PUSH2 0x7F SWAP3 SWAP2 SWAP1 PUSH2 0x5A2 JUMP JUMPDEST PUSH1 0x40 MLOAD DUP1 SWAP2 SUB SWAP1 RETURN JUMPDEST PUSH1 0x40 MLOAD DUP1 PUSH1 0x40 ADD PUSH1 0x40 MSTORE DUP1 DUP4 DUP2 MSTORE PUSH1 0x20 ADD DUP3 PUSH16 0xFFFFFFFFFFFFFFFFFFFFFFFFFFFFFFFF AND DUP2 MSTORE POP PUSH1 0x1 PUSH1 0x0 DUP1 SLOAD DUP2 MSTORE PUSH1 0x20 ADD SWAP1 DUP2 MSTORE PUSH1 0x20 ADD PUSH1 0x0 KECCAK256 PUSH1 0x0 DUP3 ADD MLOAD DUP2 PUSH1 0x0 ADD SWAP1 DUP1 MLOAD SWAP1 PUSH1 0x20 ADD SWAP1 PUSH2 0xDF SWAP3 SWAP2 SWAP1 PUSH2 0x207 JUMP JUMPDEST POP PUSH1 0x20 DUP3 ADD MLOAD DUP2 PUSH1 0x1 ADD PUSH1 0x0 PUSH2 0x100 EXP DUP2 SLOAD DUP2 PUSH16 0xFFFFFFFFFFFFFFFFFFFFFFFFFFFFFFFF MUL NOT AND SWAP1 DUP4 PUSH16 0xFFFFFFFFFFFFFFFFFFFFFFFFFFFFFFFF AND MUL OR SWAP1 SSTORE POP SWAP1 POP POP PUSH1 0x1 PUSH1 0x0 DUP1 DUP3 DUP3 SLOAD PUSH2 0x134 SWAP2 SWAP1 PUSH2 0x601 JUMP JUMPDEST SWAP3 POP POP DUP2 SWAP1 SSTORE POP POP POP JUMP JUMPDEST PUSH1 0x1 PUSH1 0x20 MSTORE DUP1 PUSH1 0x0 MSTORE PUSH1 0x40 PUSH1 0x0 KECCAK256 PUSH1 0x0 SWAP2 POP SWAP1 POP DUP1 PUSH1 0x0 ADD DUP1 SLOAD PUSH2 0x162 SWAP1 PUSH2 0x686 JUMP JUMPDEST DUP1 PUSH1 0x1F ADD PUSH1 0x20 DUP1 SWAP2 DIV MUL PUSH1 0x20 ADD PUSH1 0x40 MLOAD SWAP1 DUP2 ADD PUSH1 0x40 MSTORE DUP1 SWAP3 SWAP2 SWAP1 DUP2 DUP2 MSTORE PUSH1 0x20 ADD DUP3 DUP1 SLOAD PUSH2 0x18E SWAP1 PUSH2 0x686 JUMP JUMPDEST DUP1 ISZERO PUSH2 0x1DB JUMPI DUP1 PUSH1 0x1F LT PUSH2 0x1B0 JUMPI PUSH2 0x100 DUP1 DUP4 SLOAD DIV MUL DUP4 MSTORE SWAP2 PUSH1 0x20 ADD SWAP2 PUSH2 0x1DB JUMP JUMPDEST DUP3 ADD SWAP2 SWAP1 PUSH1 0x0 MSTORE PUSH1 0x20 PUSH1 0x0 KECCAK256 SWAP1 JUMPDEST DUP2 SLOAD DUP2 MSTORE SWAP1 PUSH1 0x1 ADD SWAP1 PUSH1 0x20 ADD DUP1 DUP4 GT PUSH2 0x1BE JUMPI DUP3 SWAP1 SUB PUSH1 0x1F AND DUP3 ADD SWAP2 JUMPDEST POP POP POP POP POP SWAP1 DUP1 PUSH1 0x1 ADD PUSH1 0x0 SWAP1 SLOAD SWAP1 PUSH2 0x100 EXP SWAP1 DIV PUSH16 0xFFFFFFFFFFFFFFFFFFFFFFFFFFFFFFFF AND SWAP1 POP DUP3 JUMP JUMPDEST DUP3 DUP1 SLOAD PUSH2 0x213 SWAP1 PUSH2 0x686 JUMP JUMPDEST SWAP1 PUSH1 0x0 MSTORE PUSH1 0x20 PUSH1 0x0 KECCAK256 SWAP1 PUSH1 0x1F ADD PUSH1 0x20 SWAP1 DIV DUP2 ADD SWAP3 DUP3 PUSH2 0x235 JUMPI PUSH1 0x0 DUP6 SSTORE PUSH2 0x27C JUMP JUMPDEST DUP3 PUSH1 0x1F LT PUSH2 0x24E JUMPI DUP1 MLOAD PUSH1 0xFF NOT AND DUP4 DUP1 ADD OR DUP6 SSTORE PUSH2 0x27C JUMP JUMPDEST DUP3 DUP1 ADD PUSH1 0x1 ADD DUP6 SSTORE DUP3 ISZERO PUSH2 0x27C JUMPI SWAP2 DUP3 ADD JUMPDEST DUP3 DUP2 GT ISZERO PUSH2 0x27B JUMPI DUP3 MLOAD DUP3 SSTORE SWAP2 PUSH1 0x20 ADD SWAP2 SWAP1 PUSH1 0x1 ADD SWAP1 PUSH2 0x260 JUMP JUMPDEST JUMPDEST POP SWAP1 POP PUSH2 0x289 SWAP2 SWAP1 PUSH2 0x28D JUMP JUMPDEST POP SWAP1 JUMP JUMPDEST JUMPDEST DUP1 DUP3 GT ISZERO PUSH2 0x2A6 JUMPI PUSH1 0x0 DUP2 PUSH1 0x0 SWAP1 SSTORE POP PUSH1 0x1 ADD PUSH2 0x28E JUMP JUMPDEST POP SWAP1 JUMP JUMPDEST PUSH1 0x0 PUSH1 0x40 MLOAD SWAP1 POP SWAP1 JUMP JUMPDEST PUSH1 0x0 DUP1 REVERT JUMPDEST PUSH1 0x0 DUP1 REVERT JUMPDEST PUSH1 0x0 DUP1 REVERT JUMPDEST PUSH1 0x0 DUP1 REVERT JUMPDEST PUSH1 0x0 PUSH1 0x1F NOT PUSH1 0x1F DUP4 ADD AND SWAP1 POP SWAP2 SWAP1 POP JUMP JUMPDEST PUSH32 0x4E487B7100000000000000000000000000000000000000000000000000000000 PUSH1 0x0 MSTORE PUSH1 0x41 PUSH1 0x4 MSTORE PUSH1 0x24 PUSH1 0x0 REVERT JUMPDEST PUSH2 0x311 DUP3 PUSH2 0x2C8 JUMP JUMPDEST DUP2 ADD DUP2 DUP2 LT PUSH8 0xFFFFFFFFFFFFFFFF DUP3 GT OR ISZERO PUSH2 0x330 JUMPI PUSH2 0x32F PUSH2 0x2D9 JUMP JUMPDEST JUMPDEST DUP1 PUSH1 0x40 MSTORE POP POP POP JUMP JUMPDEST PUSH1 0x0 PUSH2 0x343 PUSH2 0x2AA JUMP JUMPDEST SWAP1 POP PUSH2 0x34F DUP3 DUP3 PUSH2 0x308 JUMP JUMPDEST SWAP2 SWAP1 POP JUMP JUMPDEST PUSH1 0x0 PUSH8 0xFFFFFFFFFFFFFFFF DUP3 GT ISZERO PUSH2 0x36F JUMPI PUSH2 0x36E PUSH2 0x2D9 JUMP JUMPDEST JUMPDEST PUSH2 0x378 DUP3 PUSH2 0x2C8 JUMP JUMPDEST SWAP1 POP PUSH1 0x20 DUP2 ADD SWAP1 POP SWAP2 SWAP1 POP JUMP JUMPDEST DUP3 DUP2 DUP4 CALLDATACOPY PUSH1 0x0 DUP4 DUP4 ADD MSTORE POP POP POP JUMP JUMPDEST PUSH1 0x0 PUSH2 0x3A7 PUSH2 0x3A2 DUP5 PUSH2 0x354 JUMP JUMPDEST PUSH2 0x339 JUMP JUMPDEST SWAP1 POP DUP3 DUP2 MSTORE PUSH1 0x20 DUP2 ADD DUP5 DUP5 DUP5 ADD GT ISZERO PUSH2 0x3C3 JUMPI PUSH2 0x3C2 PUSH2 0x2C3 JUMP JUMPDEST JUMPDEST PUSH2 0x3CE DUP5 DUP3 DUP6 PUSH2 0x385 JUMP JUMPDEST POP SWAP4 SWAP3 POP POP POP JUMP JUMPDEST PUSH1 0x0 DUP3 PUSH1 0x1F DUP4 ADD SLT PUSH2 0x3EB JUMPI PUSH2 0x3EA PUSH2 0x2BE JUMP JUMPDEST JUMPDEST DUP2 CALLDATALOAD PUSH2 0x3FB DUP5 DUP3 PUSH1 0x20 DUP7 ADD PUSH2 0x394 JUMP JUMPDEST SWAP2 POP POP SWAP3 SWAP2 POP POP JUMP JUMPDEST PUSH1 0x0 PUSH16 0xFFFFFFFFFFFFFFFFFFFFFFFFFFFFFFFF DUP3 AND SWAP1 POP SWAP2 SWAP1 POP JUMP JUMPDEST PUSH2 0x429 DUP2 PUSH2 0x404 JUMP JUMPDEST DUP2 EQ PUSH2 0x434 JUMPI PUSH1 0x0 DUP1 REVERT JUMPDEST POP JUMP JUMPDEST PUSH1 0x0 DUP2 CALLDATALOAD SWAP1 POP PUSH2 0x446 DUP2 PUSH2 0x420 JUMP JUMPDEST SWAP3 SWAP2 POP POP JUMP JUMPDEST PUSH1 0x0 DUP1 PUSH1 0x40 DUP4 DUP6 SUB SLT ISZERO PUSH2 0x463 JUMPI PUSH2 0x462 PUSH2 0x2B4 JUMP JUMPDEST JUMPDEST PUSH1 0x0 DUP4 ADD CALLDATALOAD PUSH8 0xFFFFFFFFFFFFFFFF DUP2 GT ISZERO PUSH2 0x481 JUMPI PUSH2 0x480 PUSH2 0x2B9 JUMP JUMPDEST JUMPDEST PUSH2 0x48D DUP6 DUP3 DUP7 ADD PUSH2 0x3D6 JUMP JUMPDEST SWAP3 POP POP PUSH1 0x20 PUSH2 0x49E DUP6 DUP3 DUP7 ADD PUSH2 0x437 JUMP JUMPDEST SWAP2 POP POP SWAP3 POP SWAP3 SWAP1 POP JUMP JUMPDEST PUSH1 0x0 DUP2 SWAP1 POP SWAP2 SWAP1 POP JUMP JUMPDEST PUSH2 0x4BB DUP2 PUSH2 0x4A8 JUMP JUMPDEST DUP2 EQ PUSH2 0x4C6 JUMPI PUSH1 0x0 DUP1 REVERT JUMPDEST POP JUMP JUMPDEST PUSH1 0x0 DUP2 CALLDATALOAD SWAP1 POP PUSH2 0x4D8 DUP2 PUSH2 0x4B2 JUMP JUMPDEST SWAP3 SWAP2 POP POP JUMP JUMPDEST PUSH1 0x0 PUSH1 0x20 DUP3 DUP5 SUB SLT ISZERO PUSH2 0x4F4 JUMPI PUSH2 0x4F3 PUSH2 0x2B4 JUMP JUMPDEST JUMPDEST PUSH1 0x0 PUSH2 0x502 DUP5 DUP3 DUP6 ADD PUSH2 0x4C9 JUMP JUMPDEST SWAP2 POP POP SWAP3 SWAP2 POP POP JUMP JUMPDEST PUSH1 0x0 DUP2 MLOAD SWAP1 POP SWAP2 SWAP1 POP JUMP JUMPDEST PUSH1 0x0 DUP3 DUP3 MSTORE PUSH1 0x20 DUP3 ADD SWAP1 POP SWAP3 SWAP2 POP POP JUMP JUMPDEST PUSH1 0x0 JUMPDEST DUP4 DUP2 LT ISZERO PUSH2 0x545 JUMPI DUP1 DUP3 ADD MLOAD DUP2 DUP5 ADD MSTORE PUSH1 0x20 DUP2 ADD SWAP1 POP PUSH2 0x52A JUMP JUMPDEST DUP4 DUP2 GT ISZERO PUSH2 0x554 JUMPI PUSH1 0x0 DUP5 DUP5 ADD MSTORE JUMPDEST POP POP POP POP JUMP JUMPDEST PUSH1 0x0 PUSH2 0x565 DUP3 PUSH2 0x50B JUMP JUMPDEST PUSH2 0x56F DUP2 DUP6 PUSH2 0x516 JUMP JUMPDEST SWAP4 POP PUSH2 0x57F DUP2 DUP6 PUSH1 0x20 DUP7 ADD PUSH2 0x527 JUMP JUMPDEST PUSH2 0x588 DUP2 PUSH2 0x2C8 JUMP JUMPDEST DUP5 ADD SWAP2 POP POP SWAP3 SWAP2 POP POP JUMP JUMPDEST PUSH2 0x59C DUP2 PUSH2 0x404 JUMP JUMPDEST DUP3 MSTORE POP POP JUMP JUMPDEST PUSH1 0x0 PUSH1 0x40 DUP3 ADD SWAP1 POP DUP2 DUP2 SUB PUSH1 0x0 DUP4 ADD MSTORE PUSH2 0x5BC DUP2 DUP6 PUSH2 0x55A JUMP JUMPDEST SWAP1 POP PUSH2 0x5CB PUSH1 0x20 DUP4 ADD DUP5 PUSH2 0x593 JUMP JUMPDEST SWAP4 SWAP3 POP POP POP JUMP JUMPDEST PUSH32 0x4E487B7100000000000000000000000000000000000000000000000000000000 PUSH1 0x0 MSTORE PUSH1 0x11 PUSH1 0x4 MSTORE PUSH1 0x24 PUSH1 0x0 REVERT JUMPDEST PUSH1 0x0 PUSH2 0x60C DUP3 PUSH2 0x4A8 JUMP JUMPDEST SWAP2 POP PUSH2 0x617 DUP4 PUSH2 0x4A8 JUMP JUMPDEST SWAP3 POP DUP3 PUSH32 0xFFFFFFFFFFFFFFFFFFFFFFFFFFFFFFFFFFFFFFFFFFFFFFFFFFFFFFFFFFFFFFFF SUB DUP3 GT ISZERO PUSH2 0x64C JUMPI PUSH2 0x64B PUSH2 0x5D2 JUMP JUMPDEST JUMPDEST DUP3 DUP3 ADD SWAP1 POP SWAP3 SWAP2 POP POP JUMP JUMPDEST PUSH32 0x4E487B7100000000000000000000000000000000000000000000000000000000 PUSH1 0x0 MSTORE PUSH1 0x22 PUSH1 0x4 MSTORE PUSH1 0x24 PUSH1 0x0 REVERT JUMPDEST PUSH1 0x0 PUSH1 0x2 DUP3 DIV SWAP1 POP PUSH1 0x1 DUP3 AND DUP1 PUSH2 0x69E JUMPI PUSH1 0x7F DUP3 AND SWAP2 POP JUMPDEST PUSH1 0x20 DUP3 LT DUP2 SUB PUSH2 0x6B1 JUMPI PUSH2 0x6B0 PUSH2 0x657 JUMP JUMPDEST JUMPDEST POP SWAP2 SWAP1 POP JUMP INVALID LOG2 PUSH5 0x6970667358 0x22 SLT KECCAK256 0xBE RETURNDATASIZE 0xC6 PUSH9 0x4E2B77C8E300716126 ISZERO 0xE DIFFICULTY 0xD 0xDE ADDRESS 0xE2 0xC DUP2 0x27 0xC2 DUP8 0xD3 SWAP3 0xD4 PUSH21 0x8B885564736F6C634300080D003300000000000000 "
				},
				"gasEstimates": {
					"creation": {
						"codeDepositCost": "354600",
						"executionCost": "5399",
						"totalCost": "359999"
					},
					"external": {
						"addCar(string,uint128)": "infinite",
						"cars(uint256)": "infinite"
					}
				},
				"methodIdentifiers": {
					"addCar(string,uint128)": "8bbecbae",
					"cars(uint256)": "f7746e36"
				}
			},
			"storageLayout": {
				"storage": [
					{
						"astId": 9,
						"contract": "contracts/Mycontract.sol:MyContract",
						"label": "numberOfCars",
						"offset": 0,
						"slot": "0",
						"type": "t_uint256"
					},
					{
						"astId": 14,
						"contract": "contracts/Mycontract.sol:MyContract",
						"label": "cars",
						"offset": 0,
						"slot": "1",
						"type": "t_mapping(t_uint256,t_struct(Car)6_storage)"
					}
				],
				"types": {
					"t_mapping(t_uint256,t_struct(Car)6_storage)": {
						"encoding": "mapping",
						"key": "t_uint256",
						"label": "mapping(uint256 => struct MyContract.Car)",
						"numberOfBytes": "32",
						"value": "t_struct(Car)6_storage"
					},
					"t_string_storage": {
						"encoding": "bytes",
						"label": "string",
						"numberOfBytes": "32"
					},
					"t_struct(Car)6_storage": {
						"encoding": "inplace",
						"label": "struct MyContract.Car",
						"members": [
							{
								"astId": 3,
								"contract": "contracts/Mycontract.sol:MyContract",
								"label": "name",
								"offset": 0,
								"slot": "0",
								"type": "t_string_storage"
							},
							{
								"astId": 5,
								"contract": "contracts/Mycontract.sol:MyContract",
								"label": "price",
								"offset": 0,
								"slot": "1",
								"type": "t_uint128"
							}
						],
						"numberOfBytes": "64"
					},
					"t_uint128": {
						"encoding": "inplace",
						"label": "uint128",
						"numberOfBytes": "16"
					},
					"t_uint256": {
						"encoding": "inplace",
						"label": "uint256",
						"numberOfBytes": "32"
					}
				}
			},
			"userdoc": {
				"kind": "user",
				"methods": {},
				"version": 1
			}
		}
	}
}