{
	"contracts/Mycontract.sol": {
		"MyContract": {
			"abi": [
				{
					"inputs": [
						{
							"internalType": "string",
							"name": "_name",
							"type": "string"
						},
						{
							"internalType": "uint16",
							"name": "_price",
							"type": "uint16"
						}
					],
					"name": "addCar",
					"outputs": [],
					"stateMutability": "nonpayable",
					"type": "function"
				},
				{
					"inputs": [
						{
							"internalType": "uint256",
							"name": "",
							"type": "uint256"
						}
					],
					"name": "cars",
					"outputs": [
						{
							"internalType": "string",
							"name": "name",
							"type": "string"
						},
						{
							"internalType": "uint16",
							"name": "price",
							"type": "uint16"
						}
					],
					"stateMutability": "view",
					"type": "function"
				}
			],
			"devdoc": {
				"kind": "dev",
				"methods": {},
				"version": 1
			},
			"evm": {
				"assembly": "    /* \"contracts/Mycontract.sol\":26:332  contract MyContract {... */\n  mstore(0x40, 0x80)\n  callvalue\n  dup1\n  iszero\n  tag_1\n  jumpi\n  0x00\n  dup1\n  revert\ntag_1:\n  pop\n  dataSize(sub_0)\n  dup1\n  dataOffset(sub_0)\n  0x00\n  codecopy\n  0x00\n  return\nstop\n\nsub_0: assembly {\n        /* \"contracts/Mycontract.sol\":26:332  contract MyContract {... */\n      mstore(0x40, 0x80)\n      callvalue\n      dup1\n      iszero\n      tag_1\n      jumpi\n      0x00\n      dup1\n      revert\n    tag_1:\n      pop\n      jumpi(tag_2, lt(calldatasize, 0x04))\n      shr(0xe0, calldataload(0x00))\n      dup1\n      0xaba3b91b\n      eq\n      tag_3\n      jumpi\n      dup1\n      0xf7746e36\n      eq\n      tag_4\n      jumpi\n    tag_2:\n      0x00\n      dup1\n      revert\n        /* \"contracts/Mycontract.sol\":143:329  function addCar(string memory _name, uint16 _price) public {... */\n    tag_3:\n      tag_5\n      0x04\n      dup1\n      calldatasize\n      sub\n      dup2\n      add\n      swap1\n      tag_6\n      swap2\n      swap1\n      tag_7\n      jump\t// in\n    tag_6:\n      tag_8\n      jump\t// in\n    tag_5:\n      stop\n        /* \"contracts/Mycontract.sol\":119:136  Car[] public cars */\n    tag_4:\n      tag_9\n      0x04\n      dup1\n      calldatasize\n      sub\n      dup2\n      add\n      swap1\n      tag_10\n      swap2\n      swap1\n      tag_11\n      jump\t// in\n    tag_10:\n      tag_12\n      jump\t// in\n    tag_9:\n      mload(0x40)\n      tag_13\n      swap3\n      swap2\n      swap1\n      tag_14\n      jump\t// in\n    tag_13:\n      mload(0x40)\n      dup1\n      swap2\n      sub\n      swap1\n      return\n        /* \"contracts/Mycontract.sol\":143:329  function addCar(string memory _name, uint16 _price) public {... */\n    tag_8:\n        /* \"contracts/Mycontract.sol\":292:296  cars */\n      0x00\n        /* \"contracts/Mycontract.sol\":302:321  Car(_name , _price) */\n      mload(0x40)\n      dup1\n      0x40\n      add\n      0x40\n      mstore\n      dup1\n        /* \"contracts/Mycontract.sol\":306:311  _name */\n      dup5\n        /* \"contracts/Mycontract.sol\":302:321  Car(_name , _price) */\n      dup2\n      mstore\n      0x20\n      add\n        /* \"contracts/Mycontract.sol\":314:320  _price */\n      dup4\n        /* \"contracts/Mycontract.sol\":302:321  Car(_name , _price) */\n      0xffff\n      and\n      dup2\n      mstore\n      pop\n        /* \"contracts/Mycontract.sol\":292:322  cars.push(Car(_name , _price)) */\n      swap1\n      dup1\n      0x01\n      dup2\n      sload\n      add\n      dup1\n      dup3\n      sstore\n      dup1\n      swap2\n      pop\n      pop\n      0x01\n      swap1\n      sub\n      swap1\n      0x00\n      mstore\n      keccak256(0x00, 0x20)\n      swap1\n      0x02\n      mul\n      add\n      0x00\n      swap1\n      swap2\n      swap1\n      swap2\n      swap1\n      swap2\n      pop\n      0x00\n      dup3\n      add\n      mload\n      dup2\n      0x00\n      add\n      swap1\n      dup1\n      mload\n      swap1\n      0x20\n      add\n      swap1\n      tag_17\n      swap3\n      swap2\n      swap1\n      tag_18\n      jump\t// in\n    tag_17:\n      pop\n      0x20\n      dup3\n      add\n      mload\n      dup2\n      0x01\n      add\n      exp(0x0100, 0x00)\n      dup2\n      sload\n      dup2\n      0xffff\n      mul\n      not\n      and\n      swap1\n      dup4\n      0xffff\n      and\n      mul\n      or\n      swap1\n      sstore\n      pop\n      pop\n      pop\n        /* \"contracts/Mycontract.sol\":143:329  function addCar(string memory _name, uint16 _price) public {... */\n      pop\n      pop\n      jump\t// out\n        /* \"contracts/Mycontract.sol\":119:136  Car[] public cars */\n    tag_12:\n      0x00\n      dup2\n      dup2\n      sload\n      dup2\n      lt\n      tag_19\n      jumpi\n      0x00\n      dup1\n      revert\n    tag_19:\n      swap1\n      0x00\n      mstore\n      keccak256(0x00, 0x20)\n      swap1\n      0x02\n      mul\n      add\n      0x00\n      swap2\n      pop\n      swap1\n      pop\n      dup1\n      0x00\n      add\n      dup1\n      sload\n      tag_21\n      swap1\n      tag_22\n      jump\t// in\n    tag_21:\n      dup1\n      0x1f\n      add\n      0x20\n      dup1\n      swap2\n      div\n      mul\n      0x20\n      add\n      mload(0x40)\n      swap1\n      dup2\n      add\n      0x40\n      mstore\n      dup1\n      swap3\n      swap2\n      swap1\n      dup2\n      dup2\n      mstore\n      0x20\n      add\n      dup3\n      dup1\n      sload\n      tag_23\n      swap1\n      tag_22\n      jump\t// in\n    tag_23:\n      dup1\n      iszero\n      tag_24\n      jumpi\n      dup1\n      0x1f\n      lt\n      tag_25\n      jumpi\n      0x0100\n      dup1\n      dup4\n      sload\n      div\n      mul\n      dup4\n      mstore\n      swap2\n      0x20\n      add\n      swap2\n      jump(tag_24)\n    tag_25:\n      dup3\n      add\n      swap2\n      swap1\n      0x00\n      mstore\n      keccak256(0x00, 0x20)\n      swap1\n    tag_26:\n      dup2\n      sload\n      dup2\n      mstore\n      swap1\n      0x01\n      add\n      swap1\n      0x20\n      add\n      dup1\n      dup4\n      gt\n      tag_26\n      jumpi\n      dup3\n      swap1\n      sub\n      0x1f\n      and\n      dup3\n      add\n      swap2\n    tag_24:\n      pop\n      pop\n      pop\n      pop\n      pop\n      swap1\n      dup1\n      0x01\n      add\n      0x00\n      swap1\n      sload\n      swap1\n      0x0100\n      exp\n      swap1\n      div\n      0xffff\n      and\n      swap1\n      pop\n      dup3\n      jump\t// out\n    tag_18:\n      dup3\n      dup1\n      sload\n      tag_27\n      swap1\n      tag_22\n      jump\t// in\n    tag_27:\n      swap1\n      0x00\n      mstore\n      keccak256(0x00, 0x20)\n      swap1\n      0x1f\n      add\n      0x20\n      swap1\n      div\n      dup2\n      add\n      swap3\n      dup3\n      tag_29\n      jumpi\n      0x00\n      dup6\n      sstore\n      jump(tag_28)\n    tag_29:\n      dup3\n      0x1f\n      lt\n      tag_30\n      jumpi\n      dup1\n      mload\n      not(0xff)\n      and\n      dup4\n      dup1\n      add\n      or\n      dup6\n      sstore\n      jump(tag_28)\n    tag_30:\n      dup3\n      dup1\n      add\n      0x01\n      add\n      dup6\n      sstore\n      dup3\n      iszero\n      tag_28\n      jumpi\n      swap2\n      dup3\n      add\n    tag_31:\n      dup3\n      dup2\n      gt\n      iszero\n      tag_32\n      jumpi\n      dup3\n      mload\n      dup3\n      sstore\n      swap2\n      0x20\n      add\n      swap2\n      swap1\n      0x01\n      add\n      swap1\n      jump(tag_31)\n    tag_32:\n    tag_28:\n      pop\n      swap1\n      pop\n      tag_33\n      swap2\n      swap1\n      tag_34\n      jump\t// in\n    tag_33:\n      pop\n      swap1\n      jump\t// out\n    tag_34:\n    tag_35:\n      dup1\n      dup3\n      gt\n      iszero\n      tag_36\n      jumpi\n      0x00\n      dup2\n      0x00\n      swap1\n      sstore\n      pop\n      0x01\n      add\n      jump(tag_35)\n    tag_36:\n      pop\n      swap1\n      jump\t// out\n        /* \"#utility.yul\":7:82   */\n    tag_37:\n        /* \"#utility.yul\":40:46   */\n      0x00\n        /* \"#utility.yul\":73:75   */\n      0x40\n        /* \"#utility.yul\":67:76   */\n      mload\n        /* \"#utility.yul\":57:76   */\n      swap1\n      pop\n        /* \"#utility.yul\":7:82   */\n      swap1\n      jump\t// out\n        /* \"#utility.yul\":88:205   */\n    tag_38:\n        /* \"#utility.yul\":197:198   */\n      0x00\n        /* \"#utility.yul\":194:195   */\n      dup1\n        /* \"#utility.yul\":187:199   */\n      revert\n        /* \"#utility.yul\":211:328   */\n    tag_39:\n        /* \"#utility.yul\":320:321   */\n      0x00\n        /* \"#utility.yul\":317:318   */\n      dup1\n        /* \"#utility.yul\":310:322   */\n      revert\n        /* \"#utility.yul\":334:451   */\n    tag_40:\n        /* \"#utility.yul\":443:444   */\n      0x00\n        /* \"#utility.yul\":440:441   */\n      dup1\n        /* \"#utility.yul\":433:445   */\n      revert\n        /* \"#utility.yul\":457:574   */\n    tag_41:\n        /* \"#utility.yul\":566:567   */\n      0x00\n        /* \"#utility.yul\":563:564   */\n      dup1\n        /* \"#utility.yul\":556:568   */\n      revert\n        /* \"#utility.yul\":580:682   */\n    tag_42:\n        /* \"#utility.yul\":621:627   */\n      0x00\n        /* \"#utility.yul\":672:674   */\n      0x1f\n        /* \"#utility.yul\":668:675   */\n      not\n        /* \"#utility.yul\":663:665   */\n      0x1f\n        /* \"#utility.yul\":656:661   */\n      dup4\n        /* \"#utility.yul\":652:666   */\n      add\n        /* \"#utility.yul\":648:676   */\n      and\n        /* \"#utility.yul\":638:676   */\n      swap1\n      pop\n        /* \"#utility.yul\":580:682   */\n      swap2\n      swap1\n      pop\n      jump\t// out\n        /* \"#utility.yul\":688:868   */\n    tag_43:\n        /* \"#utility.yul\":736:813   */\n      0x4e487b7100000000000000000000000000000000000000000000000000000000\n        /* \"#utility.yul\":733:734   */\n      0x00\n        /* \"#utility.yul\":726:814   */\n      mstore\n        /* \"#utility.yul\":833:837   */\n      0x41\n        /* \"#utility.yul\":830:831   */\n      0x04\n        /* \"#utility.yul\":823:838   */\n      mstore\n        /* \"#utility.yul\":857:861   */\n      0x24\n        /* \"#utility.yul\":854:855   */\n      0x00\n        /* \"#utility.yul\":847:862   */\n      revert\n        /* \"#utility.yul\":874:1155   */\n    tag_44:\n        /* \"#utility.yul\":957:984   */\n      tag_71\n        /* \"#utility.yul\":979:983   */\n      dup3\n        /* \"#utility.yul\":957:984   */\n      tag_42\n      jump\t// in\n    tag_71:\n        /* \"#utility.yul\":949:955   */\n      dup2\n        /* \"#utility.yul\":945:985   */\n      add\n        /* \"#utility.yul\":1087:1093   */\n      dup2\n        /* \"#utility.yul\":1075:1085   */\n      dup2\n        /* \"#utility.yul\":1072:1094   */\n      lt\n        /* \"#utility.yul\":1051:1069   */\n      0xffffffffffffffff\n        /* \"#utility.yul\":1039:1049   */\n      dup3\n        /* \"#utility.yul\":1036:1070   */\n      gt\n        /* \"#utility.yul\":1033:1095   */\n      or\n        /* \"#utility.yul\":1030:1118   */\n      iszero\n      tag_72\n      jumpi\n        /* \"#utility.yul\":1098:1116   */\n      tag_73\n      tag_43\n      jump\t// in\n    tag_73:\n        /* \"#utility.yul\":1030:1118   */\n    tag_72:\n        /* \"#utility.yul\":1138:1148   */\n      dup1\n        /* \"#utility.yul\":1134:1136   */\n      0x40\n        /* \"#utility.yul\":1127:1149   */\n      mstore\n        /* \"#utility.yul\":917:1155   */\n      pop\n        /* \"#utility.yul\":874:1155   */\n      pop\n      pop\n      jump\t// out\n        /* \"#utility.yul\":1161:1290   */\n    tag_45:\n        /* \"#utility.yul\":1195:1201   */\n      0x00\n        /* \"#utility.yul\":1222:1242   */\n      tag_75\n      tag_37\n      jump\t// in\n    tag_75:\n        /* \"#utility.yul\":1212:1242   */\n      swap1\n      pop\n        /* \"#utility.yul\":1251:1284   */\n      tag_76\n        /* \"#utility.yul\":1279:1283   */\n      dup3\n        /* \"#utility.yul\":1271:1277   */\n      dup3\n        /* \"#utility.yul\":1251:1284   */\n      tag_44\n      jump\t// in\n    tag_76:\n        /* \"#utility.yul\":1161:1290   */\n      swap2\n      swap1\n      pop\n      jump\t// out\n        /* \"#utility.yul\":1296:1604   */\n    tag_46:\n        /* \"#utility.yul\":1358:1362   */\n      0x00\n        /* \"#utility.yul\":1448:1466   */\n      0xffffffffffffffff\n        /* \"#utility.yul\":1440:1446   */\n      dup3\n        /* \"#utility.yul\":1437:1467   */\n      gt\n        /* \"#utility.yul\":1434:1490   */\n      iszero\n      tag_78\n      jumpi\n        /* \"#utility.yul\":1470:1488   */\n      tag_79\n      tag_43\n      jump\t// in\n    tag_79:\n        /* \"#utility.yul\":1434:1490   */\n    tag_78:\n        /* \"#utility.yul\":1508:1537   */\n      tag_80\n        /* \"#utility.yul\":1530:1536   */\n      dup3\n        /* \"#utility.yul\":1508:1537   */\n      tag_42\n      jump\t// in\n    tag_80:\n        /* \"#utility.yul\":1500:1537   */\n      swap1\n      pop\n        /* \"#utility.yul\":1592:1596   */\n      0x20\n        /* \"#utility.yul\":1586:1590   */\n      dup2\n        /* \"#utility.yul\":1582:1597   */\n      add\n        /* \"#utility.yul\":1574:1597   */\n      swap1\n      pop\n        /* \"#utility.yul\":1296:1604   */\n      swap2\n      swap1\n      pop\n      jump\t// out\n        /* \"#utility.yul\":1610:1764   */\n    tag_47:\n        /* \"#utility.yul\":1694:1700   */\n      dup3\n        /* \"#utility.yul\":1689:1692   */\n      dup2\n        /* \"#utility.yul\":1684:1687   */\n      dup4\n        /* \"#utility.yul\":1671:1701   */\n      calldatacopy\n        /* \"#utility.yul\":1756:1757   */\n      0x00\n        /* \"#utility.yul\":1747:1753   */\n      dup4\n        /* \"#utility.yul\":1742:1745   */\n      dup4\n        /* \"#utility.yul\":1738:1754   */\n      add\n        /* \"#utility.yul\":1731:1758   */\n      mstore\n        /* \"#utility.yul\":1610:1764   */\n      pop\n      pop\n      pop\n      jump\t// out\n        /* \"#utility.yul\":1770:2182   */\n    tag_48:\n        /* \"#utility.yul\":1848:1853   */\n      0x00\n        /* \"#utility.yul\":1873:1939   */\n      tag_83\n        /* \"#utility.yul\":1889:1938   */\n      tag_84\n        /* \"#utility.yul\":1931:1937   */\n      dup5\n        /* \"#utility.yul\":1889:1938   */\n      tag_46\n      jump\t// in\n    tag_84:\n        /* \"#utility.yul\":1873:1939   */\n      tag_45\n      jump\t// in\n    tag_83:\n        /* \"#utility.yul\":1864:1939   */\n      swap1\n      pop\n        /* \"#utility.yul\":1962:1968   */\n      dup3\n        /* \"#utility.yul\":1955:1960   */\n      dup2\n        /* \"#utility.yul\":1948:1969   */\n      mstore\n        /* \"#utility.yul\":2000:2004   */\n      0x20\n        /* \"#utility.yul\":1993:1998   */\n      dup2\n        /* \"#utility.yul\":1989:2005   */\n      add\n        /* \"#utility.yul\":2038:2041   */\n      dup5\n        /* \"#utility.yul\":2029:2035   */\n      dup5\n        /* \"#utility.yul\":2024:2027   */\n      dup5\n        /* \"#utility.yul\":2020:2036   */\n      add\n        /* \"#utility.yul\":2017:2042   */\n      gt\n        /* \"#utility.yul\":2014:2126   */\n      iszero\n      tag_85\n      jumpi\n        /* \"#utility.yul\":2045:2124   */\n      tag_86\n      tag_41\n      jump\t// in\n    tag_86:\n        /* \"#utility.yul\":2014:2126   */\n    tag_85:\n        /* \"#utility.yul\":2135:2176   */\n      tag_87\n        /* \"#utility.yul\":2169:2175   */\n      dup5\n        /* \"#utility.yul\":2164:2167   */\n      dup3\n        /* \"#utility.yul\":2159:2162   */\n      dup6\n        /* \"#utility.yul\":2135:2176   */\n      tag_47\n      jump\t// in\n    tag_87:\n        /* \"#utility.yul\":1854:2182   */\n      pop\n        /* \"#utility.yul\":1770:2182   */\n      swap4\n      swap3\n      pop\n      pop\n      pop\n      jump\t// out\n        /* \"#utility.yul\":2202:2542   */\n    tag_49:\n        /* \"#utility.yul\":2258:2263   */\n      0x00\n        /* \"#utility.yul\":2307:2310   */\n      dup3\n        /* \"#utility.yul\":2300:2304   */\n      0x1f\n        /* \"#utility.yul\":2292:2298   */\n      dup4\n        /* \"#utility.yul\":2288:2305   */\n      add\n        /* \"#utility.yul\":2284:2311   */\n      slt\n        /* \"#utility.yul\":2274:2396   */\n      tag_89\n      jumpi\n        /* \"#utility.yul\":2315:2394   */\n      tag_90\n      tag_40\n      jump\t// in\n    tag_90:\n        /* \"#utility.yul\":2274:2396   */\n    tag_89:\n        /* \"#utility.yul\":2432:2438   */\n      dup2\n        /* \"#utility.yul\":2419:2439   */\n      calldataload\n        /* \"#utility.yul\":2457:2536   */\n      tag_91\n        /* \"#utility.yul\":2532:2535   */\n      dup5\n        /* \"#utility.yul\":2524:2530   */\n      dup3\n        /* \"#utility.yul\":2517:2521   */\n      0x20\n        /* \"#utility.yul\":2509:2515   */\n      dup7\n        /* \"#utility.yul\":2505:2522   */\n      add\n        /* \"#utility.yul\":2457:2536   */\n      tag_48\n      jump\t// in\n    tag_91:\n        /* \"#utility.yul\":2448:2536   */\n      swap2\n      pop\n        /* \"#utility.yul\":2264:2542   */\n      pop\n        /* \"#utility.yul\":2202:2542   */\n      swap3\n      swap2\n      pop\n      pop\n      jump\t// out\n        /* \"#utility.yul\":2548:2637   */\n    tag_50:\n        /* \"#utility.yul\":2584:2591   */\n      0x00\n        /* \"#utility.yul\":2624:2630   */\n      0xffff\n        /* \"#utility.yul\":2617:2622   */\n      dup3\n        /* \"#utility.yul\":2613:2631   */\n      and\n        /* \"#utility.yul\":2602:2631   */\n      swap1\n      pop\n        /* \"#utility.yul\":2548:2637   */\n      swap2\n      swap1\n      pop\n      jump\t// out\n        /* \"#utility.yul\":2643:2763   */\n    tag_51:\n        /* \"#utility.yul\":2715:2738   */\n      tag_94\n        /* \"#utility.yul\":2732:2737   */\n      dup2\n        /* \"#utility.yul\":2715:2738   */\n      tag_50\n      jump\t// in\n    tag_94:\n        /* \"#utility.yul\":2708:2713   */\n      dup2\n        /* \"#utility.yul\":2705:2739   */\n      eq\n        /* \"#utility.yul\":2695:2757   */\n      tag_95\n      jumpi\n        /* \"#utility.yul\":2753:2754   */\n      0x00\n        /* \"#utility.yul\":2750:2751   */\n      dup1\n        /* \"#utility.yul\":2743:2755   */\n      revert\n        /* \"#utility.yul\":2695:2757   */\n    tag_95:\n        /* \"#utility.yul\":2643:2763   */\n      pop\n      jump\t// out\n        /* \"#utility.yul\":2769:2906   */\n    tag_52:\n        /* \"#utility.yul\":2814:2819   */\n      0x00\n        /* \"#utility.yul\":2852:2858   */\n      dup2\n        /* \"#utility.yul\":2839:2859   */\n      calldataload\n        /* \"#utility.yul\":2830:2859   */\n      swap1\n      pop\n        /* \"#utility.yul\":2868:2900   */\n      tag_97\n        /* \"#utility.yul\":2894:2899   */\n      dup2\n        /* \"#utility.yul\":2868:2900   */\n      tag_51\n      jump\t// in\n    tag_97:\n        /* \"#utility.yul\":2769:2906   */\n      swap3\n      swap2\n      pop\n      pop\n      jump\t// out\n        /* \"#utility.yul\":2912:3564   */\n    tag_7:\n        /* \"#utility.yul\":2989:2995   */\n      0x00\n        /* \"#utility.yul\":2997:3003   */\n      dup1\n        /* \"#utility.yul\":3046:3048   */\n      0x40\n        /* \"#utility.yul\":3034:3043   */\n      dup4\n        /* \"#utility.yul\":3025:3032   */\n      dup6\n        /* \"#utility.yul\":3021:3044   */\n      sub\n        /* \"#utility.yul\":3017:3049   */\n      slt\n        /* \"#utility.yul\":3014:3133   */\n      iszero\n      tag_99\n      jumpi\n        /* \"#utility.yul\":3052:3131   */\n      tag_100\n      tag_38\n      jump\t// in\n    tag_100:\n        /* \"#utility.yul\":3014:3133   */\n    tag_99:\n        /* \"#utility.yul\":3200:3201   */\n      0x00\n        /* \"#utility.yul\":3189:3198   */\n      dup4\n        /* \"#utility.yul\":3185:3202   */\n      add\n        /* \"#utility.yul\":3172:3203   */\n      calldataload\n        /* \"#utility.yul\":3230:3248   */\n      0xffffffffffffffff\n        /* \"#utility.yul\":3222:3228   */\n      dup2\n        /* \"#utility.yul\":3219:3249   */\n      gt\n        /* \"#utility.yul\":3216:3333   */\n      iszero\n      tag_101\n      jumpi\n        /* \"#utility.yul\":3252:3331   */\n      tag_102\n      tag_39\n      jump\t// in\n    tag_102:\n        /* \"#utility.yul\":3216:3333   */\n    tag_101:\n        /* \"#utility.yul\":3357:3420   */\n      tag_103\n        /* \"#utility.yul\":3412:3419   */\n      dup6\n        /* \"#utility.yul\":3403:3409   */\n      dup3\n        /* \"#utility.yul\":3392:3401   */\n      dup7\n        /* \"#utility.yul\":3388:3410   */\n      add\n        /* \"#utility.yul\":3357:3420   */\n      tag_49\n      jump\t// in\n    tag_103:\n        /* \"#utility.yul\":3347:3420   */\n      swap3\n      pop\n        /* \"#utility.yul\":3143:3430   */\n      pop\n        /* \"#utility.yul\":3469:3471   */\n      0x20\n        /* \"#utility.yul\":3495:3547   */\n      tag_104\n        /* \"#utility.yul\":3539:3546   */\n      dup6\n        /* \"#utility.yul\":3530:3536   */\n      dup3\n        /* \"#utility.yul\":3519:3528   */\n      dup7\n        /* \"#utility.yul\":3515:3537   */\n      add\n        /* \"#utility.yul\":3495:3547   */\n      tag_52\n      jump\t// in\n    tag_104:\n        /* \"#utility.yul\":3485:3547   */\n      swap2\n      pop\n        /* \"#utility.yul\":3440:3557   */\n      pop\n        /* \"#utility.yul\":2912:3564   */\n      swap3\n      pop\n      swap3\n      swap1\n      pop\n      jump\t// out\n        /* \"#utility.yul\":3570:3647   */\n    tag_53:\n        /* \"#utility.yul\":3607:3614   */\n      0x00\n        /* \"#utility.yul\":3636:3641   */\n      dup2\n        /* \"#utility.yul\":3625:3641   */\n      swap1\n      pop\n        /* \"#utility.yul\":3570:3647   */\n      swap2\n      swap1\n      pop\n      jump\t// out\n        /* \"#utility.yul\":3653:3775   */\n    tag_54:\n        /* \"#utility.yul\":3726:3750   */\n      tag_107\n        /* \"#utility.yul\":3744:3749   */\n      dup2\n        /* \"#utility.yul\":3726:3750   */\n      tag_53\n      jump\t// in\n    tag_107:\n        /* \"#utility.yul\":3719:3724   */\n      dup2\n        /* \"#utility.yul\":3716:3751   */\n      eq\n        /* \"#utility.yul\":3706:3769   */\n      tag_108\n      jumpi\n        /* \"#utility.yul\":3765:3766   */\n      0x00\n        /* \"#utility.yul\":3762:3763   */\n      dup1\n        /* \"#utility.yul\":3755:3767   */\n      revert\n        /* \"#utility.yul\":3706:3769   */\n    tag_108:\n        /* \"#utility.yul\":3653:3775   */\n      pop\n      jump\t// out\n        /* \"#utility.yul\":3781:3920   */\n    tag_55:\n        /* \"#utility.yul\":3827:3832   */\n      0x00\n        /* \"#utility.yul\":3865:3871   */\n      dup2\n        /* \"#utility.yul\":3852:3872   */\n      calldataload\n        /* \"#utility.yul\":3843:3872   */\n      swap1\n      pop\n        /* \"#utility.yul\":3881:3914   */\n      tag_110\n        /* \"#utility.yul\":3908:3913   */\n      dup2\n        /* \"#utility.yul\":3881:3914   */\n      tag_54\n      jump\t// in\n    tag_110:\n        /* \"#utility.yul\":3781:3920   */\n      swap3\n      swap2\n      pop\n      pop\n      jump\t// out\n        /* \"#utility.yul\":3926:4255   */\n    tag_11:\n        /* \"#utility.yul\":3985:3991   */\n      0x00\n        /* \"#utility.yul\":4034:4036   */\n      0x20\n        /* \"#utility.yul\":4022:4031   */\n      dup3\n        /* \"#utility.yul\":4013:4020   */\n      dup5\n        /* \"#utility.yul\":4009:4032   */\n      sub\n        /* \"#utility.yul\":4005:4037   */\n      slt\n        /* \"#utility.yul\":4002:4121   */\n      iszero\n      tag_112\n      jumpi\n        /* \"#utility.yul\":4040:4119   */\n      tag_113\n      tag_38\n      jump\t// in\n    tag_113:\n        /* \"#utility.yul\":4002:4121   */\n    tag_112:\n        /* \"#utility.yul\":4160:4161   */\n      0x00\n        /* \"#utility.yul\":4185:4238   */\n      tag_114\n        /* \"#utility.yul\":4230:4237   */\n      dup5\n        /* \"#utility.yul\":4221:4227   */\n      dup3\n        /* \"#utility.yul\":4210:4219   */\n      dup6\n        /* \"#utility.yul\":4206:4228   */\n      add\n        /* \"#utility.yul\":4185:4238   */\n      tag_55\n      jump\t// in\n    tag_114:\n        /* \"#utility.yul\":4175:4238   */\n      swap2\n      pop\n        /* \"#utility.yul\":4131:4248   */\n      pop\n        /* \"#utility.yul\":3926:4255   */\n      swap3\n      swap2\n      pop\n      pop\n      jump\t// out\n        /* \"#utility.yul\":4261:4360   */\n    tag_56:\n        /* \"#utility.yul\":4313:4319   */\n      0x00\n        /* \"#utility.yul\":4347:4352   */\n      dup2\n        /* \"#utility.yul\":4341:4353   */\n      mload\n        /* \"#utility.yul\":4331:4353   */\n      swap1\n      pop\n        /* \"#utility.yul\":4261:4360   */\n      swap2\n      swap1\n      pop\n      jump\t// out\n        /* \"#utility.yul\":4366:4535   */\n    tag_57:\n        /* \"#utility.yul\":4450:4461   */\n      0x00\n        /* \"#utility.yul\":4484:4490   */\n      dup3\n        /* \"#utility.yul\":4479:4482   */\n      dup3\n        /* \"#utility.yul\":4472:4491   */\n      mstore\n        /* \"#utility.yul\":4524:4528   */\n      0x20\n        /* \"#utility.yul\":4519:4522   */\n      dup3\n        /* \"#utility.yul\":4515:4529   */\n      add\n        /* \"#utility.yul\":4500:4529   */\n      swap1\n      pop\n        /* \"#utility.yul\":4366:4535   */\n      swap3\n      swap2\n      pop\n      pop\n      jump\t// out\n        /* \"#utility.yul\":4541:4848   */\n    tag_58:\n        /* \"#utility.yul\":4609:4610   */\n      0x00\n        /* \"#utility.yul\":4619:4732   */\n    tag_118:\n        /* \"#utility.yul\":4633:4639   */\n      dup4\n        /* \"#utility.yul\":4630:4631   */\n      dup2\n        /* \"#utility.yul\":4627:4640   */\n      lt\n        /* \"#utility.yul\":4619:4732   */\n      iszero\n      tag_120\n      jumpi\n        /* \"#utility.yul\":4718:4719   */\n      dup1\n        /* \"#utility.yul\":4713:4716   */\n      dup3\n        /* \"#utility.yul\":4709:4720   */\n      add\n        /* \"#utility.yul\":4703:4721   */\n      mload\n        /* \"#utility.yul\":4699:4700   */\n      dup2\n        /* \"#utility.yul\":4694:4697   */\n      dup5\n        /* \"#utility.yul\":4690:4701   */\n      add\n        /* \"#utility.yul\":4683:4722   */\n      mstore\n        /* \"#utility.yul\":4655:4657   */\n      0x20\n        /* \"#utility.yul\":4652:4653   */\n      dup2\n        /* \"#utility.yul\":4648:4658   */\n      add\n        /* \"#utility.yul\":4643:4658   */\n      swap1\n      pop\n        /* \"#utility.yul\":4619:4732   */\n      jump(tag_118)\n    tag_120:\n        /* \"#utility.yul\":4750:4756   */\n      dup4\n        /* \"#utility.yul\":4747:4748   */\n      dup2\n        /* \"#utility.yul\":4744:4757   */\n      gt\n        /* \"#utility.yul\":4741:4842   */\n      iszero\n      tag_121\n      jumpi\n        /* \"#utility.yul\":4830:4831   */\n      0x00\n        /* \"#utility.yul\":4821:4827   */\n      dup5\n        /* \"#utility.yul\":4816:4819   */\n      dup5\n        /* \"#utility.yul\":4812:4828   */\n      add\n        /* \"#utility.yul\":4805:4832   */\n      mstore\n        /* \"#utility.yul\":4741:4842   */\n    tag_121:\n        /* \"#utility.yul\":4590:4848   */\n      pop\n        /* \"#utility.yul\":4541:4848   */\n      pop\n      pop\n      pop\n      jump\t// out\n        /* \"#utility.yul\":4854:5218   */\n    tag_59:\n        /* \"#utility.yul\":4942:4945   */\n      0x00\n        /* \"#utility.yul\":4970:5009   */\n      tag_123\n        /* \"#utility.yul\":5003:5008   */\n      dup3\n        /* \"#utility.yul\":4970:5009   */\n      tag_56\n      jump\t// in\n    tag_123:\n        /* \"#utility.yul\":5025:5096   */\n      tag_124\n        /* \"#utility.yul\":5089:5095   */\n      dup2\n        /* \"#utility.yul\":5084:5087   */\n      dup6\n        /* \"#utility.yul\":5025:5096   */\n      tag_57\n      jump\t// in\n    tag_124:\n        /* \"#utility.yul\":5018:5096   */\n      swap4\n      pop\n        /* \"#utility.yul\":5105:5157   */\n      tag_125\n        /* \"#utility.yul\":5150:5156   */\n      dup2\n        /* \"#utility.yul\":5145:5148   */\n      dup6\n        /* \"#utility.yul\":5138:5142   */\n      0x20\n        /* \"#utility.yul\":5131:5136   */\n      dup7\n        /* \"#utility.yul\":5127:5143   */\n      add\n        /* \"#utility.yul\":5105:5157   */\n      tag_58\n      jump\t// in\n    tag_125:\n        /* \"#utility.yul\":5182:5211   */\n      tag_126\n        /* \"#utility.yul\":5204:5210   */\n      dup2\n        /* \"#utility.yul\":5182:5211   */\n      tag_42\n      jump\t// in\n    tag_126:\n        /* \"#utility.yul\":5177:5180   */\n      dup5\n        /* \"#utility.yul\":5173:5212   */\n      add\n        /* \"#utility.yul\":5166:5212   */\n      swap2\n      pop\n        /* \"#utility.yul\":4946:5218   */\n      pop\n        /* \"#utility.yul\":4854:5218   */\n      swap3\n      swap2\n      pop\n      pop\n      jump\t// out\n        /* \"#utility.yul\":5224:5339   */\n    tag_60:\n        /* \"#utility.yul\":5309:5332   */\n      tag_128\n        /* \"#utility.yul\":5326:5331   */\n      dup2\n        /* \"#utility.yul\":5309:5332   */\n      tag_50\n      jump\t// in\n    tag_128:\n        /* \"#utility.yul\":5304:5307   */\n      dup3\n        /* \"#utility.yul\":5297:5333   */\n      mstore\n        /* \"#utility.yul\":5224:5339   */\n      pop\n      pop\n      jump\t// out\n        /* \"#utility.yul\":5345:5764   */\n    tag_14:\n        /* \"#utility.yul\":5484:5488   */\n      0x00\n        /* \"#utility.yul\":5522:5524   */\n      0x40\n        /* \"#utility.yul\":5511:5520   */\n      dup3\n        /* \"#utility.yul\":5507:5525   */\n      add\n        /* \"#utility.yul\":5499:5525   */\n      swap1\n      pop\n        /* \"#utility.yul\":5571:5580   */\n      dup2\n        /* \"#utility.yul\":5565:5569   */\n      dup2\n        /* \"#utility.yul\":5561:5581   */\n      sub\n        /* \"#utility.yul\":5557:5558   */\n      0x00\n        /* \"#utility.yul\":5546:5555   */\n      dup4\n        /* \"#utility.yul\":5542:5559   */\n      add\n        /* \"#utility.yul\":5535:5582   */\n      mstore\n        /* \"#utility.yul\":5599:5677   */\n      tag_130\n        /* \"#utility.yul\":5672:5676   */\n      dup2\n        /* \"#utility.yul\":5663:5669   */\n      dup6\n        /* \"#utility.yul\":5599:5677   */\n      tag_59\n      jump\t// in\n    tag_130:\n        /* \"#utility.yul\":5591:5677   */\n      swap1\n      pop\n        /* \"#utility.yul\":5687:5757   */\n      tag_131\n        /* \"#utility.yul\":5753:5755   */\n      0x20\n        /* \"#utility.yul\":5742:5751   */\n      dup4\n        /* \"#utility.yul\":5738:5756   */\n      add\n        /* \"#utility.yul\":5729:5735   */\n      dup5\n        /* \"#utility.yul\":5687:5757   */\n      tag_60\n      jump\t// in\n    tag_131:\n        /* \"#utility.yul\":5345:5764   */\n      swap4\n      swap3\n      pop\n      pop\n      pop\n      jump\t// out\n        /* \"#utility.yul\":5770:5950   */\n    tag_61:\n        /* \"#utility.yul\":5818:5895   */\n      0x4e487b7100000000000000000000000000000000000000000000000000000000\n        /* \"#utility.yul\":5815:5816   */\n      0x00\n        /* \"#utility.yul\":5808:5896   */\n      mstore\n        /* \"#utility.yul\":5915:5919   */\n      0x22\n        /* \"#utility.yul\":5912:5913   */\n      0x04\n        /* \"#utility.yul\":5905:5920   */\n      mstore\n        /* \"#utility.yul\":5939:5943   */\n      0x24\n        /* \"#utility.yul\":5936:5937   */\n      0x00\n        /* \"#utility.yul\":5929:5944   */\n      revert\n        /* \"#utility.yul\":5956:6276   */\n    tag_22:\n        /* \"#utility.yul\":6000:6006   */\n      0x00\n        /* \"#utility.yul\":6037:6038   */\n      0x02\n        /* \"#utility.yul\":6031:6035   */\n      dup3\n        /* \"#utility.yul\":6027:6039   */\n      div\n        /* \"#utility.yul\":6017:6039   */\n      swap1\n      pop\n        /* \"#utility.yul\":6084:6085   */\n      0x01\n        /* \"#utility.yul\":6078:6082   */\n      dup3\n        /* \"#utility.yul\":6074:6086   */\n      and\n        /* \"#utility.yul\":6105:6123   */\n      dup1\n        /* \"#utility.yul\":6095:6176   */\n      tag_134\n      jumpi\n        /* \"#utility.yul\":6161:6165   */\n      0x7f\n        /* \"#utility.yul\":6153:6159   */\n      dup3\n        /* \"#utility.yul\":6149:6166   */\n      and\n        /* \"#utility.yul\":6139:6166   */\n      swap2\n      pop\n        /* \"#utility.yul\":6095:6176   */\n    tag_134:\n        /* \"#utility.yul\":6223:6225   */\n      0x20\n        /* \"#utility.yul\":6215:6221   */\n      dup3\n        /* \"#utility.yul\":6212:6226   */\n      lt\n        /* \"#utility.yul\":6192:6210   */\n      dup2\n        /* \"#utility.yul\":6189:6227   */\n      sub\n        /* \"#utility.yul\":6186:6270   */\n      tag_135\n      jumpi\n        /* \"#utility.yul\":6242:6260   */\n      tag_136\n      tag_61\n      jump\t// in\n    tag_136:\n        /* \"#utility.yul\":6186:6270   */\n    tag_135:\n        /* \"#utility.yul\":6007:6276   */\n      pop\n        /* \"#utility.yul\":5956:6276   */\n      swap2\n      swap1\n      pop\n      jump\t// out\n\n    auxdata: 0xa2646970667358221220943f19b5dc347a94455912a380f1145b2db4444061f7a4c9e2738e951de9064464736f6c634300080d0033\n}\n",
				"bytecode": {
					"linkReferences": {},
					"object": "608060405234801561001057600080fd5b5061062f806100206000396000f3fe608060405234801561001057600080fd5b50600436106100365760003560e01c8063aba3b91b1461003b578063f7746e3614610057575b600080fd5b61005560048036038101906100509190610413565b610088565b005b610071600480360381019061006c91906104a5565b610112565b60405161007f929190610569565b60405180910390f35b600060405180604001604052808481526020018361ffff16815250908060018154018082558091505060019003906000526020600020906002020160009091909190915060008201518160000190805190602001906100e89291906101dc565b5060208201518160010160006101000a81548161ffff021916908361ffff16021790555050505050565b6000818154811061012257600080fd5b9060005260206000209060020201600091509050806000018054610145906105c8565b80601f0160208091040260200160405190810160405280929190818152602001828054610171906105c8565b80156101be5780601f10610193576101008083540402835291602001916101be565b820191906000526020600020905b8154815290600101906020018083116101a157829003601f168201915b5050505050908060010160009054906101000a900461ffff16905082565b8280546101e8906105c8565b90600052602060002090601f01602090048101928261020a5760008555610251565b82601f1061022357805160ff1916838001178555610251565b82800160010185558215610251579182015b82811115610250578251825591602001919060010190610235565b5b50905061025e9190610262565b5090565b5b8082111561027b576000816000905550600101610263565b5090565b6000604051905090565b600080fd5b600080fd5b600080fd5b600080fd5b6000601f19601f8301169050919050565b7f4e487b7100000000000000000000000000000000000000000000000000000000600052604160045260246000fd5b6102e68261029d565b810181811067ffffffffffffffff82111715610305576103046102ae565b5b80604052505050565b600061031861027f565b905061032482826102dd565b919050565b600067ffffffffffffffff821115610344576103436102ae565b5b61034d8261029d565b9050602081019050919050565b82818337600083830152505050565b600061037c61037784610329565b61030e565b90508281526020810184848401111561039857610397610298565b5b6103a384828561035a565b509392505050565b600082601f8301126103c0576103bf610293565b5b81356103d0848260208601610369565b91505092915050565b600061ffff82169050919050565b6103f0816103d9565b81146103fb57600080fd5b50565b60008135905061040d816103e7565b92915050565b6000806040838503121561042a57610429610289565b5b600083013567ffffffffffffffff8111156104485761044761028e565b5b610454858286016103ab565b9250506020610465858286016103fe565b9150509250929050565b6000819050919050565b6104828161046f565b811461048d57600080fd5b50565b60008135905061049f81610479565b92915050565b6000602082840312156104bb576104ba610289565b5b60006104c984828501610490565b91505092915050565b600081519050919050565b600082825260208201905092915050565b60005b8381101561050c5780820151818401526020810190506104f1565b8381111561051b576000848401525b50505050565b600061052c826104d2565b61053681856104dd565b93506105468185602086016104ee565b61054f8161029d565b840191505092915050565b610563816103d9565b82525050565b600060408201905081810360008301526105838185610521565b9050610592602083018461055a565b9392505050565b7f4e487b7100000000000000000000000000000000000000000000000000000000600052602260045260246000fd5b600060028204905060018216806105e057607f821691505b6020821081036105f3576105f2610599565b5b5091905056fea2646970667358221220943f19b5dc347a94455912a380f1145b2db4444061f7a4c9e2738e951de9064464736f6c634300080d0033",
					"opcodes": "PUSH1 0x80 PUSH1 0x40 MSTORE CALLVALUE DUP1 ISZERO PUSH2 0x10 JUMPI PUSH1 0x0 DUP1 REVERT JUMPDEST POP PUSH2 0x62F DUP1 PUSH2 0x20 PUSH1 0x0 CODECOPY PUSH1 0x0 RETURN INVALID PUSH1 0x80 PUSH1 0x40 MSTORE CALLVALUE DUP1 ISZERO PUSH2 0x10 JUMPI PUSH1 0x0 DUP1 REVERT JUMPDEST POP PUSH1 0x4 CALLDATASIZE LT PUSH2 0x36 JUMPI PUSH1 0x0 CALLDATALOAD PUSH1 0xE0 SHR DUP1 PUSH4 0xABA3B91B EQ PUSH2 0x3B JUMPI DUP1 PUSH4 0xF7746E36 EQ PUSH2 0x57 JUMPI JUMPDEST PUSH1 0x0 DUP1 REVERT JUMPDEST PUSH2 0x55 PUSH1 0x4 DUP1 CALLDATASIZE SUB DUP2 ADD SWAP1 PUSH2 0x50 SWAP2 SWAP1 PUSH2 0x413 JUMP JUMPDEST PUSH2 0x88 JUMP JUMPDEST STOP JUMPDEST PUSH2 0x71 PUSH1 0x4 DUP1 CALLDATASIZE SUB DUP2 ADD SWAP1 PUSH2 0x6C SWAP2 SWAP1 PUSH2 0x4A5 JUMP JUMPDEST PUSH2 0x112 JUMP JUMPDEST PUSH1 0x40 MLOAD PUSH2 0x7F SWAP3 SWAP2 SWAP1 PUSH2 0x569 JUMP JUMPDEST PUSH1 0x40 MLOAD DUP1 SWAP2 SUB SWAP1 RETURN JUMPDEST PUSH1 0x0 PUSH1 0x40 MLOAD DUP1 PUSH1 0x40 ADD PUSH1 0x40 MSTORE DUP1 DUP5 DUP2 MSTORE PUSH1 0x20 ADD DUP4 PUSH2 0xFFFF AND DUP2 MSTORE POP SWAP1 DUP1 PUSH1 0x1 DUP2 SLOAD ADD DUP1 DUP3 SSTORE DUP1 SWAP2 POP POP PUSH1 0x1 SWAP1 SUB SWAP1 PUSH1 0x0 MSTORE PUSH1 0x20 PUSH1 0x0 KECCAK256 SWAP1 PUSH1 0x2 MUL ADD PUSH1 0x0 SWAP1 SWAP2 SWAP1 SWAP2 SWAP1 SWAP2 POP PUSH1 0x0 DUP3 ADD MLOAD DUP2 PUSH1 0x0 ADD SWAP1 DUP1 MLOAD SWAP1 PUSH1 0x20 ADD SWAP1 PUSH2 0xE8 SWAP3 SWAP2 SWAP1 PUSH2 0x1DC JUMP JUMPDEST POP PUSH1 0x20 DUP3 ADD MLOAD DUP2 PUSH1 0x1 ADD PUSH1 0x0 PUSH2 0x100 EXP DUP2 SLOAD DUP2 PUSH2 0xFFFF MUL NOT AND SWAP1 DUP4 PUSH2 0xFFFF AND MUL OR SWAP1 SSTORE POP POP POP POP POP JUMP JUMPDEST PUSH1 0x0 DUP2 DUP2 SLOAD DUP2 LT PUSH2 0x122 JUMPI PUSH1 0x0 DUP1 REVERT JUMPDEST SWAP1 PUSH1 0x0 MSTORE PUSH1 0x20 PUSH1 0x0 KECCAK256 SWAP1 PUSH1 0x2 MUL ADD PUSH1 0x0 SWAP2 POP SWAP1 POP DUP1 PUSH1 0x0 ADD DUP1 SLOAD PUSH2 0x145 SWAP1 PUSH2 0x5C8 JUMP JUMPDEST DUP1 PUSH1 0x1F ADD PUSH1 0x20 DUP1 SWAP2 DIV MUL PUSH1 0x20 ADD PUSH1 0x40 MLOAD SWAP1 DUP2 ADD PUSH1 0x40 MSTORE DUP1 SWAP3 SWAP2 SWAP1 DUP2 DUP2 MSTORE PUSH1 0x20 ADD DUP3 DUP1 SLOAD PUSH2 0x171 SWAP1 PUSH2 0x5C8 JUMP JUMPDEST DUP1 ISZERO PUSH2 0x1BE JUMPI DUP1 PUSH1 0x1F LT PUSH2 0x193 JUMPI PUSH2 0x100 DUP1 DUP4 SLOAD DIV MUL DUP4 MSTORE SWAP2 PUSH1 0x20 ADD SWAP2 PUSH2 0x1BE JUMP JUMPDEST DUP3 ADD SWAP2 SWAP1 PUSH1 0x0 MSTORE PUSH1 0x20 PUSH1 0x0 KECCAK256 SWAP1 JUMPDEST DUP2 SLOAD DUP2 MSTORE SWAP1 PUSH1 0x1 ADD SWAP1 PUSH1 0x20 ADD DUP1 DUP4 GT PUSH2 0x1A1 JUMPI DUP3 SWAP1 SUB PUSH1 0x1F AND DUP3 ADD SWAP2 JUMPDEST POP POP POP POP POP SWAP1 DUP1 PUSH1 0x1 ADD PUSH1 0x0 SWAP1 SLOAD SWAP1 PUSH2 0x100 EXP SWAP1 DIV PUSH2 0xFFFF AND SWAP1 POP DUP3 JUMP JUMPDEST DUP3 DUP1 SLOAD PUSH2 0x1E8 SWAP1 PUSH2 0x5C8 JUMP JUMPDEST SWAP1 PUSH1 0x0 MSTORE PUSH1 0x20 PUSH1 0x0 KECCAK256 SWAP1 PUSH1 0x1F ADD PUSH1 0x20 SWAP1 DIV DUP2 ADD SWAP3 DUP3 PUSH2 0x20A JUMPI PUSH1 0x0 DUP6 SSTORE PUSH2 0x251 JUMP JUMPDEST DUP3 PUSH1 0x1F LT PUSH2 0x223 JUMPI DUP1 MLOAD PUSH1 0xFF NOT AND DUP4 DUP1 ADD OR DUP6 SSTORE PUSH2 0x251 JUMP JUMPDEST DUP3 DUP1 ADD PUSH1 0x1 ADD DUP6 SSTORE DUP3 ISZERO PUSH2 0x251 JUMPI SWAP2 DUP3 ADD JUMPDEST DUP3 DUP2 GT ISZERO PUSH2 0x250 JUMPI DUP3 MLOAD DUP3 SSTORE SWAP2 PUSH1 0x20 ADD SWAP2 SWAP1 PUSH1 0x1 ADD SWAP1 PUSH2 0x235 JUMP JUMPDEST JUMPDEST POP SWAP1 POP PUSH2 0x25E SWAP2 SWAP1 PUSH2 0x262 JUMP JUMPDEST POP SWAP1 JUMP JUMPDEST JUMPDEST DUP1 DUP3 GT ISZERO PUSH2 0x27B JUMPI PUSH1 0x0 DUP2 PUSH1 0x0 SWAP1 SSTORE POP PUSH1 0x1 ADD PUSH2 0x263 JUMP JUMPDEST POP SWAP1 JUMP JUMPDEST PUSH1 0x0 PUSH1 0x40 MLOAD SWAP1 POP SWAP1 JUMP JUMPDEST PUSH1 0x0 DUP1 REVERT JUMPDEST PUSH1 0x0 DUP1 REVERT JUMPDEST PUSH1 0x0 DUP1 REVERT JUMPDEST PUSH1 0x0 DUP1 REVERT JUMPDEST PUSH1 0x0 PUSH1 0x1F NOT PUSH1 0x1F DUP4 ADD AND SWAP1 POP SWAP2 SWAP1 POP JUMP JUMPDEST PUSH32 0x4E487B7100000000000000000000000000000000000000000000000000000000 PUSH1 0x0 MSTORE PUSH1 0x41 PUSH1 0x4 MSTORE PUSH1 0x24 PUSH1 0x0 REVERT JUMPDEST PUSH2 0x2E6 DUP3 PUSH2 0x29D JUMP JUMPDEST DUP2 ADD DUP2 DUP2 LT PUSH8 0xFFFFFFFFFFFFFFFF DUP3 GT OR ISZERO PUSH2 0x305 JUMPI PUSH2 0x304 PUSH2 0x2AE JUMP JUMPDEST JUMPDEST DUP1 PUSH1 0x40 MSTORE POP POP POP JUMP JUMPDEST PUSH1 0x0 PUSH2 0x318 PUSH2 0x27F JUMP JUMPDEST SWAP1 POP PUSH2 0x324 DUP3 DUP3 PUSH2 0x2DD JUMP JUMPDEST SWAP2 SWAP1 POP JUMP JUMPDEST PUSH1 0x0 PUSH8 0xFFFFFFFFFFFFFFFF DUP3 GT ISZERO PUSH2 0x344 JUMPI PUSH2 0x343 PUSH2 0x2AE JUMP JUMPDEST JUMPDEST PUSH2 0x34D DUP3 PUSH2 0x29D JUMP JUMPDEST SWAP1 POP PUSH1 0x20 DUP2 ADD SWAP1 POP SWAP2 SWAP1 POP JUMP JUMPDEST DUP3 DUP2 DUP4 CALLDATACOPY PUSH1 0x0 DUP4 DUP4 ADD MSTORE POP POP POP JUMP JUMPDEST PUSH1 0x0 PUSH2 0x37C PUSH2 0x377 DUP5 PUSH2 0x329 JUMP JUMPDEST PUSH2 0x30E JUMP JUMPDEST SWAP1 POP DUP3 DUP2 MSTORE PUSH1 0x20 DUP2 ADD DUP5 DUP5 DUP5 ADD GT ISZERO PUSH2 0x398 JUMPI PUSH2 0x397 PUSH2 0x298 JUMP JUMPDEST JUMPDEST PUSH2 0x3A3 DUP5 DUP3 DUP6 PUSH2 0x35A JUMP JUMPDEST POP SWAP4 SWAP3 POP POP POP JUMP JUMPDEST PUSH1 0x0 DUP3 PUSH1 0x1F DUP4 ADD SLT PUSH2 0x3C0 JUMPI PUSH2 0x3BF PUSH2 0x293 JUMP JUMPDEST JUMPDEST DUP2 CALLDATALOAD PUSH2 0x3D0 DUP5 DUP3 PUSH1 0x20 DUP7 ADD PUSH2 0x369 JUMP JUMPDEST SWAP2 POP POP SWAP3 SWAP2 POP POP JUMP JUMPDEST PUSH1 0x0 PUSH2 0xFFFF DUP3 AND SWAP1 POP SWAP2 SWAP1 POP JUMP JUMPDEST PUSH2 0x3F0 DUP2 PUSH2 0x3D9 JUMP JUMPDEST DUP2 EQ PUSH2 0x3FB JUMPI PUSH1 0x0 DUP1 REVERT JUMPDEST POP JUMP JUMPDEST PUSH1 0x0 DUP2 CALLDATALOAD SWAP1 POP PUSH2 0x40D DUP2 PUSH2 0x3E7 JUMP JUMPDEST SWAP3 SWAP2 POP POP JUMP JUMPDEST PUSH1 0x0 DUP1 PUSH1 0x40 DUP4 DUP6 SUB SLT ISZERO PUSH2 0x42A JUMPI PUSH2 0x429 PUSH2 0x289 JUMP JUMPDEST JUMPDEST PUSH1 0x0 DUP4 ADD CALLDATALOAD PUSH8 0xFFFFFFFFFFFFFFFF DUP2 GT ISZERO PUSH2 0x448 JUMPI PUSH2 0x447 PUSH2 0x28E JUMP JUMPDEST JUMPDEST PUSH2 0x454 DUP6 DUP3 DUP7 ADD PUSH2 0x3AB JUMP JUMPDEST SWAP3 POP POP PUSH1 0x20 PUSH2 0x465 DUP6 DUP3 DUP7 ADD PUSH2 0x3FE JUMP JUMPDEST SWAP2 POP POP SWAP3 POP SWAP3 SWAP1 POP JUMP JUMPDEST PUSH1 0x0 DUP2 SWAP1 POP SWAP2 SWAP1 POP JUMP JUMPDEST PUSH2 0x482 DUP2 PUSH2 0x46F JUMP JUMPDEST DUP2 EQ PUSH2 0x48D JUMPI PUSH1 0x0 DUP1 REVERT JUMPDEST POP JUMP JUMPDEST PUSH1 0x0 DUP2 CALLDATALOAD SWAP1 POP PUSH2 0x49F DUP2 PUSH2 0x479 JUMP JUMPDEST SWAP3 SWAP2 POP POP JUMP JUMPDEST PUSH1 0x0 PUSH1 0x20 DUP3 DUP5 SUB SLT ISZERO PUSH2 0x4BB JUMPI PUSH2 0x4BA PUSH2 0x289 JUMP JUMPDEST JUMPDEST PUSH1 0x0 PUSH2 0x4C9 DUP5 DUP3 DUP6 ADD PUSH2 0x490 JUMP JUMPDEST SWAP2 POP POP SWAP3 SWAP2 POP POP JUMP JUMPDEST PUSH1 0x0 DUP2 MLOAD SWAP1 POP SWAP2 SWAP1 POP JUMP JUMPDEST PUSH1 0x0 DUP3 DUP3 MSTORE PUSH1 0x20 DUP3 ADD SWAP1 POP SWAP3 SWAP2 POP POP JUMP JUMPDEST PUSH1 0x0 JUMPDEST DUP4 DUP2 LT ISZERO PUSH2 0x50C JUMPI DUP1 DUP3 ADD MLOAD DUP2 DUP5 ADD MSTORE PUSH1 0x20 DUP2 ADD SWAP1 POP PUSH2 0x4F1 JUMP JUMPDEST DUP4 DUP2 GT ISZERO PUSH2 0x51B JUMPI PUSH1 0x0 DUP5 DUP5 ADD MSTORE JUMPDEST POP POP POP POP JUMP JUMPDEST PUSH1 0x0 PUSH2 0x52C DUP3 PUSH2 0x4D2 JUMP JUMPDEST PUSH2 0x536 DUP2 DUP6 PUSH2 0x4DD JUMP JUMPDEST SWAP4 POP PUSH2 0x546 DUP2 DUP6 PUSH1 0x20 DUP7 ADD PUSH2 0x4EE JUMP JUMPDEST PUSH2 0x54F DUP2 PUSH2 0x29D JUMP JUMPDEST DUP5 ADD SWAP2 POP POP SWAP3 SWAP2 POP POP JUMP JUMPDEST PUSH2 0x563 DUP2 PUSH2 0x3D9 JUMP JUMPDEST DUP3 MSTORE POP POP JUMP JUMPDEST PUSH1 0x0 PUSH1 0x40 DUP3 ADD SWAP1 POP DUP2 DUP2 SUB PUSH1 0x0 DUP4 ADD MSTORE PUSH2 0x583 DUP2 DUP6 PUSH2 0x521 JUMP JUMPDEST SWAP1 POP PUSH2 0x592 PUSH1 0x20 DUP4 ADD DUP5 PUSH2 0x55A JUMP JUMPDEST SWAP4 SWAP3 POP POP POP JUMP JUMPDEST PUSH32 0x4E487B7100000000000000000000000000000000000000000000000000000000 PUSH1 0x0 MSTORE PUSH1 0x22 PUSH1 0x4 MSTORE PUSH1 0x24 PUSH1 0x0 REVERT JUMPDEST PUSH1 0x0 PUSH1 0x2 DUP3 DIV SWAP1 POP PUSH1 0x1 DUP3 AND DUP1 PUSH2 0x5E0 JUMPI PUSH1 0x7F DUP3 AND SWAP2 POP JUMPDEST PUSH1 0x20 DUP3 LT DUP2 SUB PUSH2 0x5F3 JUMPI PUSH2 0x5F2 PUSH2 0x599 JUMP JUMPDEST JUMPDEST POP SWAP2 SWAP1 POP JUMP INVALID LOG2 PUSH5 0x6970667358 0x22 SLT KECCAK256 SWAP5 EXTCODEHASH NOT 0xB5 0xDC CALLVALUE PUSH27 0x94455912A380F1145B2DB4444061F7A4C9E2738E951DE906446473 PUSH16 0x6C634300080D00330000000000000000 "
				},
				"gasEstimates": {
					"creation": {
						"codeDepositCost": "316600",
						"executionCost": "355",
						"totalCost": "316955"
					},
					"external": {
						"addCar(string,uint16)": "infinite",
						"cars(uint256)": "infinite"
					}
				},
				"methodIdentifiers": {
					"addCar(string,uint16)": "aba3b91b",
					"cars(uint256)": "f7746e36"
				}
			},
			"storageLayout": {
				"storage": [
					{
						"astId": 10,
						"contract": "contracts/Mycontract.sol:MyContract",
						"label": "cars",
						"offset": 0,
						"slot": "0",
						"type": "t_array(t_struct(Car)6_storage)dyn_storage"
					}
				],
				"types": {
					"t_array(t_struct(Car)6_storage)dyn_storage": {
						"base": "t_struct(Car)6_storage",
						"encoding": "dynamic_array",
						"label": "struct MyContract.Car[]",
						"numberOfBytes": "32"
					},
					"t_string_storage": {
						"encoding": "bytes",
						"label": "string",
						"numberOfBytes": "32"
					},
					"t_struct(Car)6_storage": {
						"encoding": "inplace",
						"label": "struct MyContract.Car",
						"members": [
							{
								"astId": 3,
								"contract": "contracts/Mycontract.sol:MyContract",
								"label": "name",
								"offset": 0,
								"slot": "0",
								"type": "t_string_storage"
							},
							{
								"astId": 5,
								"contract": "contracts/Mycontract.sol:MyContract",
								"label": "price",
								"offset": 0,
								"slot": "1",
								"type": "t_uint16"
							}
						],
						"numberOfBytes": "64"
					},
					"t_uint16": {
						"encoding": "inplace",
						"label": "uint16",
						"numberOfBytes": "2"
					}
				}
			},
			"userdoc": {
				"kind": "user",
				"methods": {},
				"version": 1
			}
		}
	}
}