{
	"contracts/Mycontract.sol": {
		"MyContract": {
			"abi": [
				{
					"inputs": [
						{
							"internalType": "string",
							"name": "_name",
							"type": "string"
						},
						{
							"internalType": "uint16",
							"name": "_price",
							"type": "uint16"
						}
					],
					"name": "addCar",
					"outputs": [],
					"stateMutability": "nonpayable",
					"type": "function"
				},
				{
					"inputs": [
						{
							"internalType": "uint256",
							"name": "",
							"type": "uint256"
						}
					],
					"name": "cars",
					"outputs": [
						{
							"internalType": "string",
							"name": "name",
							"type": "string"
						},
						{
							"internalType": "uint16",
							"name": "price",
							"type": "uint16"
						}
					],
					"stateMutability": "view",
					"type": "function"
				},
				{
					"inputs": [],
					"name": "getFirstCar",
					"outputs": [
						{
							"components": [
								{
									"internalType": "string",
									"name": "name",
									"type": "string"
								},
								{
									"internalType": "uint16",
									"name": "price",
									"type": "uint16"
								}
							],
							"internalType": "struct MyContract.Car",
							"name": "",
							"type": "tuple"
						}
					],
					"stateMutability": "view",
					"type": "function"
				},
				{
					"inputs": [],
					"name": "myCar",
					"outputs": [
						{
							"internalType": "string",
							"name": "name",
							"type": "string"
						},
						{
							"internalType": "uint16",
							"name": "price",
							"type": "uint16"
						}
					],
					"stateMutability": "view",
					"type": "function"
				}
			],
			"devdoc": {
				"kind": "dev",
				"methods": {},
				"version": 1
			},
			"evm": {
				"assembly": "    /* \"contracts/Mycontract.sol\":26:387  contract MyContract {... */\n  mstore(0x40, 0x80)\n    /* \"contracts/Mycontract.sol\":162:179  Car(\"Opel\", 1200) */\n  mload(0x40)\n  dup1\n  0x40\n  add\n  0x40\n  mstore\n  dup1\n  mload(0x40)\n  dup1\n  0x40\n  add\n  0x40\n  mstore\n  dup1\n  0x04\n  dup2\n  mstore\n  0x20\n  add\n  0x4f70656c00000000000000000000000000000000000000000000000000000000\n  dup2\n  mstore\n  pop\n  dup2\n  mstore\n  0x20\n  add\n    /* \"contracts/Mycontract.sol\":174:178  1200 */\n  0x04b0\n    /* \"contracts/Mycontract.sol\":162:179  Car(\"Opel\", 1200) */\n  0xffff\n  and\n  dup2\n  mstore\n  pop\n    /* \"contracts/Mycontract.sol\":143:179  Car public myCar = Car(\"Opel\", 1200) */\n  0x01\n  0x00\n  dup3\n  add\n  mload\n  dup2\n  0x00\n  add\n  swap1\n  dup1\n  mload\n  swap1\n  0x20\n  add\n  swap1\n  tag_1\n  swap3\n  swap2\n  swap1\n  tag_2\n  jump\t// in\ntag_1:\n  pop\n  0x20\n  dup3\n  add\n  mload\n  dup2\n  0x01\n  add\n  exp(0x0100, 0x00)\n  dup2\n  sload\n  dup2\n  0xffff\n  mul\n  not\n  and\n  swap1\n  dup4\n  0xffff\n  and\n  mul\n  or\n  swap1\n  sstore\n  pop\n  pop\n  pop\n    /* \"contracts/Mycontract.sol\":26:387  contract MyContract {... */\n  callvalue\n  dup1\n  iszero\n  tag_3\n  jumpi\n  0x00\n  dup1\n  revert\ntag_3:\n  pop\n  jump(tag_4)\ntag_2:\n  dup3\n  dup1\n  sload\n  tag_5\n  swap1\n  tag_6\n  jump\t// in\ntag_5:\n  swap1\n  0x00\n  mstore\n  keccak256(0x00, 0x20)\n  swap1\n  0x1f\n  add\n  0x20\n  swap1\n  div\n  dup2\n  add\n  swap3\n  dup3\n  tag_8\n  jumpi\n  0x00\n  dup6\n  sstore\n  jump(tag_7)\ntag_8:\n  dup3\n  0x1f\n  lt\n  tag_9\n  jumpi\n  dup1\n  mload\n  not(0xff)\n  and\n  dup4\n  dup1\n  add\n  or\n  dup6\n  sstore\n  jump(tag_7)\ntag_9:\n  dup3\n  dup1\n  add\n  0x01\n  add\n  dup6\n  sstore\n  dup3\n  iszero\n  tag_7\n  jumpi\n  swap2\n  dup3\n  add\ntag_10:\n  dup3\n  dup2\n  gt\n  iszero\n  tag_11\n  jumpi\n  dup3\n  mload\n  dup3\n  sstore\n  swap2\n  0x20\n  add\n  swap2\n  swap1\n  0x01\n  add\n  swap1\n  jump(tag_10)\ntag_11:\ntag_7:\n  pop\n  swap1\n  pop\n  tag_12\n  swap2\n  swap1\n  tag_13\n  jump\t// in\ntag_12:\n  pop\n  swap1\n  jump\t// out\ntag_13:\ntag_14:\n  dup1\n  dup3\n  gt\n  iszero\n  tag_15\n  jumpi\n  0x00\n  dup2\n  0x00\n  swap1\n  sstore\n  pop\n  0x01\n  add\n  jump(tag_14)\ntag_15:\n  pop\n  swap1\n  jump\t// out\n    /* \"#utility.yul\":7:187   */\ntag_16:\n    /* \"#utility.yul\":55:132   */\n  0x4e487b7100000000000000000000000000000000000000000000000000000000\n    /* \"#utility.yul\":52:53   */\n  0x00\n    /* \"#utility.yul\":45:133   */\n  mstore\n    /* \"#utility.yul\":152:156   */\n  0x22\n    /* \"#utility.yul\":149:150   */\n  0x04\n    /* \"#utility.yul\":142:157   */\n  mstore\n    /* \"#utility.yul\":176:180   */\n  0x24\n    /* \"#utility.yul\":173:174   */\n  0x00\n    /* \"#utility.yul\":166:181   */\n  revert\n    /* \"#utility.yul\":193:513   */\ntag_6:\n    /* \"#utility.yul\":237:243   */\n  0x00\n    /* \"#utility.yul\":274:275   */\n  0x02\n    /* \"#utility.yul\":268:272   */\n  dup3\n    /* \"#utility.yul\":264:276   */\n  div\n    /* \"#utility.yul\":254:276   */\n  swap1\n  pop\n    /* \"#utility.yul\":321:322   */\n  0x01\n    /* \"#utility.yul\":315:319   */\n  dup3\n    /* \"#utility.yul\":311:323   */\n  and\n    /* \"#utility.yul\":342:360   */\n  dup1\n    /* \"#utility.yul\":332:413   */\n  tag_20\n  jumpi\n    /* \"#utility.yul\":398:402   */\n  0x7f\n    /* \"#utility.yul\":390:396   */\n  dup3\n    /* \"#utility.yul\":386:403   */\n  and\n    /* \"#utility.yul\":376:403   */\n  swap2\n  pop\n    /* \"#utility.yul\":332:413   */\ntag_20:\n    /* \"#utility.yul\":460:462   */\n  0x20\n    /* \"#utility.yul\":452:458   */\n  dup3\n    /* \"#utility.yul\":449:463   */\n  lt\n    /* \"#utility.yul\":429:447   */\n  dup2\n    /* \"#utility.yul\":426:464   */\n  sub\n    /* \"#utility.yul\":423:507   */\n  tag_21\n  jumpi\n    /* \"#utility.yul\":479:497   */\n  tag_22\n  tag_16\n  jump\t// in\ntag_22:\n    /* \"#utility.yul\":423:507   */\ntag_21:\n    /* \"#utility.yul\":244:513   */\n  pop\n    /* \"#utility.yul\":193:513   */\n  swap2\n  swap1\n  pop\n  jump\t// out\n    /* \"contracts/Mycontract.sol\":26:387  contract MyContract {... */\ntag_4:\n  dataSize(sub_0)\n  dup1\n  dataOffset(sub_0)\n  0x00\n  codecopy\n  0x00\n  return\nstop\n\nsub_0: assembly {\n        /* \"contracts/Mycontract.sol\":26:387  contract MyContract {... */\n      mstore(0x40, 0x80)\n      callvalue\n      dup1\n      iszero\n      tag_1\n      jumpi\n      0x00\n      dup1\n      revert\n    tag_1:\n      pop\n      jumpi(tag_2, lt(calldatasize, 0x04))\n      shr(0xe0, calldataload(0x00))\n      dup1\n      0x8dea9cd8\n      eq\n      tag_3\n      jumpi\n      dup1\n      0x9cdde813\n      eq\n      tag_4\n      jumpi\n      dup1\n      0xaba3b91b\n      eq\n      tag_5\n      jumpi\n      dup1\n      0xf7746e36\n      eq\n      tag_6\n      jumpi\n    tag_2:\n      0x00\n      dup1\n      revert\n        /* \"contracts/Mycontract.sol\":299:384  function getFirstCar() public view returns(Car memory){... */\n    tag_3:\n      tag_7\n      tag_8\n      jump\t// in\n    tag_7:\n      mload(0x40)\n      tag_9\n      swap2\n      swap1\n      tag_10\n      jump\t// in\n    tag_9:\n      mload(0x40)\n      dup1\n      swap2\n      sub\n      swap1\n      return\n        /* \"contracts/Mycontract.sol\":143:179  Car public myCar = Car(\"Opel\", 1200) */\n    tag_4:\n      tag_11\n      tag_12\n      jump\t// in\n    tag_11:\n      mload(0x40)\n      tag_13\n      swap3\n      swap2\n      swap1\n      tag_14\n      jump\t// in\n    tag_13:\n      mload(0x40)\n      dup1\n      swap2\n      sub\n      swap1\n      return\n        /* \"contracts/Mycontract.sol\":187:293  function addCar(string memory _name, uint16 _price) public {... */\n    tag_5:\n      tag_15\n      0x04\n      dup1\n      calldatasize\n      sub\n      dup2\n      add\n      swap1\n      tag_16\n      swap2\n      swap1\n      tag_17\n      jump\t// in\n    tag_16:\n      tag_18\n      jump\t// in\n    tag_15:\n      stop\n        /* \"contracts/Mycontract.sol\":119:136  Car[] public cars */\n    tag_6:\n      tag_19\n      0x04\n      dup1\n      calldatasize\n      sub\n      dup2\n      add\n      swap1\n      tag_20\n      swap2\n      swap1\n      tag_21\n      jump\t// in\n    tag_20:\n      tag_22\n      jump\t// in\n    tag_19:\n      mload(0x40)\n      tag_23\n      swap3\n      swap2\n      swap1\n      tag_14\n      jump\t// in\n    tag_23:\n      mload(0x40)\n      dup1\n      swap2\n      sub\n      swap1\n      return\n        /* \"contracts/Mycontract.sol\":299:384  function getFirstCar() public view returns(Car memory){... */\n    tag_8:\n        /* \"contracts/Mycontract.sol\":342:352  Car memory */\n      tag_24\n      tag_25\n      jump\t// in\n    tag_24:\n        /* \"contracts/Mycontract.sol\":370:374  cars */\n      0x00\n        /* \"contracts/Mycontract.sol\":375:376  0 */\n      dup1\n        /* \"contracts/Mycontract.sol\":370:377  cars[0] */\n      dup2\n      sload\n      dup2\n      lt\n      tag_27\n      jumpi\n      tag_28\n      tag_29\n      jump\t// in\n    tag_28:\n    tag_27:\n      swap1\n      0x00\n      mstore\n      keccak256(0x00, 0x20)\n      swap1\n      0x02\n      mul\n      add\n        /* \"contracts/Mycontract.sol\":363:377  return cars[0] */\n      mload(0x40)\n      dup1\n      0x40\n      add\n      0x40\n      mstore\n      swap1\n      dup2\n      0x00\n      dup3\n      add\n      dup1\n      sload\n      tag_31\n      swap1\n      tag_32\n      jump\t// in\n    tag_31:\n      dup1\n      0x1f\n      add\n      0x20\n      dup1\n      swap2\n      div\n      mul\n      0x20\n      add\n      mload(0x40)\n      swap1\n      dup2\n      add\n      0x40\n      mstore\n      dup1\n      swap3\n      swap2\n      swap1\n      dup2\n      dup2\n      mstore\n      0x20\n      add\n      dup3\n      dup1\n      sload\n      tag_33\n      swap1\n      tag_32\n      jump\t// in\n    tag_33:\n      dup1\n      iszero\n      tag_34\n      jumpi\n      dup1\n      0x1f\n      lt\n      tag_35\n      jumpi\n      0x0100\n      dup1\n      dup4\n      sload\n      div\n      mul\n      dup4\n      mstore\n      swap2\n      0x20\n      add\n      swap2\n      jump(tag_34)\n    tag_35:\n      dup3\n      add\n      swap2\n      swap1\n      0x00\n      mstore\n      keccak256(0x00, 0x20)\n      swap1\n    tag_36:\n      dup2\n      sload\n      dup2\n      mstore\n      swap1\n      0x01\n      add\n      swap1\n      0x20\n      add\n      dup1\n      dup4\n      gt\n      tag_36\n      jumpi\n      dup3\n      swap1\n      sub\n      0x1f\n      and\n      dup3\n      add\n      swap2\n    tag_34:\n      pop\n      pop\n      pop\n      pop\n      pop\n      dup2\n      mstore\n      0x20\n      add\n      0x01\n      dup3\n      add\n      0x00\n      swap1\n      sload\n      swap1\n      0x0100\n      exp\n      swap1\n      div\n      0xffff\n      and\n      0xffff\n      and\n      0xffff\n      and\n      dup2\n      mstore\n      pop\n      pop\n      swap1\n      pop\n        /* \"contracts/Mycontract.sol\":299:384  function getFirstCar() public view returns(Car memory){... */\n      swap1\n      jump\t// out\n        /* \"contracts/Mycontract.sol\":143:179  Car public myCar = Car(\"Opel\", 1200) */\n    tag_12:\n      0x01\n      dup1\n      0x00\n      add\n      dup1\n      sload\n      tag_37\n      swap1\n      tag_32\n      jump\t// in\n    tag_37:\n      dup1\n      0x1f\n      add\n      0x20\n      dup1\n      swap2\n      div\n      mul\n      0x20\n      add\n      mload(0x40)\n      swap1\n      dup2\n      add\n      0x40\n      mstore\n      dup1\n      swap3\n      swap2\n      swap1\n      dup2\n      dup2\n      mstore\n      0x20\n      add\n      dup3\n      dup1\n      sload\n      tag_38\n      swap1\n      tag_32\n      jump\t// in\n    tag_38:\n      dup1\n      iszero\n      tag_39\n      jumpi\n      dup1\n      0x1f\n      lt\n      tag_40\n      jumpi\n      0x0100\n      dup1\n      dup4\n      sload\n      div\n      mul\n      dup4\n      mstore\n      swap2\n      0x20\n      add\n      swap2\n      jump(tag_39)\n    tag_40:\n      dup3\n      add\n      swap2\n      swap1\n      0x00\n      mstore\n      keccak256(0x00, 0x20)\n      swap1\n    tag_41:\n      dup2\n      sload\n      dup2\n      mstore\n      swap1\n      0x01\n      add\n      swap1\n      0x20\n      add\n      dup1\n      dup4\n      gt\n      tag_41\n      jumpi\n      dup3\n      swap1\n      sub\n      0x1f\n      and\n      dup3\n      add\n      swap2\n    tag_39:\n      pop\n      pop\n      pop\n      pop\n      pop\n      swap1\n      dup1\n      0x01\n      add\n      0x00\n      swap1\n      sload\n      swap1\n      0x0100\n      exp\n      swap1\n      div\n      0xffff\n      and\n      swap1\n      pop\n      dup3\n      jump\t// out\n        /* \"contracts/Mycontract.sol\":187:293  function addCar(string memory _name, uint16 _price) public {... */\n    tag_18:\n        /* \"contracts/Mycontract.sol\":256:260  cars */\n      0x00\n        /* \"contracts/Mycontract.sol\":266:285  Car(_name , _price) */\n      mload(0x40)\n      dup1\n      0x40\n      add\n      0x40\n      mstore\n      dup1\n        /* \"contracts/Mycontract.sol\":270:275  _name */\n      dup5\n        /* \"contracts/Mycontract.sol\":266:285  Car(_name , _price) */\n      dup2\n      mstore\n      0x20\n      add\n        /* \"contracts/Mycontract.sol\":278:284  _price */\n      dup4\n        /* \"contracts/Mycontract.sol\":266:285  Car(_name , _price) */\n      0xffff\n      and\n      dup2\n      mstore\n      pop\n        /* \"contracts/Mycontract.sol\":256:286  cars.push(Car(_name , _price)) */\n      swap1\n      dup1\n      0x01\n      dup2\n      sload\n      add\n      dup1\n      dup3\n      sstore\n      dup1\n      swap2\n      pop\n      pop\n      0x01\n      swap1\n      sub\n      swap1\n      0x00\n      mstore\n      keccak256(0x00, 0x20)\n      swap1\n      0x02\n      mul\n      add\n      0x00\n      swap1\n      swap2\n      swap1\n      swap2\n      swap1\n      swap2\n      pop\n      0x00\n      dup3\n      add\n      mload\n      dup2\n      0x00\n      add\n      swap1\n      dup1\n      mload\n      swap1\n      0x20\n      add\n      swap1\n      tag_44\n      swap3\n      swap2\n      swap1\n      tag_45\n      jump\t// in\n    tag_44:\n      pop\n      0x20\n      dup3\n      add\n      mload\n      dup2\n      0x01\n      add\n      exp(0x0100, 0x00)\n      dup2\n      sload\n      dup2\n      0xffff\n      mul\n      not\n      and\n      swap1\n      dup4\n      0xffff\n      and\n      mul\n      or\n      swap1\n      sstore\n      pop\n      pop\n      pop\n        /* \"contracts/Mycontract.sol\":187:293  function addCar(string memory _name, uint16 _price) public {... */\n      pop\n      pop\n      jump\t// out\n        /* \"contracts/Mycontract.sol\":119:136  Car[] public cars */\n    tag_22:\n      0x00\n      dup2\n      dup2\n      sload\n      dup2\n      lt\n      tag_46\n      jumpi\n      0x00\n      dup1\n      revert\n    tag_46:\n      swap1\n      0x00\n      mstore\n      keccak256(0x00, 0x20)\n      swap1\n      0x02\n      mul\n      add\n      0x00\n      swap2\n      pop\n      swap1\n      pop\n      dup1\n      0x00\n      add\n      dup1\n      sload\n      tag_48\n      swap1\n      tag_32\n      jump\t// in\n    tag_48:\n      dup1\n      0x1f\n      add\n      0x20\n      dup1\n      swap2\n      div\n      mul\n      0x20\n      add\n      mload(0x40)\n      swap1\n      dup2\n      add\n      0x40\n      mstore\n      dup1\n      swap3\n      swap2\n      swap1\n      dup2\n      dup2\n      mstore\n      0x20\n      add\n      dup3\n      dup1\n      sload\n      tag_49\n      swap1\n      tag_32\n      jump\t// in\n    tag_49:\n      dup1\n      iszero\n      tag_50\n      jumpi\n      dup1\n      0x1f\n      lt\n      tag_51\n      jumpi\n      0x0100\n      dup1\n      dup4\n      sload\n      div\n      mul\n      dup4\n      mstore\n      swap2\n      0x20\n      add\n      swap2\n      jump(tag_50)\n    tag_51:\n      dup3\n      add\n      swap2\n      swap1\n      0x00\n      mstore\n      keccak256(0x00, 0x20)\n      swap1\n    tag_52:\n      dup2\n      sload\n      dup2\n      mstore\n      swap1\n      0x01\n      add\n      swap1\n      0x20\n      add\n      dup1\n      dup4\n      gt\n      tag_52\n      jumpi\n      dup3\n      swap1\n      sub\n      0x1f\n      and\n      dup3\n      add\n      swap2\n    tag_50:\n      pop\n      pop\n      pop\n      pop\n      pop\n      swap1\n      dup1\n      0x01\n      add\n      0x00\n      swap1\n      sload\n      swap1\n      0x0100\n      exp\n      swap1\n      div\n      0xffff\n      and\n      swap1\n      pop\n      dup3\n      jump\t// out\n    tag_25:\n      mload(0x40)\n      dup1\n      0x40\n      add\n      0x40\n      mstore\n      dup1\n      0x60\n      dup2\n      mstore\n      0x20\n      add\n      and(0xffff, 0x00)\n      dup2\n      mstore\n      pop\n      swap1\n      jump\t// out\n    tag_45:\n      dup3\n      dup1\n      sload\n      tag_53\n      swap1\n      tag_32\n      jump\t// in\n    tag_53:\n      swap1\n      0x00\n      mstore\n      keccak256(0x00, 0x20)\n      swap1\n      0x1f\n      add\n      0x20\n      swap1\n      div\n      dup2\n      add\n      swap3\n      dup3\n      tag_55\n      jumpi\n      0x00\n      dup6\n      sstore\n      jump(tag_54)\n    tag_55:\n      dup3\n      0x1f\n      lt\n      tag_56\n      jumpi\n      dup1\n      mload\n      not(0xff)\n      and\n      dup4\n      dup1\n      add\n      or\n      dup6\n      sstore\n      jump(tag_54)\n    tag_56:\n      dup3\n      dup1\n      add\n      0x01\n      add\n      dup6\n      sstore\n      dup3\n      iszero\n      tag_54\n      jumpi\n      swap2\n      dup3\n      add\n    tag_57:\n      dup3\n      dup2\n      gt\n      iszero\n      tag_58\n      jumpi\n      dup3\n      mload\n      dup3\n      sstore\n      swap2\n      0x20\n      add\n      swap2\n      swap1\n      0x01\n      add\n      swap1\n      jump(tag_57)\n    tag_58:\n    tag_54:\n      pop\n      swap1\n      pop\n      tag_59\n      swap2\n      swap1\n      tag_60\n      jump\t// in\n    tag_59:\n      pop\n      swap1\n      jump\t// out\n    tag_60:\n    tag_61:\n      dup1\n      dup3\n      gt\n      iszero\n      tag_62\n      jumpi\n      0x00\n      dup2\n      0x00\n      swap1\n      sstore\n      pop\n      0x01\n      add\n      jump(tag_61)\n    tag_62:\n      pop\n      swap1\n      jump\t// out\n        /* \"#utility.yul\":7:106   */\n    tag_63:\n        /* \"#utility.yul\":59:65   */\n      0x00\n        /* \"#utility.yul\":93:98   */\n      dup2\n        /* \"#utility.yul\":87:99   */\n      mload\n        /* \"#utility.yul\":77:99   */\n      swap1\n      pop\n        /* \"#utility.yul\":7:106   */\n      swap2\n      swap1\n      pop\n      jump\t// out\n        /* \"#utility.yul\":112:271   */\n    tag_64:\n        /* \"#utility.yul\":186:197   */\n      0x00\n        /* \"#utility.yul\":220:226   */\n      dup3\n        /* \"#utility.yul\":215:218   */\n      dup3\n        /* \"#utility.yul\":208:227   */\n      mstore\n        /* \"#utility.yul\":260:264   */\n      0x20\n        /* \"#utility.yul\":255:258   */\n      dup3\n        /* \"#utility.yul\":251:265   */\n      add\n        /* \"#utility.yul\":236:265   */\n      swap1\n      pop\n        /* \"#utility.yul\":112:271   */\n      swap3\n      swap2\n      pop\n      pop\n      jump\t// out\n        /* \"#utility.yul\":277:584   */\n    tag_65:\n        /* \"#utility.yul\":345:346   */\n      0x00\n        /* \"#utility.yul\":355:468   */\n    tag_96:\n        /* \"#utility.yul\":369:375   */\n      dup4\n        /* \"#utility.yul\":366:367   */\n      dup2\n        /* \"#utility.yul\":363:376   */\n      lt\n        /* \"#utility.yul\":355:468   */\n      iszero\n      tag_98\n      jumpi\n        /* \"#utility.yul\":454:455   */\n      dup1\n        /* \"#utility.yul\":449:452   */\n      dup3\n        /* \"#utility.yul\":445:456   */\n      add\n        /* \"#utility.yul\":439:457   */\n      mload\n        /* \"#utility.yul\":435:436   */\n      dup2\n        /* \"#utility.yul\":430:433   */\n      dup5\n        /* \"#utility.yul\":426:437   */\n      add\n        /* \"#utility.yul\":419:458   */\n      mstore\n        /* \"#utility.yul\":391:393   */\n      0x20\n        /* \"#utility.yul\":388:389   */\n      dup2\n        /* \"#utility.yul\":384:394   */\n      add\n        /* \"#utility.yul\":379:394   */\n      swap1\n      pop\n        /* \"#utility.yul\":355:468   */\n      jump(tag_96)\n    tag_98:\n        /* \"#utility.yul\":486:492   */\n      dup4\n        /* \"#utility.yul\":483:484   */\n      dup2\n        /* \"#utility.yul\":480:493   */\n      gt\n        /* \"#utility.yul\":477:578   */\n      iszero\n      tag_99\n      jumpi\n        /* \"#utility.yul\":566:567   */\n      0x00\n        /* \"#utility.yul\":557:563   */\n      dup5\n        /* \"#utility.yul\":552:555   */\n      dup5\n        /* \"#utility.yul\":548:564   */\n      add\n        /* \"#utility.yul\":541:568   */\n      mstore\n        /* \"#utility.yul\":477:578   */\n    tag_99:\n        /* \"#utility.yul\":326:584   */\n      pop\n        /* \"#utility.yul\":277:584   */\n      pop\n      pop\n      pop\n      jump\t// out\n        /* \"#utility.yul\":590:692   */\n    tag_66:\n        /* \"#utility.yul\":631:637   */\n      0x00\n        /* \"#utility.yul\":682:684   */\n      0x1f\n        /* \"#utility.yul\":678:685   */\n      not\n        /* \"#utility.yul\":673:675   */\n      0x1f\n        /* \"#utility.yul\":666:671   */\n      dup4\n        /* \"#utility.yul\":662:676   */\n      add\n        /* \"#utility.yul\":658:686   */\n      and\n        /* \"#utility.yul\":648:686   */\n      swap1\n      pop\n        /* \"#utility.yul\":590:692   */\n      swap2\n      swap1\n      pop\n      jump\t// out\n        /* \"#utility.yul\":698:1042   */\n    tag_67:\n        /* \"#utility.yul\":776:779   */\n      0x00\n        /* \"#utility.yul\":804:843   */\n      tag_102\n        /* \"#utility.yul\":837:842   */\n      dup3\n        /* \"#utility.yul\":804:843   */\n      tag_63\n      jump\t// in\n    tag_102:\n        /* \"#utility.yul\":859:920   */\n      tag_103\n        /* \"#utility.yul\":913:919   */\n      dup2\n        /* \"#utility.yul\":908:911   */\n      dup6\n        /* \"#utility.yul\":859:920   */\n      tag_64\n      jump\t// in\n    tag_103:\n        /* \"#utility.yul\":852:920   */\n      swap4\n      pop\n        /* \"#utility.yul\":929:981   */\n      tag_104\n        /* \"#utility.yul\":974:980   */\n      dup2\n        /* \"#utility.yul\":969:972   */\n      dup6\n        /* \"#utility.yul\":962:966   */\n      0x20\n        /* \"#utility.yul\":955:960   */\n      dup7\n        /* \"#utility.yul\":951:967   */\n      add\n        /* \"#utility.yul\":929:981   */\n      tag_65\n      jump\t// in\n    tag_104:\n        /* \"#utility.yul\":1006:1035   */\n      tag_105\n        /* \"#utility.yul\":1028:1034   */\n      dup2\n        /* \"#utility.yul\":1006:1035   */\n      tag_66\n      jump\t// in\n    tag_105:\n        /* \"#utility.yul\":1001:1004   */\n      dup5\n        /* \"#utility.yul\":997:1036   */\n      add\n        /* \"#utility.yul\":990:1036   */\n      swap2\n      pop\n        /* \"#utility.yul\":780:1042   */\n      pop\n        /* \"#utility.yul\":698:1042   */\n      swap3\n      swap2\n      pop\n      pop\n      jump\t// out\n        /* \"#utility.yul\":1048:1137   */\n    tag_68:\n        /* \"#utility.yul\":1084:1091   */\n      0x00\n        /* \"#utility.yul\":1124:1130   */\n      0xffff\n        /* \"#utility.yul\":1117:1122   */\n      dup3\n        /* \"#utility.yul\":1113:1131   */\n      and\n        /* \"#utility.yul\":1102:1131   */\n      swap1\n      pop\n        /* \"#utility.yul\":1048:1137   */\n      swap2\n      swap1\n      pop\n      jump\t// out\n        /* \"#utility.yul\":1143:1248   */\n    tag_69:\n        /* \"#utility.yul\":1218:1241   */\n      tag_108\n        /* \"#utility.yul\":1235:1240   */\n      dup2\n        /* \"#utility.yul\":1218:1241   */\n      tag_68\n      jump\t// in\n    tag_108:\n        /* \"#utility.yul\":1213:1216   */\n      dup3\n        /* \"#utility.yul\":1206:1242   */\n      mstore\n        /* \"#utility.yul\":1143:1248   */\n      pop\n      pop\n      jump\t// out\n        /* \"#utility.yul\":1308:1899   */\n    tag_70:\n        /* \"#utility.yul\":1413:1416   */\n      0x00\n        /* \"#utility.yul\":1449:1453   */\n      0x40\n        /* \"#utility.yul\":1444:1447   */\n      dup4\n        /* \"#utility.yul\":1440:1454   */\n      add\n        /* \"#utility.yul\":1536:1540   */\n      0x00\n        /* \"#utility.yul\":1529:1534   */\n      dup4\n        /* \"#utility.yul\":1525:1541   */\n      add\n        /* \"#utility.yul\":1519:1542   */\n      mload\n        /* \"#utility.yul\":1589:1592   */\n      dup5\n        /* \"#utility.yul\":1583:1587   */\n      dup3\n        /* \"#utility.yul\":1579:1593   */\n      sub\n        /* \"#utility.yul\":1572:1576   */\n      0x00\n        /* \"#utility.yul\":1567:1570   */\n      dup7\n        /* \"#utility.yul\":1563:1577   */\n      add\n        /* \"#utility.yul\":1556:1594   */\n      mstore\n        /* \"#utility.yul\":1615:1688   */\n      tag_110\n        /* \"#utility.yul\":1683:1687   */\n      dup3\n        /* \"#utility.yul\":1669:1681   */\n      dup3\n        /* \"#utility.yul\":1615:1688   */\n      tag_67\n      jump\t// in\n    tag_110:\n        /* \"#utility.yul\":1607:1688   */\n      swap2\n      pop\n        /* \"#utility.yul\":1464:1699   */\n      pop\n        /* \"#utility.yul\":1782:1786   */\n      0x20\n        /* \"#utility.yul\":1775:1780   */\n      dup4\n        /* \"#utility.yul\":1771:1787   */\n      add\n        /* \"#utility.yul\":1765:1788   */\n      mload\n        /* \"#utility.yul\":1801:1862   */\n      tag_111\n        /* \"#utility.yul\":1856:1860   */\n      0x20\n        /* \"#utility.yul\":1851:1854   */\n      dup7\n        /* \"#utility.yul\":1847:1861   */\n      add\n        /* \"#utility.yul\":1833:1845   */\n      dup3\n        /* \"#utility.yul\":1801:1862   */\n      tag_69\n      jump\t// in\n    tag_111:\n        /* \"#utility.yul\":1709:1872   */\n      pop\n        /* \"#utility.yul\":1889:1893   */\n      dup1\n        /* \"#utility.yul\":1882:1893   */\n      swap2\n      pop\n        /* \"#utility.yul\":1418:1899   */\n      pop\n        /* \"#utility.yul\":1308:1899   */\n      swap3\n      swap2\n      pop\n      pop\n      jump\t// out\n        /* \"#utility.yul\":1905:2250   */\n    tag_10:\n        /* \"#utility.yul\":2034:2038   */\n      0x00\n        /* \"#utility.yul\":2072:2074   */\n      0x20\n        /* \"#utility.yul\":2061:2070   */\n      dup3\n        /* \"#utility.yul\":2057:2075   */\n      add\n        /* \"#utility.yul\":2049:2075   */\n      swap1\n      pop\n        /* \"#utility.yul\":2121:2130   */\n      dup2\n        /* \"#utility.yul\":2115:2119   */\n      dup2\n        /* \"#utility.yul\":2111:2131   */\n      sub\n        /* \"#utility.yul\":2107:2108   */\n      0x00\n        /* \"#utility.yul\":2096:2105   */\n      dup4\n        /* \"#utility.yul\":2092:2109   */\n      add\n        /* \"#utility.yul\":2085:2132   */\n      mstore\n        /* \"#utility.yul\":2149:2243   */\n      tag_113\n        /* \"#utility.yul\":2238:2242   */\n      dup2\n        /* \"#utility.yul\":2229:2235   */\n      dup5\n        /* \"#utility.yul\":2149:2243   */\n      tag_70\n      jump\t// in\n    tag_113:\n        /* \"#utility.yul\":2141:2243   */\n      swap1\n      pop\n        /* \"#utility.yul\":1905:2250   */\n      swap3\n      swap2\n      pop\n      pop\n      jump\t// out\n        /* \"#utility.yul\":2256:2425   */\n    tag_71:\n        /* \"#utility.yul\":2340:2351   */\n      0x00\n        /* \"#utility.yul\":2374:2380   */\n      dup3\n        /* \"#utility.yul\":2369:2372   */\n      dup3\n        /* \"#utility.yul\":2362:2381   */\n      mstore\n        /* \"#utility.yul\":2414:2418   */\n      0x20\n        /* \"#utility.yul\":2409:2412   */\n      dup3\n        /* \"#utility.yul\":2405:2419   */\n      add\n        /* \"#utility.yul\":2390:2419   */\n      swap1\n      pop\n        /* \"#utility.yul\":2256:2425   */\n      swap3\n      swap2\n      pop\n      pop\n      jump\t// out\n        /* \"#utility.yul\":2431:2795   */\n    tag_72:\n        /* \"#utility.yul\":2519:2522   */\n      0x00\n        /* \"#utility.yul\":2547:2586   */\n      tag_116\n        /* \"#utility.yul\":2580:2585   */\n      dup3\n        /* \"#utility.yul\":2547:2586   */\n      tag_63\n      jump\t// in\n    tag_116:\n        /* \"#utility.yul\":2602:2673   */\n      tag_117\n        /* \"#utility.yul\":2666:2672   */\n      dup2\n        /* \"#utility.yul\":2661:2664   */\n      dup6\n        /* \"#utility.yul\":2602:2673   */\n      tag_71\n      jump\t// in\n    tag_117:\n        /* \"#utility.yul\":2595:2673   */\n      swap4\n      pop\n        /* \"#utility.yul\":2682:2734   */\n      tag_118\n        /* \"#utility.yul\":2727:2733   */\n      dup2\n        /* \"#utility.yul\":2722:2725   */\n      dup6\n        /* \"#utility.yul\":2715:2719   */\n      0x20\n        /* \"#utility.yul\":2708:2713   */\n      dup7\n        /* \"#utility.yul\":2704:2720   */\n      add\n        /* \"#utility.yul\":2682:2734   */\n      tag_65\n      jump\t// in\n    tag_118:\n        /* \"#utility.yul\":2759:2788   */\n      tag_119\n        /* \"#utility.yul\":2781:2787   */\n      dup2\n        /* \"#utility.yul\":2759:2788   */\n      tag_66\n      jump\t// in\n    tag_119:\n        /* \"#utility.yul\":2754:2757   */\n      dup5\n        /* \"#utility.yul\":2750:2789   */\n      add\n        /* \"#utility.yul\":2743:2789   */\n      swap2\n      pop\n        /* \"#utility.yul\":2523:2795   */\n      pop\n        /* \"#utility.yul\":2431:2795   */\n      swap3\n      swap2\n      pop\n      pop\n      jump\t// out\n        /* \"#utility.yul\":2801:2916   */\n    tag_73:\n        /* \"#utility.yul\":2886:2909   */\n      tag_121\n        /* \"#utility.yul\":2903:2908   */\n      dup2\n        /* \"#utility.yul\":2886:2909   */\n      tag_68\n      jump\t// in\n    tag_121:\n        /* \"#utility.yul\":2881:2884   */\n      dup3\n        /* \"#utility.yul\":2874:2910   */\n      mstore\n        /* \"#utility.yul\":2801:2916   */\n      pop\n      pop\n      jump\t// out\n        /* \"#utility.yul\":2922:3341   */\n    tag_14:\n        /* \"#utility.yul\":3061:3065   */\n      0x00\n        /* \"#utility.yul\":3099:3101   */\n      0x40\n        /* \"#utility.yul\":3088:3097   */\n      dup3\n        /* \"#utility.yul\":3084:3102   */\n      add\n        /* \"#utility.yul\":3076:3102   */\n      swap1\n      pop\n        /* \"#utility.yul\":3148:3157   */\n      dup2\n        /* \"#utility.yul\":3142:3146   */\n      dup2\n        /* \"#utility.yul\":3138:3158   */\n      sub\n        /* \"#utility.yul\":3134:3135   */\n      0x00\n        /* \"#utility.yul\":3123:3132   */\n      dup4\n        /* \"#utility.yul\":3119:3136   */\n      add\n        /* \"#utility.yul\":3112:3159   */\n      mstore\n        /* \"#utility.yul\":3176:3254   */\n      tag_123\n        /* \"#utility.yul\":3249:3253   */\n      dup2\n        /* \"#utility.yul\":3240:3246   */\n      dup6\n        /* \"#utility.yul\":3176:3254   */\n      tag_72\n      jump\t// in\n    tag_123:\n        /* \"#utility.yul\":3168:3254   */\n      swap1\n      pop\n        /* \"#utility.yul\":3264:3334   */\n      tag_124\n        /* \"#utility.yul\":3330:3332   */\n      0x20\n        /* \"#utility.yul\":3319:3328   */\n      dup4\n        /* \"#utility.yul\":3315:3333   */\n      add\n        /* \"#utility.yul\":3306:3312   */\n      dup5\n        /* \"#utility.yul\":3264:3334   */\n      tag_73\n      jump\t// in\n    tag_124:\n        /* \"#utility.yul\":2922:3341   */\n      swap4\n      swap3\n      pop\n      pop\n      pop\n      jump\t// out\n        /* \"#utility.yul\":3347:3422   */\n    tag_74:\n        /* \"#utility.yul\":3380:3386   */\n      0x00\n        /* \"#utility.yul\":3413:3415   */\n      0x40\n        /* \"#utility.yul\":3407:3416   */\n      mload\n        /* \"#utility.yul\":3397:3416   */\n      swap1\n      pop\n        /* \"#utility.yul\":3347:3422   */\n      swap1\n      jump\t// out\n        /* \"#utility.yul\":3428:3545   */\n    tag_75:\n        /* \"#utility.yul\":3537:3538   */\n      0x00\n        /* \"#utility.yul\":3534:3535   */\n      dup1\n        /* \"#utility.yul\":3527:3539   */\n      revert\n        /* \"#utility.yul\":3551:3668   */\n    tag_76:\n        /* \"#utility.yul\":3660:3661   */\n      0x00\n        /* \"#utility.yul\":3657:3658   */\n      dup1\n        /* \"#utility.yul\":3650:3662   */\n      revert\n        /* \"#utility.yul\":3674:3791   */\n    tag_77:\n        /* \"#utility.yul\":3783:3784   */\n      0x00\n        /* \"#utility.yul\":3780:3781   */\n      dup1\n        /* \"#utility.yul\":3773:3785   */\n      revert\n        /* \"#utility.yul\":3797:3914   */\n    tag_78:\n        /* \"#utility.yul\":3906:3907   */\n      0x00\n        /* \"#utility.yul\":3903:3904   */\n      dup1\n        /* \"#utility.yul\":3896:3908   */\n      revert\n        /* \"#utility.yul\":3920:4100   */\n    tag_79:\n        /* \"#utility.yul\":3968:4045   */\n      0x4e487b7100000000000000000000000000000000000000000000000000000000\n        /* \"#utility.yul\":3965:3966   */\n      0x00\n        /* \"#utility.yul\":3958:4046   */\n      mstore\n        /* \"#utility.yul\":4065:4069   */\n      0x41\n        /* \"#utility.yul\":4062:4063   */\n      0x04\n        /* \"#utility.yul\":4055:4070   */\n      mstore\n        /* \"#utility.yul\":4089:4093   */\n      0x24\n        /* \"#utility.yul\":4086:4087   */\n      0x00\n        /* \"#utility.yul\":4079:4094   */\n      revert\n        /* \"#utility.yul\":4106:4387   */\n    tag_80:\n        /* \"#utility.yul\":4189:4216   */\n      tag_132\n        /* \"#utility.yul\":4211:4215   */\n      dup3\n        /* \"#utility.yul\":4189:4216   */\n      tag_66\n      jump\t// in\n    tag_132:\n        /* \"#utility.yul\":4181:4187   */\n      dup2\n        /* \"#utility.yul\":4177:4217   */\n      add\n        /* \"#utility.yul\":4319:4325   */\n      dup2\n        /* \"#utility.yul\":4307:4317   */\n      dup2\n        /* \"#utility.yul\":4304:4326   */\n      lt\n        /* \"#utility.yul\":4283:4301   */\n      0xffffffffffffffff\n        /* \"#utility.yul\":4271:4281   */\n      dup3\n        /* \"#utility.yul\":4268:4302   */\n      gt\n        /* \"#utility.yul\":4265:4327   */\n      or\n        /* \"#utility.yul\":4262:4350   */\n      iszero\n      tag_133\n      jumpi\n        /* \"#utility.yul\":4330:4348   */\n      tag_134\n      tag_79\n      jump\t// in\n    tag_134:\n        /* \"#utility.yul\":4262:4350   */\n    tag_133:\n        /* \"#utility.yul\":4370:4380   */\n      dup1\n        /* \"#utility.yul\":4366:4368   */\n      0x40\n        /* \"#utility.yul\":4359:4381   */\n      mstore\n        /* \"#utility.yul\":4149:4387   */\n      pop\n        /* \"#utility.yul\":4106:4387   */\n      pop\n      pop\n      jump\t// out\n        /* \"#utility.yul\":4393:4522   */\n    tag_81:\n        /* \"#utility.yul\":4427:4433   */\n      0x00\n        /* \"#utility.yul\":4454:4474   */\n      tag_136\n      tag_74\n      jump\t// in\n    tag_136:\n        /* \"#utility.yul\":4444:4474   */\n      swap1\n      pop\n        /* \"#utility.yul\":4483:4516   */\n      tag_137\n        /* \"#utility.yul\":4511:4515   */\n      dup3\n        /* \"#utility.yul\":4503:4509   */\n      dup3\n        /* \"#utility.yul\":4483:4516   */\n      tag_80\n      jump\t// in\n    tag_137:\n        /* \"#utility.yul\":4393:4522   */\n      swap2\n      swap1\n      pop\n      jump\t// out\n        /* \"#utility.yul\":4528:4836   */\n    tag_82:\n        /* \"#utility.yul\":4590:4594   */\n      0x00\n        /* \"#utility.yul\":4680:4698   */\n      0xffffffffffffffff\n        /* \"#utility.yul\":4672:4678   */\n      dup3\n        /* \"#utility.yul\":4669:4699   */\n      gt\n        /* \"#utility.yul\":4666:4722   */\n      iszero\n      tag_139\n      jumpi\n        /* \"#utility.yul\":4702:4720   */\n      tag_140\n      tag_79\n      jump\t// in\n    tag_140:\n        /* \"#utility.yul\":4666:4722   */\n    tag_139:\n        /* \"#utility.yul\":4740:4769   */\n      tag_141\n        /* \"#utility.yul\":4762:4768   */\n      dup3\n        /* \"#utility.yul\":4740:4769   */\n      tag_66\n      jump\t// in\n    tag_141:\n        /* \"#utility.yul\":4732:4769   */\n      swap1\n      pop\n        /* \"#utility.yul\":4824:4828   */\n      0x20\n        /* \"#utility.yul\":4818:4822   */\n      dup2\n        /* \"#utility.yul\":4814:4829   */\n      add\n        /* \"#utility.yul\":4806:4829   */\n      swap1\n      pop\n        /* \"#utility.yul\":4528:4836   */\n      swap2\n      swap1\n      pop\n      jump\t// out\n        /* \"#utility.yul\":4842:4996   */\n    tag_83:\n        /* \"#utility.yul\":4926:4932   */\n      dup3\n        /* \"#utility.yul\":4921:4924   */\n      dup2\n        /* \"#utility.yul\":4916:4919   */\n      dup4\n        /* \"#utility.yul\":4903:4933   */\n      calldatacopy\n        /* \"#utility.yul\":4988:4989   */\n      0x00\n        /* \"#utility.yul\":4979:4985   */\n      dup4\n        /* \"#utility.yul\":4974:4977   */\n      dup4\n        /* \"#utility.yul\":4970:4986   */\n      add\n        /* \"#utility.yul\":4963:4990   */\n      mstore\n        /* \"#utility.yul\":4842:4996   */\n      pop\n      pop\n      pop\n      jump\t// out\n        /* \"#utility.yul\":5002:5414   */\n    tag_84:\n        /* \"#utility.yul\":5080:5085   */\n      0x00\n        /* \"#utility.yul\":5105:5171   */\n      tag_144\n        /* \"#utility.yul\":5121:5170   */\n      tag_145\n        /* \"#utility.yul\":5163:5169   */\n      dup5\n        /* \"#utility.yul\":5121:5170   */\n      tag_82\n      jump\t// in\n    tag_145:\n        /* \"#utility.yul\":5105:5171   */\n      tag_81\n      jump\t// in\n    tag_144:\n        /* \"#utility.yul\":5096:5171   */\n      swap1\n      pop\n        /* \"#utility.yul\":5194:5200   */\n      dup3\n        /* \"#utility.yul\":5187:5192   */\n      dup2\n        /* \"#utility.yul\":5180:5201   */\n      mstore\n        /* \"#utility.yul\":5232:5236   */\n      0x20\n        /* \"#utility.yul\":5225:5230   */\n      dup2\n        /* \"#utility.yul\":5221:5237   */\n      add\n        /* \"#utility.yul\":5270:5273   */\n      dup5\n        /* \"#utility.yul\":5261:5267   */\n      dup5\n        /* \"#utility.yul\":5256:5259   */\n      dup5\n        /* \"#utility.yul\":5252:5268   */\n      add\n        /* \"#utility.yul\":5249:5274   */\n      gt\n        /* \"#utility.yul\":5246:5358   */\n      iszero\n      tag_146\n      jumpi\n        /* \"#utility.yul\":5277:5356   */\n      tag_147\n      tag_78\n      jump\t// in\n    tag_147:\n        /* \"#utility.yul\":5246:5358   */\n    tag_146:\n        /* \"#utility.yul\":5367:5408   */\n      tag_148\n        /* \"#utility.yul\":5401:5407   */\n      dup5\n        /* \"#utility.yul\":5396:5399   */\n      dup3\n        /* \"#utility.yul\":5391:5394   */\n      dup6\n        /* \"#utility.yul\":5367:5408   */\n      tag_83\n      jump\t// in\n    tag_148:\n        /* \"#utility.yul\":5086:5414   */\n      pop\n        /* \"#utility.yul\":5002:5414   */\n      swap4\n      swap3\n      pop\n      pop\n      pop\n      jump\t// out\n        /* \"#utility.yul\":5434:5774   */\n    tag_85:\n        /* \"#utility.yul\":5490:5495   */\n      0x00\n        /* \"#utility.yul\":5539:5542   */\n      dup3\n        /* \"#utility.yul\":5532:5536   */\n      0x1f\n        /* \"#utility.yul\":5524:5530   */\n      dup4\n        /* \"#utility.yul\":5520:5537   */\n      add\n        /* \"#utility.yul\":5516:5543   */\n      slt\n        /* \"#utility.yul\":5506:5628   */\n      tag_150\n      jumpi\n        /* \"#utility.yul\":5547:5626   */\n      tag_151\n      tag_77\n      jump\t// in\n    tag_151:\n        /* \"#utility.yul\":5506:5628   */\n    tag_150:\n        /* \"#utility.yul\":5664:5670   */\n      dup2\n        /* \"#utility.yul\":5651:5671   */\n      calldataload\n        /* \"#utility.yul\":5689:5768   */\n      tag_152\n        /* \"#utility.yul\":5764:5767   */\n      dup5\n        /* \"#utility.yul\":5756:5762   */\n      dup3\n        /* \"#utility.yul\":5749:5753   */\n      0x20\n        /* \"#utility.yul\":5741:5747   */\n      dup7\n        /* \"#utility.yul\":5737:5754   */\n      add\n        /* \"#utility.yul\":5689:5768   */\n      tag_84\n      jump\t// in\n    tag_152:\n        /* \"#utility.yul\":5680:5768   */\n      swap2\n      pop\n        /* \"#utility.yul\":5496:5774   */\n      pop\n        /* \"#utility.yul\":5434:5774   */\n      swap3\n      swap2\n      pop\n      pop\n      jump\t// out\n        /* \"#utility.yul\":5780:5900   */\n    tag_86:\n        /* \"#utility.yul\":5852:5875   */\n      tag_154\n        /* \"#utility.yul\":5869:5874   */\n      dup2\n        /* \"#utility.yul\":5852:5875   */\n      tag_68\n      jump\t// in\n    tag_154:\n        /* \"#utility.yul\":5845:5850   */\n      dup2\n        /* \"#utility.yul\":5842:5876   */\n      eq\n        /* \"#utility.yul\":5832:5894   */\n      tag_155\n      jumpi\n        /* \"#utility.yul\":5890:5891   */\n      0x00\n        /* \"#utility.yul\":5887:5888   */\n      dup1\n        /* \"#utility.yul\":5880:5892   */\n      revert\n        /* \"#utility.yul\":5832:5894   */\n    tag_155:\n        /* \"#utility.yul\":5780:5900   */\n      pop\n      jump\t// out\n        /* \"#utility.yul\":5906:6043   */\n    tag_87:\n        /* \"#utility.yul\":5951:5956   */\n      0x00\n        /* \"#utility.yul\":5989:5995   */\n      dup2\n        /* \"#utility.yul\":5976:5996   */\n      calldataload\n        /* \"#utility.yul\":5967:5996   */\n      swap1\n      pop\n        /* \"#utility.yul\":6005:6037   */\n      tag_157\n        /* \"#utility.yul\":6031:6036   */\n      dup2\n        /* \"#utility.yul\":6005:6037   */\n      tag_86\n      jump\t// in\n    tag_157:\n        /* \"#utility.yul\":5906:6043   */\n      swap3\n      swap2\n      pop\n      pop\n      jump\t// out\n        /* \"#utility.yul\":6049:6701   */\n    tag_17:\n        /* \"#utility.yul\":6126:6132   */\n      0x00\n        /* \"#utility.yul\":6134:6140   */\n      dup1\n        /* \"#utility.yul\":6183:6185   */\n      0x40\n        /* \"#utility.yul\":6171:6180   */\n      dup4\n        /* \"#utility.yul\":6162:6169   */\n      dup6\n        /* \"#utility.yul\":6158:6181   */\n      sub\n        /* \"#utility.yul\":6154:6186   */\n      slt\n        /* \"#utility.yul\":6151:6270   */\n      iszero\n      tag_159\n      jumpi\n        /* \"#utility.yul\":6189:6268   */\n      tag_160\n      tag_75\n      jump\t// in\n    tag_160:\n        /* \"#utility.yul\":6151:6270   */\n    tag_159:\n        /* \"#utility.yul\":6337:6338   */\n      0x00\n        /* \"#utility.yul\":6326:6335   */\n      dup4\n        /* \"#utility.yul\":6322:6339   */\n      add\n        /* \"#utility.yul\":6309:6340   */\n      calldataload\n        /* \"#utility.yul\":6367:6385   */\n      0xffffffffffffffff\n        /* \"#utility.yul\":6359:6365   */\n      dup2\n        /* \"#utility.yul\":6356:6386   */\n      gt\n        /* \"#utility.yul\":6353:6470   */\n      iszero\n      tag_161\n      jumpi\n        /* \"#utility.yul\":6389:6468   */\n      tag_162\n      tag_76\n      jump\t// in\n    tag_162:\n        /* \"#utility.yul\":6353:6470   */\n    tag_161:\n        /* \"#utility.yul\":6494:6557   */\n      tag_163\n        /* \"#utility.yul\":6549:6556   */\n      dup6\n        /* \"#utility.yul\":6540:6546   */\n      dup3\n        /* \"#utility.yul\":6529:6538   */\n      dup7\n        /* \"#utility.yul\":6525:6547   */\n      add\n        /* \"#utility.yul\":6494:6557   */\n      tag_85\n      jump\t// in\n    tag_163:\n        /* \"#utility.yul\":6484:6557   */\n      swap3\n      pop\n        /* \"#utility.yul\":6280:6567   */\n      pop\n        /* \"#utility.yul\":6606:6608   */\n      0x20\n        /* \"#utility.yul\":6632:6684   */\n      tag_164\n        /* \"#utility.yul\":6676:6683   */\n      dup6\n        /* \"#utility.yul\":6667:6673   */\n      dup3\n        /* \"#utility.yul\":6656:6665   */\n      dup7\n        /* \"#utility.yul\":6652:6674   */\n      add\n        /* \"#utility.yul\":6632:6684   */\n      tag_87\n      jump\t// in\n    tag_164:\n        /* \"#utility.yul\":6622:6684   */\n      swap2\n      pop\n        /* \"#utility.yul\":6577:6694   */\n      pop\n        /* \"#utility.yul\":6049:6701   */\n      swap3\n      pop\n      swap3\n      swap1\n      pop\n      jump\t// out\n        /* \"#utility.yul\":6707:6784   */\n    tag_88:\n        /* \"#utility.yul\":6744:6751   */\n      0x00\n        /* \"#utility.yul\":6773:6778   */\n      dup2\n        /* \"#utility.yul\":6762:6778   */\n      swap1\n      pop\n        /* \"#utility.yul\":6707:6784   */\n      swap2\n      swap1\n      pop\n      jump\t// out\n        /* \"#utility.yul\":6790:6912   */\n    tag_89:\n        /* \"#utility.yul\":6863:6887   */\n      tag_167\n        /* \"#utility.yul\":6881:6886   */\n      dup2\n        /* \"#utility.yul\":6863:6887   */\n      tag_88\n      jump\t// in\n    tag_167:\n        /* \"#utility.yul\":6856:6861   */\n      dup2\n        /* \"#utility.yul\":6853:6888   */\n      eq\n        /* \"#utility.yul\":6843:6906   */\n      tag_168\n      jumpi\n        /* \"#utility.yul\":6902:6903   */\n      0x00\n        /* \"#utility.yul\":6899:6900   */\n      dup1\n        /* \"#utility.yul\":6892:6904   */\n      revert\n        /* \"#utility.yul\":6843:6906   */\n    tag_168:\n        /* \"#utility.yul\":6790:6912   */\n      pop\n      jump\t// out\n        /* \"#utility.yul\":6918:7057   */\n    tag_90:\n        /* \"#utility.yul\":6964:6969   */\n      0x00\n        /* \"#utility.yul\":7002:7008   */\n      dup2\n        /* \"#utility.yul\":6989:7009   */\n      calldataload\n        /* \"#utility.yul\":6980:7009   */\n      swap1\n      pop\n        /* \"#utility.yul\":7018:7051   */\n      tag_170\n        /* \"#utility.yul\":7045:7050   */\n      dup2\n        /* \"#utility.yul\":7018:7051   */\n      tag_89\n      jump\t// in\n    tag_170:\n        /* \"#utility.yul\":6918:7057   */\n      swap3\n      swap2\n      pop\n      pop\n      jump\t// out\n        /* \"#utility.yul\":7063:7392   */\n    tag_21:\n        /* \"#utility.yul\":7122:7128   */\n      0x00\n        /* \"#utility.yul\":7171:7173   */\n      0x20\n        /* \"#utility.yul\":7159:7168   */\n      dup3\n        /* \"#utility.yul\":7150:7157   */\n      dup5\n        /* \"#utility.yul\":7146:7169   */\n      sub\n        /* \"#utility.yul\":7142:7174   */\n      slt\n        /* \"#utility.yul\":7139:7258   */\n      iszero\n      tag_172\n      jumpi\n        /* \"#utility.yul\":7177:7256   */\n      tag_173\n      tag_75\n      jump\t// in\n    tag_173:\n        /* \"#utility.yul\":7139:7258   */\n    tag_172:\n        /* \"#utility.yul\":7297:7298   */\n      0x00\n        /* \"#utility.yul\":7322:7375   */\n      tag_174\n        /* \"#utility.yul\":7367:7374   */\n      dup5\n        /* \"#utility.yul\":7358:7364   */\n      dup3\n        /* \"#utility.yul\":7347:7356   */\n      dup6\n        /* \"#utility.yul\":7343:7365   */\n      add\n        /* \"#utility.yul\":7322:7375   */\n      tag_90\n      jump\t// in\n    tag_174:\n        /* \"#utility.yul\":7312:7375   */\n      swap2\n      pop\n        /* \"#utility.yul\":7268:7385   */\n      pop\n        /* \"#utility.yul\":7063:7392   */\n      swap3\n      swap2\n      pop\n      pop\n      jump\t// out\n        /* \"#utility.yul\":7398:7578   */\n    tag_29:\n        /* \"#utility.yul\":7446:7523   */\n      0x4e487b7100000000000000000000000000000000000000000000000000000000\n        /* \"#utility.yul\":7443:7444   */\n      0x00\n        /* \"#utility.yul\":7436:7524   */\n      mstore\n        /* \"#utility.yul\":7543:7547   */\n      0x32\n        /* \"#utility.yul\":7540:7541   */\n      0x04\n        /* \"#utility.yul\":7533:7548   */\n      mstore\n        /* \"#utility.yul\":7567:7571   */\n      0x24\n        /* \"#utility.yul\":7564:7565   */\n      0x00\n        /* \"#utility.yul\":7557:7572   */\n      revert\n        /* \"#utility.yul\":7584:7764   */\n    tag_91:\n        /* \"#utility.yul\":7632:7709   */\n      0x4e487b7100000000000000000000000000000000000000000000000000000000\n        /* \"#utility.yul\":7629:7630   */\n      0x00\n        /* \"#utility.yul\":7622:7710   */\n      mstore\n        /* \"#utility.yul\":7729:7733   */\n      0x22\n        /* \"#utility.yul\":7726:7727   */\n      0x04\n        /* \"#utility.yul\":7719:7734   */\n      mstore\n        /* \"#utility.yul\":7753:7757   */\n      0x24\n        /* \"#utility.yul\":7750:7751   */\n      0x00\n        /* \"#utility.yul\":7743:7758   */\n      revert\n        /* \"#utility.yul\":7770:8090   */\n    tag_32:\n        /* \"#utility.yul\":7814:7820   */\n      0x00\n        /* \"#utility.yul\":7851:7852   */\n      0x02\n        /* \"#utility.yul\":7845:7849   */\n      dup3\n        /* \"#utility.yul\":7841:7853   */\n      div\n        /* \"#utility.yul\":7831:7853   */\n      swap1\n      pop\n        /* \"#utility.yul\":7898:7899   */\n      0x01\n        /* \"#utility.yul\":7892:7896   */\n      dup3\n        /* \"#utility.yul\":7888:7900   */\n      and\n        /* \"#utility.yul\":7919:7937   */\n      dup1\n        /* \"#utility.yul\":7909:7990   */\n      tag_178\n      jumpi\n        /* \"#utility.yul\":7975:7979   */\n      0x7f\n        /* \"#utility.yul\":7967:7973   */\n      dup3\n        /* \"#utility.yul\":7963:7980   */\n      and\n        /* \"#utility.yul\":7953:7980   */\n      swap2\n      pop\n        /* \"#utility.yul\":7909:7990   */\n    tag_178:\n        /* \"#utility.yul\":8037:8039   */\n      0x20\n        /* \"#utility.yul\":8029:8035   */\n      dup3\n        /* \"#utility.yul\":8026:8040   */\n      lt\n        /* \"#utility.yul\":8006:8024   */\n      dup2\n        /* \"#utility.yul\":8003:8041   */\n      sub\n        /* \"#utility.yul\":8000:8084   */\n      tag_179\n      jumpi\n        /* \"#utility.yul\":8056:8074   */\n      tag_180\n      tag_91\n      jump\t// in\n    tag_180:\n        /* \"#utility.yul\":8000:8084   */\n    tag_179:\n        /* \"#utility.yul\":7821:8090   */\n      pop\n        /* \"#utility.yul\":7770:8090   */\n      swap2\n      swap1\n      pop\n      jump\t// out\n\n    auxdata: 0xa26469706673582212204dc7d5013ef78f9aab45e4e36219b66acc761e7e40a8eca4cf9adfce4bc23a0664736f6c634300080d0033\n}\n",
				"bytecode": {
					"linkReferences": {},
					"object": "608060405260405180604001604052806040518060400160405280600481526020017f4f70656c0000000000000000000000000000000000000000000000000000000081525081526020016104b061ffff16815250600160008201518160000190805190602001906100729291906100aa565b5060208201518160010160006101000a81548161ffff021916908361ffff16021790555050503480156100a457600080fd5b506101ad565b8280546100b69061017c565b90600052602060002090601f0160209004810192826100d8576000855561011f565b82601f106100f157805160ff191683800117855561011f565b8280016001018555821561011f579182015b8281111561011e578251825591602001919060010190610103565b5b50905061012c9190610130565b5090565b5b80821115610149576000816000905550600101610131565b5090565b7f4e487b7100000000000000000000000000000000000000000000000000000000600052602260045260246000fd5b6000600282049050600182168061019457607f821691505b6020821081036101a7576101a661014d565b5b50919050565b61091b806101bc6000396000f3fe608060405234801561001057600080fd5b506004361061004c5760003560e01c80638dea9cd8146100515780639cdde8131461006f578063aba3b91b1461008e578063f7746e36146100aa575b600080fd5b6100596100db565b6040516100669190610577565b60405180910390f35b6100776101c7565b6040516100859291906105f2565b60405180910390f35b6100a860048036038101906100a39190610797565b61026f565b005b6100c460048036038101906100bf9190610829565b6102f9565b6040516100d29291906105f2565b60405180910390f35b6100e36103c3565b600080815481106100f7576100f6610856565b5b9060005260206000209060020201604051806040016040529081600082018054610120906108b4565b80601f016020809104026020016040519081016040528092919081815260200182805461014c906108b4565b80156101995780601f1061016e57610100808354040283529160200191610199565b820191906000526020600020905b81548152906001019060200180831161017c57829003601f168201915b505050505081526020016001820160009054906101000a900461ffff1661ffff1661ffff1681525050905090565b60018060000180546101d8906108b4565b80601f0160208091040260200160405190810160405280929190818152602001828054610204906108b4565b80156102515780601f1061022657610100808354040283529160200191610251565b820191906000526020600020905b81548152906001019060200180831161023457829003601f168201915b5050505050908060010160009054906101000a900461ffff16905082565b600060405180604001604052808481526020018361ffff16815250908060018154018082558091505060019003906000526020600020906002020160009091909190915060008201518160000190805190602001906102cf9291906103e1565b5060208201518160010160006101000a81548161ffff021916908361ffff16021790555050505050565b6000818154811061030957600080fd5b906000526020600020906002020160009150905080600001805461032c906108b4565b80601f0160208091040260200160405190810160405280929190818152602001828054610358906108b4565b80156103a55780601f1061037a576101008083540402835291602001916103a5565b820191906000526020600020905b81548152906001019060200180831161038857829003601f168201915b5050505050908060010160009054906101000a900461ffff16905082565b604051806040016040528060608152602001600061ffff1681525090565b8280546103ed906108b4565b90600052602060002090601f01602090048101928261040f5760008555610456565b82601f1061042857805160ff1916838001178555610456565b82800160010185558215610456579182015b8281111561045557825182559160200191906001019061043a565b5b5090506104639190610467565b5090565b5b80821115610480576000816000905550600101610468565b5090565b600081519050919050565b600082825260208201905092915050565b60005b838110156104be5780820151818401526020810190506104a3565b838111156104cd576000848401525b50505050565b6000601f19601f8301169050919050565b60006104ef82610484565b6104f9818561048f565b93506105098185602086016104a0565b610512816104d3565b840191505092915050565b600061ffff82169050919050565b6105348161051d565b82525050565b6000604083016000830151848203600086015261055782826104e4565b915050602083015161056c602086018261052b565b508091505092915050565b60006020820190508181036000830152610591818461053a565b905092915050565b600082825260208201905092915050565b60006105b582610484565b6105bf8185610599565b93506105cf8185602086016104a0565b6105d8816104d3565b840191505092915050565b6105ec8161051d565b82525050565b6000604082019050818103600083015261060c81856105aa565b905061061b60208301846105e3565b9392505050565b6000604051905090565b600080fd5b600080fd5b600080fd5b600080fd5b7f4e487b7100000000000000000000000000000000000000000000000000000000600052604160045260246000fd5b610678826104d3565b810181811067ffffffffffffffff8211171561069757610696610640565b5b80604052505050565b60006106aa610622565b90506106b6828261066f565b919050565b600067ffffffffffffffff8211156106d6576106d5610640565b5b6106df826104d3565b9050602081019050919050565b82818337600083830152505050565b600061070e610709846106bb565b6106a0565b90508281526020810184848401111561072a5761072961063b565b5b6107358482856106ec565b509392505050565b600082601f83011261075257610751610636565b5b81356107628482602086016106fb565b91505092915050565b6107748161051d565b811461077f57600080fd5b50565b6000813590506107918161076b565b92915050565b600080604083850312156107ae576107ad61062c565b5b600083013567ffffffffffffffff8111156107cc576107cb610631565b5b6107d88582860161073d565b92505060206107e985828601610782565b9150509250929050565b6000819050919050565b610806816107f3565b811461081157600080fd5b50565b600081359050610823816107fd565b92915050565b60006020828403121561083f5761083e61062c565b5b600061084d84828501610814565b91505092915050565b7f4e487b7100000000000000000000000000000000000000000000000000000000600052603260045260246000fd5b7f4e487b7100000000000000000000000000000000000000000000000000000000600052602260045260246000fd5b600060028204905060018216806108cc57607f821691505b6020821081036108df576108de610885565b5b5091905056fea26469706673582212204dc7d5013ef78f9aab45e4e36219b66acc761e7e40a8eca4cf9adfce4bc23a0664736f6c634300080d0033",
					"opcodes": "PUSH1 0x80 PUSH1 0x40 MSTORE PUSH1 0x40 MLOAD DUP1 PUSH1 0x40 ADD PUSH1 0x40 MSTORE DUP1 PUSH1 0x40 MLOAD DUP1 PUSH1 0x40 ADD PUSH1 0x40 MSTORE DUP1 PUSH1 0x4 DUP2 MSTORE PUSH1 0x20 ADD PUSH32 0x4F70656C00000000000000000000000000000000000000000000000000000000 DUP2 MSTORE POP DUP2 MSTORE PUSH1 0x20 ADD PUSH2 0x4B0 PUSH2 0xFFFF AND DUP2 MSTORE POP PUSH1 0x1 PUSH1 0x0 DUP3 ADD MLOAD DUP2 PUSH1 0x0 ADD SWAP1 DUP1 MLOAD SWAP1 PUSH1 0x20 ADD SWAP1 PUSH2 0x72 SWAP3 SWAP2 SWAP1 PUSH2 0xAA JUMP JUMPDEST POP PUSH1 0x20 DUP3 ADD MLOAD DUP2 PUSH1 0x1 ADD PUSH1 0x0 PUSH2 0x100 EXP DUP2 SLOAD DUP2 PUSH2 0xFFFF MUL NOT AND SWAP1 DUP4 PUSH2 0xFFFF AND MUL OR SWAP1 SSTORE POP POP POP CALLVALUE DUP1 ISZERO PUSH2 0xA4 JUMPI PUSH1 0x0 DUP1 REVERT JUMPDEST POP PUSH2 0x1AD JUMP JUMPDEST DUP3 DUP1 SLOAD PUSH2 0xB6 SWAP1 PUSH2 0x17C JUMP JUMPDEST SWAP1 PUSH1 0x0 MSTORE PUSH1 0x20 PUSH1 0x0 KECCAK256 SWAP1 PUSH1 0x1F ADD PUSH1 0x20 SWAP1 DIV DUP2 ADD SWAP3 DUP3 PUSH2 0xD8 JUMPI PUSH1 0x0 DUP6 SSTORE PUSH2 0x11F JUMP JUMPDEST DUP3 PUSH1 0x1F LT PUSH2 0xF1 JUMPI DUP1 MLOAD PUSH1 0xFF NOT AND DUP4 DUP1 ADD OR DUP6 SSTORE PUSH2 0x11F JUMP JUMPDEST DUP3 DUP1 ADD PUSH1 0x1 ADD DUP6 SSTORE DUP3 ISZERO PUSH2 0x11F JUMPI SWAP2 DUP3 ADD JUMPDEST DUP3 DUP2 GT ISZERO PUSH2 0x11E JUMPI DUP3 MLOAD DUP3 SSTORE SWAP2 PUSH1 0x20 ADD SWAP2 SWAP1 PUSH1 0x1 ADD SWAP1 PUSH2 0x103 JUMP JUMPDEST JUMPDEST POP SWAP1 POP PUSH2 0x12C SWAP2 SWAP1 PUSH2 0x130 JUMP JUMPDEST POP SWAP1 JUMP JUMPDEST JUMPDEST DUP1 DUP3 GT ISZERO PUSH2 0x149 JUMPI PUSH1 0x0 DUP2 PUSH1 0x0 SWAP1 SSTORE POP PUSH1 0x1 ADD PUSH2 0x131 JUMP JUMPDEST POP SWAP1 JUMP JUMPDEST PUSH32 0x4E487B7100000000000000000000000000000000000000000000000000000000 PUSH1 0x0 MSTORE PUSH1 0x22 PUSH1 0x4 MSTORE PUSH1 0x24 PUSH1 0x0 REVERT JUMPDEST PUSH1 0x0 PUSH1 0x2 DUP3 DIV SWAP1 POP PUSH1 0x1 DUP3 AND DUP1 PUSH2 0x194 JUMPI PUSH1 0x7F DUP3 AND SWAP2 POP JUMPDEST PUSH1 0x20 DUP3 LT DUP2 SUB PUSH2 0x1A7 JUMPI PUSH2 0x1A6 PUSH2 0x14D JUMP JUMPDEST JUMPDEST POP SWAP2 SWAP1 POP JUMP JUMPDEST PUSH2 0x91B DUP1 PUSH2 0x1BC PUSH1 0x0 CODECOPY PUSH1 0x0 RETURN INVALID PUSH1 0x80 PUSH1 0x40 MSTORE CALLVALUE DUP1 ISZERO PUSH2 0x10 JUMPI PUSH1 0x0 DUP1 REVERT JUMPDEST POP PUSH1 0x4 CALLDATASIZE LT PUSH2 0x4C JUMPI PUSH1 0x0 CALLDATALOAD PUSH1 0xE0 SHR DUP1 PUSH4 0x8DEA9CD8 EQ PUSH2 0x51 JUMPI DUP1 PUSH4 0x9CDDE813 EQ PUSH2 0x6F JUMPI DUP1 PUSH4 0xABA3B91B EQ PUSH2 0x8E JUMPI DUP1 PUSH4 0xF7746E36 EQ PUSH2 0xAA JUMPI JUMPDEST PUSH1 0x0 DUP1 REVERT JUMPDEST PUSH2 0x59 PUSH2 0xDB JUMP JUMPDEST PUSH1 0x40 MLOAD PUSH2 0x66 SWAP2 SWAP1 PUSH2 0x577 JUMP JUMPDEST PUSH1 0x40 MLOAD DUP1 SWAP2 SUB SWAP1 RETURN JUMPDEST PUSH2 0x77 PUSH2 0x1C7 JUMP JUMPDEST PUSH1 0x40 MLOAD PUSH2 0x85 SWAP3 SWAP2 SWAP1 PUSH2 0x5F2 JUMP JUMPDEST PUSH1 0x40 MLOAD DUP1 SWAP2 SUB SWAP1 RETURN JUMPDEST PUSH2 0xA8 PUSH1 0x4 DUP1 CALLDATASIZE SUB DUP2 ADD SWAP1 PUSH2 0xA3 SWAP2 SWAP1 PUSH2 0x797 JUMP JUMPDEST PUSH2 0x26F JUMP JUMPDEST STOP JUMPDEST PUSH2 0xC4 PUSH1 0x4 DUP1 CALLDATASIZE SUB DUP2 ADD SWAP1 PUSH2 0xBF SWAP2 SWAP1 PUSH2 0x829 JUMP JUMPDEST PUSH2 0x2F9 JUMP JUMPDEST PUSH1 0x40 MLOAD PUSH2 0xD2 SWAP3 SWAP2 SWAP1 PUSH2 0x5F2 JUMP JUMPDEST PUSH1 0x40 MLOAD DUP1 SWAP2 SUB SWAP1 RETURN JUMPDEST PUSH2 0xE3 PUSH2 0x3C3 JUMP JUMPDEST PUSH1 0x0 DUP1 DUP2 SLOAD DUP2 LT PUSH2 0xF7 JUMPI PUSH2 0xF6 PUSH2 0x856 JUMP JUMPDEST JUMPDEST SWAP1 PUSH1 0x0 MSTORE PUSH1 0x20 PUSH1 0x0 KECCAK256 SWAP1 PUSH1 0x2 MUL ADD PUSH1 0x40 MLOAD DUP1 PUSH1 0x40 ADD PUSH1 0x40 MSTORE SWAP1 DUP2 PUSH1 0x0 DUP3 ADD DUP1 SLOAD PUSH2 0x120 SWAP1 PUSH2 0x8B4 JUMP JUMPDEST DUP1 PUSH1 0x1F ADD PUSH1 0x20 DUP1 SWAP2 DIV MUL PUSH1 0x20 ADD PUSH1 0x40 MLOAD SWAP1 DUP2 ADD PUSH1 0x40 MSTORE DUP1 SWAP3 SWAP2 SWAP1 DUP2 DUP2 MSTORE PUSH1 0x20 ADD DUP3 DUP1 SLOAD PUSH2 0x14C SWAP1 PUSH2 0x8B4 JUMP JUMPDEST DUP1 ISZERO PUSH2 0x199 JUMPI DUP1 PUSH1 0x1F LT PUSH2 0x16E JUMPI PUSH2 0x100 DUP1 DUP4 SLOAD DIV MUL DUP4 MSTORE SWAP2 PUSH1 0x20 ADD SWAP2 PUSH2 0x199 JUMP JUMPDEST DUP3 ADD SWAP2 SWAP1 PUSH1 0x0 MSTORE PUSH1 0x20 PUSH1 0x0 KECCAK256 SWAP1 JUMPDEST DUP2 SLOAD DUP2 MSTORE SWAP1 PUSH1 0x1 ADD SWAP1 PUSH1 0x20 ADD DUP1 DUP4 GT PUSH2 0x17C JUMPI DUP3 SWAP1 SUB PUSH1 0x1F AND DUP3 ADD SWAP2 JUMPDEST POP POP POP POP POP DUP2 MSTORE PUSH1 0x20 ADD PUSH1 0x1 DUP3 ADD PUSH1 0x0 SWAP1 SLOAD SWAP1 PUSH2 0x100 EXP SWAP1 DIV PUSH2 0xFFFF AND PUSH2 0xFFFF AND PUSH2 0xFFFF AND DUP2 MSTORE POP POP SWAP1 POP SWAP1 JUMP JUMPDEST PUSH1 0x1 DUP1 PUSH1 0x0 ADD DUP1 SLOAD PUSH2 0x1D8 SWAP1 PUSH2 0x8B4 JUMP JUMPDEST DUP1 PUSH1 0x1F ADD PUSH1 0x20 DUP1 SWAP2 DIV MUL PUSH1 0x20 ADD PUSH1 0x40 MLOAD SWAP1 DUP2 ADD PUSH1 0x40 MSTORE DUP1 SWAP3 SWAP2 SWAP1 DUP2 DUP2 MSTORE PUSH1 0x20 ADD DUP3 DUP1 SLOAD PUSH2 0x204 SWAP1 PUSH2 0x8B4 JUMP JUMPDEST DUP1 ISZERO PUSH2 0x251 JUMPI DUP1 PUSH1 0x1F LT PUSH2 0x226 JUMPI PUSH2 0x100 DUP1 DUP4 SLOAD DIV MUL DUP4 MSTORE SWAP2 PUSH1 0x20 ADD SWAP2 PUSH2 0x251 JUMP JUMPDEST DUP3 ADD SWAP2 SWAP1 PUSH1 0x0 MSTORE PUSH1 0x20 PUSH1 0x0 KECCAK256 SWAP1 JUMPDEST DUP2 SLOAD DUP2 MSTORE SWAP1 PUSH1 0x1 ADD SWAP1 PUSH1 0x20 ADD DUP1 DUP4 GT PUSH2 0x234 JUMPI DUP3 SWAP1 SUB PUSH1 0x1F AND DUP3 ADD SWAP2 JUMPDEST POP POP POP POP POP SWAP1 DUP1 PUSH1 0x1 ADD PUSH1 0x0 SWAP1 SLOAD SWAP1 PUSH2 0x100 EXP SWAP1 DIV PUSH2 0xFFFF AND SWAP1 POP DUP3 JUMP JUMPDEST PUSH1 0x0 PUSH1 0x40 MLOAD DUP1 PUSH1 0x40 ADD PUSH1 0x40 MSTORE DUP1 DUP5 DUP2 MSTORE PUSH1 0x20 ADD DUP4 PUSH2 0xFFFF AND DUP2 MSTORE POP SWAP1 DUP1 PUSH1 0x1 DUP2 SLOAD ADD DUP1 DUP3 SSTORE DUP1 SWAP2 POP POP PUSH1 0x1 SWAP1 SUB SWAP1 PUSH1 0x0 MSTORE PUSH1 0x20 PUSH1 0x0 KECCAK256 SWAP1 PUSH1 0x2 MUL ADD PUSH1 0x0 SWAP1 SWAP2 SWAP1 SWAP2 SWAP1 SWAP2 POP PUSH1 0x0 DUP3 ADD MLOAD DUP2 PUSH1 0x0 ADD SWAP1 DUP1 MLOAD SWAP1 PUSH1 0x20 ADD SWAP1 PUSH2 0x2CF SWAP3 SWAP2 SWAP1 PUSH2 0x3E1 JUMP JUMPDEST POP PUSH1 0x20 DUP3 ADD MLOAD DUP2 PUSH1 0x1 ADD PUSH1 0x0 PUSH2 0x100 EXP DUP2 SLOAD DUP2 PUSH2 0xFFFF MUL NOT AND SWAP1 DUP4 PUSH2 0xFFFF AND MUL OR SWAP1 SSTORE POP POP POP POP POP JUMP JUMPDEST PUSH1 0x0 DUP2 DUP2 SLOAD DUP2 LT PUSH2 0x309 JUMPI PUSH1 0x0 DUP1 REVERT JUMPDEST SWAP1 PUSH1 0x0 MSTORE PUSH1 0x20 PUSH1 0x0 KECCAK256 SWAP1 PUSH1 0x2 MUL ADD PUSH1 0x0 SWAP2 POP SWAP1 POP DUP1 PUSH1 0x0 ADD DUP1 SLOAD PUSH2 0x32C SWAP1 PUSH2 0x8B4 JUMP JUMPDEST DUP1 PUSH1 0x1F ADD PUSH1 0x20 DUP1 SWAP2 DIV MUL PUSH1 0x20 ADD PUSH1 0x40 MLOAD SWAP1 DUP2 ADD PUSH1 0x40 MSTORE DUP1 SWAP3 SWAP2 SWAP1 DUP2 DUP2 MSTORE PUSH1 0x20 ADD DUP3 DUP1 SLOAD PUSH2 0x358 SWAP1 PUSH2 0x8B4 JUMP JUMPDEST DUP1 ISZERO PUSH2 0x3A5 JUMPI DUP1 PUSH1 0x1F LT PUSH2 0x37A JUMPI PUSH2 0x100 DUP1 DUP4 SLOAD DIV MUL DUP4 MSTORE SWAP2 PUSH1 0x20 ADD SWAP2 PUSH2 0x3A5 JUMP JUMPDEST DUP3 ADD SWAP2 SWAP1 PUSH1 0x0 MSTORE PUSH1 0x20 PUSH1 0x0 KECCAK256 SWAP1 JUMPDEST DUP2 SLOAD DUP2 MSTORE SWAP1 PUSH1 0x1 ADD SWAP1 PUSH1 0x20 ADD DUP1 DUP4 GT PUSH2 0x388 JUMPI DUP3 SWAP1 SUB PUSH1 0x1F AND DUP3 ADD SWAP2 JUMPDEST POP POP POP POP POP SWAP1 DUP1 PUSH1 0x1 ADD PUSH1 0x0 SWAP1 SLOAD SWAP1 PUSH2 0x100 EXP SWAP1 DIV PUSH2 0xFFFF AND SWAP1 POP DUP3 JUMP JUMPDEST PUSH1 0x40 MLOAD DUP1 PUSH1 0x40 ADD PUSH1 0x40 MSTORE DUP1 PUSH1 0x60 DUP2 MSTORE PUSH1 0x20 ADD PUSH1 0x0 PUSH2 0xFFFF AND DUP2 MSTORE POP SWAP1 JUMP JUMPDEST DUP3 DUP1 SLOAD PUSH2 0x3ED SWAP1 PUSH2 0x8B4 JUMP JUMPDEST SWAP1 PUSH1 0x0 MSTORE PUSH1 0x20 PUSH1 0x0 KECCAK256 SWAP1 PUSH1 0x1F ADD PUSH1 0x20 SWAP1 DIV DUP2 ADD SWAP3 DUP3 PUSH2 0x40F JUMPI PUSH1 0x0 DUP6 SSTORE PUSH2 0x456 JUMP JUMPDEST DUP3 PUSH1 0x1F LT PUSH2 0x428 JUMPI DUP1 MLOAD PUSH1 0xFF NOT AND DUP4 DUP1 ADD OR DUP6 SSTORE PUSH2 0x456 JUMP JUMPDEST DUP3 DUP1 ADD PUSH1 0x1 ADD DUP6 SSTORE DUP3 ISZERO PUSH2 0x456 JUMPI SWAP2 DUP3 ADD JUMPDEST DUP3 DUP2 GT ISZERO PUSH2 0x455 JUMPI DUP3 MLOAD DUP3 SSTORE SWAP2 PUSH1 0x20 ADD SWAP2 SWAP1 PUSH1 0x1 ADD SWAP1 PUSH2 0x43A JUMP JUMPDEST JUMPDEST POP SWAP1 POP PUSH2 0x463 SWAP2 SWAP1 PUSH2 0x467 JUMP JUMPDEST POP SWAP1 JUMP JUMPDEST JUMPDEST DUP1 DUP3 GT ISZERO PUSH2 0x480 JUMPI PUSH1 0x0 DUP2 PUSH1 0x0 SWAP1 SSTORE POP PUSH1 0x1 ADD PUSH2 0x468 JUMP JUMPDEST POP SWAP1 JUMP JUMPDEST PUSH1 0x0 DUP2 MLOAD SWAP1 POP SWAP2 SWAP1 POP JUMP JUMPDEST PUSH1 0x0 DUP3 DUP3 MSTORE PUSH1 0x20 DUP3 ADD SWAP1 POP SWAP3 SWAP2 POP POP JUMP JUMPDEST PUSH1 0x0 JUMPDEST DUP4 DUP2 LT ISZERO PUSH2 0x4BE JUMPI DUP1 DUP3 ADD MLOAD DUP2 DUP5 ADD MSTORE PUSH1 0x20 DUP2 ADD SWAP1 POP PUSH2 0x4A3 JUMP JUMPDEST DUP4 DUP2 GT ISZERO PUSH2 0x4CD JUMPI PUSH1 0x0 DUP5 DUP5 ADD MSTORE JUMPDEST POP POP POP POP JUMP JUMPDEST PUSH1 0x0 PUSH1 0x1F NOT PUSH1 0x1F DUP4 ADD AND SWAP1 POP SWAP2 SWAP1 POP JUMP JUMPDEST PUSH1 0x0 PUSH2 0x4EF DUP3 PUSH2 0x484 JUMP JUMPDEST PUSH2 0x4F9 DUP2 DUP6 PUSH2 0x48F JUMP JUMPDEST SWAP4 POP PUSH2 0x509 DUP2 DUP6 PUSH1 0x20 DUP7 ADD PUSH2 0x4A0 JUMP JUMPDEST PUSH2 0x512 DUP2 PUSH2 0x4D3 JUMP JUMPDEST DUP5 ADD SWAP2 POP POP SWAP3 SWAP2 POP POP JUMP JUMPDEST PUSH1 0x0 PUSH2 0xFFFF DUP3 AND SWAP1 POP SWAP2 SWAP1 POP JUMP JUMPDEST PUSH2 0x534 DUP2 PUSH2 0x51D JUMP JUMPDEST DUP3 MSTORE POP POP JUMP JUMPDEST PUSH1 0x0 PUSH1 0x40 DUP4 ADD PUSH1 0x0 DUP4 ADD MLOAD DUP5 DUP3 SUB PUSH1 0x0 DUP7 ADD MSTORE PUSH2 0x557 DUP3 DUP3 PUSH2 0x4E4 JUMP JUMPDEST SWAP2 POP POP PUSH1 0x20 DUP4 ADD MLOAD PUSH2 0x56C PUSH1 0x20 DUP7 ADD DUP3 PUSH2 0x52B JUMP JUMPDEST POP DUP1 SWAP2 POP POP SWAP3 SWAP2 POP POP JUMP JUMPDEST PUSH1 0x0 PUSH1 0x20 DUP3 ADD SWAP1 POP DUP2 DUP2 SUB PUSH1 0x0 DUP4 ADD MSTORE PUSH2 0x591 DUP2 DUP5 PUSH2 0x53A JUMP JUMPDEST SWAP1 POP SWAP3 SWAP2 POP POP JUMP JUMPDEST PUSH1 0x0 DUP3 DUP3 MSTORE PUSH1 0x20 DUP3 ADD SWAP1 POP SWAP3 SWAP2 POP POP JUMP JUMPDEST PUSH1 0x0 PUSH2 0x5B5 DUP3 PUSH2 0x484 JUMP JUMPDEST PUSH2 0x5BF DUP2 DUP6 PUSH2 0x599 JUMP JUMPDEST SWAP4 POP PUSH2 0x5CF DUP2 DUP6 PUSH1 0x20 DUP7 ADD PUSH2 0x4A0 JUMP JUMPDEST PUSH2 0x5D8 DUP2 PUSH2 0x4D3 JUMP JUMPDEST DUP5 ADD SWAP2 POP POP SWAP3 SWAP2 POP POP JUMP JUMPDEST PUSH2 0x5EC DUP2 PUSH2 0x51D JUMP JUMPDEST DUP3 MSTORE POP POP JUMP JUMPDEST PUSH1 0x0 PUSH1 0x40 DUP3 ADD SWAP1 POP DUP2 DUP2 SUB PUSH1 0x0 DUP4 ADD MSTORE PUSH2 0x60C DUP2 DUP6 PUSH2 0x5AA JUMP JUMPDEST SWAP1 POP PUSH2 0x61B PUSH1 0x20 DUP4 ADD DUP5 PUSH2 0x5E3 JUMP JUMPDEST SWAP4 SWAP3 POP POP POP JUMP JUMPDEST PUSH1 0x0 PUSH1 0x40 MLOAD SWAP1 POP SWAP1 JUMP JUMPDEST PUSH1 0x0 DUP1 REVERT JUMPDEST PUSH1 0x0 DUP1 REVERT JUMPDEST PUSH1 0x0 DUP1 REVERT JUMPDEST PUSH1 0x0 DUP1 REVERT JUMPDEST PUSH32 0x4E487B7100000000000000000000000000000000000000000000000000000000 PUSH1 0x0 MSTORE PUSH1 0x41 PUSH1 0x4 MSTORE PUSH1 0x24 PUSH1 0x0 REVERT JUMPDEST PUSH2 0x678 DUP3 PUSH2 0x4D3 JUMP JUMPDEST DUP2 ADD DUP2 DUP2 LT PUSH8 0xFFFFFFFFFFFFFFFF DUP3 GT OR ISZERO PUSH2 0x697 JUMPI PUSH2 0x696 PUSH2 0x640 JUMP JUMPDEST JUMPDEST DUP1 PUSH1 0x40 MSTORE POP POP POP JUMP JUMPDEST PUSH1 0x0 PUSH2 0x6AA PUSH2 0x622 JUMP JUMPDEST SWAP1 POP PUSH2 0x6B6 DUP3 DUP3 PUSH2 0x66F JUMP JUMPDEST SWAP2 SWAP1 POP JUMP JUMPDEST PUSH1 0x0 PUSH8 0xFFFFFFFFFFFFFFFF DUP3 GT ISZERO PUSH2 0x6D6 JUMPI PUSH2 0x6D5 PUSH2 0x640 JUMP JUMPDEST JUMPDEST PUSH2 0x6DF DUP3 PUSH2 0x4D3 JUMP JUMPDEST SWAP1 POP PUSH1 0x20 DUP2 ADD SWAP1 POP SWAP2 SWAP1 POP JUMP JUMPDEST DUP3 DUP2 DUP4 CALLDATACOPY PUSH1 0x0 DUP4 DUP4 ADD MSTORE POP POP POP JUMP JUMPDEST PUSH1 0x0 PUSH2 0x70E PUSH2 0x709 DUP5 PUSH2 0x6BB JUMP JUMPDEST PUSH2 0x6A0 JUMP JUMPDEST SWAP1 POP DUP3 DUP2 MSTORE PUSH1 0x20 DUP2 ADD DUP5 DUP5 DUP5 ADD GT ISZERO PUSH2 0x72A JUMPI PUSH2 0x729 PUSH2 0x63B JUMP JUMPDEST JUMPDEST PUSH2 0x735 DUP5 DUP3 DUP6 PUSH2 0x6EC JUMP JUMPDEST POP SWAP4 SWAP3 POP POP POP JUMP JUMPDEST PUSH1 0x0 DUP3 PUSH1 0x1F DUP4 ADD SLT PUSH2 0x752 JUMPI PUSH2 0x751 PUSH2 0x636 JUMP JUMPDEST JUMPDEST DUP2 CALLDATALOAD PUSH2 0x762 DUP5 DUP3 PUSH1 0x20 DUP7 ADD PUSH2 0x6FB JUMP JUMPDEST SWAP2 POP POP SWAP3 SWAP2 POP POP JUMP JUMPDEST PUSH2 0x774 DUP2 PUSH2 0x51D JUMP JUMPDEST DUP2 EQ PUSH2 0x77F JUMPI PUSH1 0x0 DUP1 REVERT JUMPDEST POP JUMP JUMPDEST PUSH1 0x0 DUP2 CALLDATALOAD SWAP1 POP PUSH2 0x791 DUP2 PUSH2 0x76B JUMP JUMPDEST SWAP3 SWAP2 POP POP JUMP JUMPDEST PUSH1 0x0 DUP1 PUSH1 0x40 DUP4 DUP6 SUB SLT ISZERO PUSH2 0x7AE JUMPI PUSH2 0x7AD PUSH2 0x62C JUMP JUMPDEST JUMPDEST PUSH1 0x0 DUP4 ADD CALLDATALOAD PUSH8 0xFFFFFFFFFFFFFFFF DUP2 GT ISZERO PUSH2 0x7CC JUMPI PUSH2 0x7CB PUSH2 0x631 JUMP JUMPDEST JUMPDEST PUSH2 0x7D8 DUP6 DUP3 DUP7 ADD PUSH2 0x73D JUMP JUMPDEST SWAP3 POP POP PUSH1 0x20 PUSH2 0x7E9 DUP6 DUP3 DUP7 ADD PUSH2 0x782 JUMP JUMPDEST SWAP2 POP POP SWAP3 POP SWAP3 SWAP1 POP JUMP JUMPDEST PUSH1 0x0 DUP2 SWAP1 POP SWAP2 SWAP1 POP JUMP JUMPDEST PUSH2 0x806 DUP2 PUSH2 0x7F3 JUMP JUMPDEST DUP2 EQ PUSH2 0x811 JUMPI PUSH1 0x0 DUP1 REVERT JUMPDEST POP JUMP JUMPDEST PUSH1 0x0 DUP2 CALLDATALOAD SWAP1 POP PUSH2 0x823 DUP2 PUSH2 0x7FD JUMP JUMPDEST SWAP3 SWAP2 POP POP JUMP JUMPDEST PUSH1 0x0 PUSH1 0x20 DUP3 DUP5 SUB SLT ISZERO PUSH2 0x83F JUMPI PUSH2 0x83E PUSH2 0x62C JUMP JUMPDEST JUMPDEST PUSH1 0x0 PUSH2 0x84D DUP5 DUP3 DUP6 ADD PUSH2 0x814 JUMP JUMPDEST SWAP2 POP POP SWAP3 SWAP2 POP POP JUMP JUMPDEST PUSH32 0x4E487B7100000000000000000000000000000000000000000000000000000000 PUSH1 0x0 MSTORE PUSH1 0x32 PUSH1 0x4 MSTORE PUSH1 0x24 PUSH1 0x0 REVERT JUMPDEST PUSH32 0x4E487B7100000000000000000000000000000000000000000000000000000000 PUSH1 0x0 MSTORE PUSH1 0x22 PUSH1 0x4 MSTORE PUSH1 0x24 PUSH1 0x0 REVERT JUMPDEST PUSH1 0x0 PUSH1 0x2 DUP3 DIV SWAP1 POP PUSH1 0x1 DUP3 AND DUP1 PUSH2 0x8CC JUMPI PUSH1 0x7F DUP3 AND SWAP2 POP JUMPDEST PUSH1 0x20 DUP3 LT DUP2 SUB PUSH2 0x8DF JUMPI PUSH2 0x8DE PUSH2 0x885 JUMP JUMPDEST JUMPDEST POP SWAP2 SWAP1 POP JUMP INVALID LOG2 PUSH5 0x6970667358 0x22 SLT KECCAK256 0x4D 0xC7 0xD5 ADD RETURNDATACOPY 0xF7 DUP16 SWAP11 0xAB GASLIMIT 0xE4 0xE3 PUSH3 0x19B66A 0xCC PUSH23 0x1E7E40A8ECA4CF9ADFCE4BC23A0664736F6C634300080D STOP CALLER "
				},
				"gasEstimates": {
					"creation": {
						"codeDepositCost": "466200",
						"executionCost": "infinite",
						"totalCost": "infinite"
					},
					"external": {
						"addCar(string,uint16)": "infinite",
						"cars(uint256)": "infinite",
						"getFirstCar()": "infinite",
						"myCar()": "infinite"
					}
				},
				"methodIdentifiers": {
					"addCar(string,uint16)": "aba3b91b",
					"cars(uint256)": "f7746e36",
					"getFirstCar()": "8dea9cd8",
					"myCar()": "9cdde813"
				}
			},
			"storageLayout": {
				"storage": [
					{
						"astId": 10,
						"contract": "contracts/Mycontract.sol:MyContract",
						"label": "cars",
						"offset": 0,
						"slot": "0",
						"type": "t_array(t_struct(Car)6_storage)dyn_storage"
					},
					{
						"astId": 17,
						"contract": "contracts/Mycontract.sol:MyContract",
						"label": "myCar",
						"offset": 0,
						"slot": "1",
						"type": "t_struct(Car)6_storage"
					}
				],
				"types": {
					"t_array(t_struct(Car)6_storage)dyn_storage": {
						"base": "t_struct(Car)6_storage",
						"encoding": "dynamic_array",
						"label": "struct MyContract.Car[]",
						"numberOfBytes": "32"
					},
					"t_string_storage": {
						"encoding": "bytes",
						"label": "string",
						"numberOfBytes": "32"
					},
					"t_struct(Car)6_storage": {
						"encoding": "inplace",
						"label": "struct MyContract.Car",
						"members": [
							{
								"astId": 3,
								"contract": "contracts/Mycontract.sol:MyContract",
								"label": "name",
								"offset": 0,
								"slot": "0",
								"type": "t_string_storage"
							},
							{
								"astId": 5,
								"contract": "contracts/Mycontract.sol:MyContract",
								"label": "price",
								"offset": 0,
								"slot": "1",
								"type": "t_uint16"
							}
						],
						"numberOfBytes": "64"
					},
					"t_uint16": {
						"encoding": "inplace",
						"label": "uint16",
						"numberOfBytes": "2"
					}
				}
			},
			"userdoc": {
				"kind": "user",
				"methods": {},
				"version": 1
			}
		}
	}
}